:0420000046EF10F0A7
:10200800FACF4DF0FBCF4EF0E9CF4FF0EACF50F0CA
:10201800E1CF51F0E2CF52F0D9CF53F0DACF54F0FC
:10202800F3CF55F0F4CF56F0F6CF57F0F7CF58F07E
:10203800F8CF59F0F5CF5AF09DB09EA003D058ECD8
:1020480023F003D04FEC1DF000D05AC0F5FF59C063
:10205800F8FF58C0F7FF57C0F6FF56C0F4FF55C049
:10206800F3FF54C0DAFF53C0D9FF52C0E2FF51C09A
:10207800E1FF50C0EAFF4FC0E9FF4EC0FBFF4DC073
:10208800FAFF1100A3EF21F0003E00410041003E9D
:10209800000000440042007F00400040004600610C
:1020A8000051004E0000002200490049003600009F
:1020B800001800140012007F0010002F0045004592
:1020C80000390000003E00490049003200000001CC
:1020D8000071000D00030000003600490049003679
:1020E8000000002600490049003E00000001000AE7
:1020F800006400E80310277803460041004B0045C0
:10210800002000530065007200690061006C002027
:10211800004E0075006D006200650072003A0020F4
:102128000044006F006E00270074002000730068F0
:102138000069007000200061002000700072006FCC
:1021480000640075006300740020006C0069006B77
:10215800006500200074006800690073002E0020EC
:102168000050004C00450041005300450021000983
:102178000246000201028032080B0002020200023D
:1021880009040000010202000305240010010424D0
:1021980002060524060001070581030A0001090457
:1021A8000100020A00000407058202400001070539
:1021B800020240000130035300690067006E0061AD
:1021C800006C00200031003100200053006F0066D1
:1021D800007400770061007200650020004C004C1C
:1021E8000043002E0026034300440043002000441F
:1021F80000610074006100200049006E00740065F1
:1022080000720066006100630065001C034300441F
:10221800004300200049006E0074006500720066EB
:10222800006100630065001A035500530042002056
:10223800004300440043002000540065007300740C
:102248000012010002EF020108A0A0040001000131
:10225800020501040309046C6F6F706261636B20EF
:10226800656E61626C65643B207072657373207E75
:1022780020746F2064697361626C650D0A000D0A31
:1022880048656C703A0D0A09733A2073656E6420CC
:10229800646174610D0A096C3A206C6F6F70626139
:1022A800636B0D0A00096E3A2073656E64206E6FC9
:1022B80074696669636174696F6E0D0A09683A200A
:1022C80068656C700D0A000D0A4C6F6F706261636F
:1022D8006B206F6666202827682720666F72206843
:1022E800656C70290D0A00446174612073656E6421
:1022F800206F6666202827682720666F7220686529
:102308006C70290D0A004E6F74696669636174699F
:102318006F6E2053656E740D0A002D2D002E2E0051
:1023280025640000000E236EFBC037F0FCC038F0B7
:1023380020EE01F03750D9263850DA22060EDE1882
:10234800D8A4C3D037C0D9FF38C0DAFF800EDE1852
:10235800D8A4BBD020EE02F03750D9263850DA2264
:10236800DECF1AF0DDCF1BF01BC01AF01B6A1A5023
:10237800326E20EE02F03750D9263850DA22DF507C
:10238800336E3204D8A419D0490E0B6E220E0C6E8F
:10239800490EF66E220EF76E0800F5500D6E0E6AA5
:1023A80020EE06F03750D9263850DA22DECF0FF06B
:1023B800DDCF10F06BEC20F0EBD2020E3218D8A46F
:1023C80033D03350D8B403D0E4EC24F0E1D2335006
:1023D800020D150EF324D96E010EF420DA6EDECF4D
:1023E80027F0DDCF28F027C00BF028C00CF0020E34
:1023F80027241A6E000E28201B6E1AC0F6FF1BC079
:10240800F7FF0900F5CF0DF00A00F5CF0EF020EE2A
:1024180006F03750D9263850DA22DECF0FF0DDCF5C
:1024280010F06BEC20F0B4D2030E3218D8A425D0EB
:10243800340E016E000E026E3350FDEC1FF001C029
:1024480029F002C02AF02AAE03D0E4EC24F0A0D28E
:1024580034C00BF035C00CF029C00DF02AC00EF0C6
:1024680020EE06F03750D9263850DA22DECF0FF0AA
:10247800DDCF10F06BEC20F08BD237C001F038C004
:1024880002F0250E036E000E046EFEEC24F001C06F
:102498002BF002C02CF02CAE03D0E4EC24F078D260
:1024A80025C00BF026C00CF02BC00DF02CC00EF090
:1024B80020EE06F03750D9263850DA22DECF0FF05A
:1024C800DDCF10F06BEC20F063D220EE01F0375036
:1024D800D9263850DA22050EDE18D8A40FD0010EFE
:1024E8000001F36F20EE02F03750D9263850DA2277
:1024F800DF500001F26FC1EC24F04AD220EE01F067
:102508003750D9263850DA22090EDE18D8A410D050
:1025180020EE02F03750D9263850DA22DF502D6EDF
:102528002D501CEC25F0C1EC24F02DC05FF030D20A
:1025380020EE01F03750D9263850DA22080EDE187E
:10254800D8A415D05F0E0B6E000E0C6E000E0E6E2A
:10255800010E0D6E20EE06F03750D9263850DA22DB
:10256800DECF0FF0DDCF10F06BEC20F011D220EEB3
:1025780001F03750D9263850DA22DF50D8A483D05A
:1025880037C0D9FF38C0DAFFDF501F0B0009D8A4C5
:102598001BD0ECEC24F001C021F002C022F0210E87
:1025A8000B6E000E0C6E000E0E6E020E0D6E20EEFF
:1025B80006F03750D9263850DA22DECF0FF0DDCFBB
:1025C80010F06BEC20F0E4D137C0D9FF38C0DAFF47
:1025D800DF501F0B020AD8A453D020EE04F0375066
:1025E800D9263850DA22DF500F0B2E6E030E2E60DC
:1025F80044D02E50070D060EF326000EF422000ECE
:10260800F324D96E010EF420DA6EDF502F6E20EE1F
:1026180004F03750D9263850DA22DECF1AF0DDCF51
:102628001BF01ABE04D02FC01AF0010E03D02FC021
:102638001AF0020E1A161A501C6E1D6A1C501D1034
:10264800D8B402D0010E01D0000E1F6E000E206E0D
:102658001F0E0B6E000E0C6E000E0E6E020E0D6E2F
:1026680020EE06F03750D9263850DA22DECF0FF0A8
:10267800DDCF10F06BEC20F08BD1E4EC24F088D1A6
:10268800E4EC24F085D120EE01F03750D9263850FB
:10269800DA220B0EDE18D8A41AD020EE02F037503A
:1026A800D9263850DA22DF50016E20EE04F0375078
:1026B800D9263850DA22DF5001EC25F01E6E1EAE06
:1026C80003D0E4EC24F064D1C1EC24F061D120EE15
:1026D80001F03750D9263850DA220A0EDE18D8A46D
:1026E80024D020EE04F03750D9263850DA22DF50B3
:1026F80004EC25F0316E31AE03D0E4EC24F048D17F
:10270800310E0B6E000E0C6E000E0E6E010E0D6E6D
:1027180020EE06F03750D9263850DA22DECF0FF0F7
:10272800DDCF10F06BEC20F033D120EE01F0375004
:10273800D9263850DA22DE04D8B40AD020EE01F0C7
:102748003750D9263850DA22030EDE18D8A41ED105
:10275800010E246E00D037C0D9FF38C0DAFFDF5031
:102768001F0B020AD8A409D120EE02F03750D9264F
:102778003850DA22DE50DE10D8A4FFD020EE04F064
:102788003750D9263850DA22DF500F0B366E20EE3C
:1027980004F03750D9263850DA22DF50800B306EDB
:1027A800030E3660EAD020EE01F03750D9263850B3
:1027B800DA22030EDE18D8A427D03050D8B412D0AD
:1027C8003650070D060EF326000EF422000EF324F1
:1027D800D96E010EF420DA6E000EDB82365064ECFE
:1027E80021F0B1D03650070D060EF326000EF42264
:1027F800000EF324D96E010EF420DA6E000EDB8091
:102808003650AAEC23F09FD03050D8B45AD0365066
:10281800070D050EF326000EF422000EF324D96EE0
:10282800010EF420DA6E36501A6E1B6AD8901A36EA
:102838001B36D8901A361B36D8901A361B36050E1A
:102848001A26000E1B22000E1A24E16E040E1B200D
:10285800E26EDFCFE7FF36501A6E1B6AD8901A3641
:102868001B36D8901A361B36D8901A361B36040EEB
:102878001A26000E1B22000E1A24D96E040E1B20E5
:10288800DA6E000EDF6E00D03650070D060EF32606
:10289800000EF422000EF324D96E010EF420DA6E35
:1028A800F70EDF163650070D060EF326000EF4223B
:1028B800000EF324D96E010EF420DA6EFD0E41D01D
:1028C80000D03650070D040EF326000EF422000E39
:1028D800F324D96E010EF420DA6E3650080D010E7D
:1028E800F326000EF422000EF324E16E040EF42009
:1028F800E26EDFCFE7FF3650080D000EF324D96EE5
:10290800040EF420DA6E880EDF6E00D03650070D04
:10291800060EF326000EF422000EF324D96E010EE3
:10292800F420DA6E000EDB843650070D060EF3260F
:10293800000EF422000EF324D96E010EF420DA6E94
:10294800FE0EDF1600D020EE01F03750D9263850A1
:10295800DA22030EDE18D8A402D0010E01D0000E30
:10296800016E20EE04F03750D9263850DA22DF50B5
:102978001DEC25F0000E246E00D02450D8A403D0FE
:10298800C1EC24F005D0E4EC24F002D0236800D098
:1029980023501200120020EE04F02250D9262350B2
:1029A800DA22DF50416E20EE01F02250D926235062
:1029B800DA22DF50D8A41CD022C0D9FF23C0DAFF06
:1029C800210EDE18D8A414D020EE06F02250D92605
:1029D8002350DA22DECF01F0DDCF02F041500AECBD
:1029E80025F0306E30AE02D0FF0E1200000E12003D
:1029F80020EE01F02250D9262350DA22DE04D8A492
:102A080059D022C0D9FF23C0DAFFA10EDE18D8A4FE
:102A180051D020EE06F02250D9262350DA22DECFFC
:102A280001F0DDCF02F0370E036E000E046E390E92
:102A3800056E000E066E3B0E076E000E086E4150C6
:102A480013EC25F001C03FF002C040F040AE02D0C8
:102A5800FF0E120020EE06F02250D9262350DA226B
:102A6800DE503F5CDE504058D8A00BD020EE06F078
:102A78002250D9262350DA22DECF28F0DDCF29F0E4
:102A880005D03FC028F040C029F000D037C01AF068
:102A980038C01BF028C01CF029C01DF039C01EF03A
:102AA8003AC01FF03BC020F03CC021F0F3EC23F00B
:102AB800000E120020EE01F02250D9262350DA220F
:102AC800020EDE18D8A433D022C0D9FF23C0DAFF03
:102AD800210EDE18D8A42BD020EE02F02250D926E1
:102AE8002350DA22DE04DE10D8B402D0FF0E120022
:102AF80041C0FAF020EE01F02250D9262350DA2204
:102B0800DF500001F96F1E0E016E010E026E000EFD
:102B1800046E020E036ED80E056E440E066E000E8D
:102B2800076E000E086E82EC24F0000E120020EEF4
:102B380001F02250D9262350DA22040EDE18D8A438
:102B480033D022C0D9FF23C0DAFF210EDE18D8A463
:102B58002BD020EE02F02250D9262350DA22DE04B0
:102B6800DE10D8B402D0FF0E120041C0FAF020EEF9
:102B780001F02250D9262350DA22DF500001F96FE4
:102B88001E0E016E010E026E000E046E020E036E22
:102B9800D80E056E440E066E000E076E000E086E07
:102BA80082EC24F0000E120020EE01F02250D9260B
:102BB8002350DA22030EDE18D8A466D022C0D9FF2B
:102BC80023C0DAFFA10EDE18D8A45ED020EE02F0F2
:102BD8002250D9262350DA22DE04DE10D8B402D0DF
:102BE800FF0E12003D0E016E000E026E3E0E036EC9
:102BF800000E046E415016EC25F0316E31AE02D055
:102C0800FF0E12003E50246E256AD89024362536D1
:102C18003D50266E276A2450261001011E6F25504C
:102C2800271001011F6F20EE06F02250D9262350ED
:102C3800DA22010EDB5004E1020EDE5CD8A005D0DA
:102C4800000E2B6E020E2A6E0BD020EE06F02250DC
:102C5800D9262350DA22DECF2AF0DDCF2BF000D0A0
:102C68001E0E1A6E010E1B6E2AC01CF02BC01DF022
:102C7800000E1E6E000E1F6E000E206E000E216EDE
:102C8800F3EC23F0000E120020EE01F02250D926BA
:102C98002350DA22200EDE18D8A43BD022C0D9FF58
:102CA80023C0DAFF210EDE18D8A433D041C0FAF0D1
:102CB80020EE06F02250D9262350DA22010EDB50EE
:102CC80004E1070EDE5CD8A005D0000E2D6E070EBD
:102CD8002C6E0BD020EE06F02250D9262350DA2293
:102CE800DECF2CF0DDCF2DF000D01E0E016E010ED0
:102CF800026E2CC003F02DC004F04C0E056E490E78
:102D0800066E000E076E000E086E82EC24F0000EB0
:102D1800120020EE01F02250D9262350DA22210E8B
:102D2800DE18D8A445D022C0D9FF23C0DAFFA10EEF
:102D3800DE18D8A43DD01E0E016E010E026E415061
:102D480010EC25F0326E32AE02D0FF0E120020EEEB
:102D580006F02250D9262350DA22010EDB5004E176
:102D6800070EDE5CD8A005D0000E2F6E070E2E6E63
:102D78000BD020EE06F02250D9262350DA22DECFDF
:102D88002EF0DDCF2FF000D01E0E1A6E010E1B6E36
:102D98002EC01CF02FC01DF0000E1E6E000E1F6E00
:102DA800000E206E000E216EF3EC23F0000E1200D0
:102DB80020EE01F02250D9262350DA22220EDE1806
:102DC800D8A448D022C0D9FF23C0DAFF210EDE18CC
:102DD800D8A440D020EE02F02250D9262350DA227F
:102DE800DECF24F0DDCF25F024A002D0010E01D0E3
:102DF800000E346E20EE02F02250D9262350DA223B
:102E0800DECF24F0DDCF25F024A202D0010E01D0C0
:102E1800000E356E34C001F035C002F0415007ECA9
:102E280025F0336E33AE02D0FF0E1200000E1A6E7C
:102E3800000E1B6E000E1D6E000E1C6E000E1E6E28
:102E4800000E1F6E000E206E000E216EF3EC23F0B4
:102E5800000E120020EE01F02250D9262350DA226B
:102E6800230EDE18D8A42ED022C0D9FF23C0DAFF43
:102E7800210EDE18D8A426D020EE02F02250D92642
:102E88002350DA22DECF01F0DDCF02F041500DEC05
:102E980025F0366E36AE02D0FF0E1200000E1A6E06
:102EA800000E1B6E000E1D6E000E1C6E000E1E6EB8
:102EB800000E1F6E000E206E000E216EF3EC23F044
:102EC800000E1200FF0E12001200F28CF28EBDEC02
:102ED80019F0C5EC23F0F7EC24F0410E0001E16F86
:102EE800010E0001E56F000E0001E26F910EF66E13
:102EF800200EF76E20EE7BF0630E0900F5CFDEFFA3
:102F0800E806FBE200D0FBEC24F00009D8B49CD022
:102F1800020E6FEC24F00009D8A496D0020EC3EC80
:102F280022F00009D8A490D00001E5510001D8B4DE
:102F38008BD00001F851D8B487D0020E1FEC24F0D2
:102F480060C0E6F061C0E7F0000E0001EB6F000E14
:102F5800EA6F0001EBBF0AD00001EB5122E1100E2D
:102F68000001EA5DD8B01DD001D01BD00001EA51A4
:102F78000001E625D96E0001EB510001E721DA6E68
:102F8800E1C0DFFF0001E12B410E0001E16F00010C
:102F9800EA4BEB2B0001EBBFE9D70001EB5101E154
:102FA800DED781B005D0250E0001DF6F230E04D0D7
:102FB800220E0001DF6F230E0001E06F00D0E6C093
:102FC80060F0E7C061F0DFC062F0E0C063F08FEC52
:102FD80023F0E6C06CF0E7C06DF0280E00016E6FBC
:102FE800230E00016F6FF2EC24F060C070F061C036
:102FF80071F07EEC1CF0000E0001F86F0001EA5140
:103008000001E625D96E0001EB510001E721DA6ED7
:103018000D0EDF6E0001EA4BEB2B0001EA510001B7
:10302800E625D96E0001EB510001E721DA6E0A0EA0
:10303800DF6E0001EA4BEB2BEAC066F0EBC067F0ED
:10304800020E0EEC1EF000D0FBEC24F00009D8B400
:103058005AD7020E5CEC24F00009D8A454D7020E0B
:1030680049EC24F00009D8B44ED7EC0E0001606F8B
:10307800000E0001616F020E12EC23F000017A6F5E
:1030880000017A510001E86FE96B0001E851000185
:10309800E911D8B468D101D066D10001E551000129
:1030A800D8B40DD0000E0001E56FEF0E00016E6F71
:1030B800220E00016F6F020E98EC22F054D100012D
:1030C800E2510001D8A402D068D000D0020EC3ECAF
:1030D80022F00009D8A4FAD7020E1FEC24F060C031
:1030E80063F061C064F0ECC065F0EDC066F0E8C064
:1030F80067F0E9C068F00FEC22F0E8C066F0E9C0BC
:1031080067F0020E0EEC1EF0400E0001E8190001F7
:10311800E911D8B402D010D000D0020EC3EC22F0CE
:103128000009D8A4FAD7000E0001676F000E666F79
:10313800020E0EEC1EF000D0000E0001E46F000E2F
:10314800E36F1FD00001E3510001EC25D96E0001A7
:10315800E4510001ED21DA6E7E0EDE18D8A40DD000
:10316800000E0001E26FCF0E00016E6F220E00010B
:103178006F6F020E98EC22F0F6D00001E34BE42BBF
:1031880000D00001E8510001E35D0001E9510001B0
:10319800E459D8B0E8D0D6D7E6D0ECC0D9FFEDC016
:1031A800DAFF680EDE18D8B408D0ECC0D9FFEDC03D
:1031B800DAFF3F0EDE18D8A413D0860E00016E6F1A
:1031C800220E00016F6F020E98EC22F0AD0E000186
:1031D8006E6F220E00016F6F020E98EC22F0C3D0C2
:1031E800ECC0D9FFEDC0DAFF730EDE18D8A404D006
:1031F800010E0001E56FB7D0ECC0D9FFEDC0DAFFD2
:103208006C0EDE18D8A40DD0010E0001E26F5F0E1F
:1032180000016E6F220E00016F6F020E98EC22F013
:10322800A2D0ECC0D9FFEDC0DAFF6E0EDE18D8A42C
:103238009AD0010E1FEC24F060C0EEF061C0EFF0F0
:10324800EEC0D9FFEFC0DAFFA10EDF6E000120EE5D
:1032580001F0EE51D926EF51DA22200EDF6E00017F
:1032680020EE02F0EE51D926EF51DA22000EDE6E82
:10327800000EDD6E000120EE04F0EE51D926EF516C
:10328800DA22010EDE6E000EDD6E000120EE06F081
:10329800EE51D926EF51DA22020EDE6E000EDD6EF7
:1032A800000120EE08F0EE51D926EF51DA22000E87
:1032B800DE6E000EDD6E000120EE08F0EE51D9261C
:1032C800EF51DA220001DF80000120EE08F0EE5114
:1032D800D926EF51DA220001DF82000120EE08F042
:1032E800EE51D926EF51DA220001DF94000120EED9
:1032F80008F0EE51D926EF51DA220001DF960001DD
:1033080020EE08F0EE51D926EF51DA220001DF98BD
:10331800000120EE08F0EE51D926EF51DA22000123
:10332800DF9A000120EE08F0EE51D926EF51DA229B
:103338000001DF9C00D0010EC3EC22F00009D8A4E4
:10334800FAD7000E0001676F0A0E666F010E0EECC9
:103358001EF00E0E00016E6F230E00016F6F020E3D
:1033680098EC22F000D0020E8CEC1EF0CCD546EF83
:1033780010F06290629200D0000E646E000E666ECD
:10338800608662886296628465966596659665969B
:10339800000E656E6486648A6480648C6A0E00011F
:1033A800606F0F0E0001616F000E0001636F000E69
:1033B800626F000E0001656F100E646F74EC23F0ED
:1033C8006A886A966A846A826A90010E00016C6F44
:1033D800020E00016C6501D02CD000016C51010D6A
:1033E8006A0EF32400016A6F0F0EF42000016B6F60
:1033F8006AC0D9FF6BC0DAFF0001DF886AC0D9FF55
:103408006BC0DAFF0001DF866AC0D9FF6BC0DAFF44
:103418000001DF846AC0D9FF6BC0DAFF0001DF82D8
:103428006AC0D9FF6BC0DAFF0001DF9000016C2B86
:10343800CFD7000E636E000E0001F36F000E5F6EB3
:10344800000E0001FF6F000E00016C6F020E0001FC
:103458006C6501D012D000016C51070D060EF326E1
:10346800000EF422000EF324D96E010EF420DA6E59
:10347800040EDF6E00016C2BE9D7000E0001606FAF
:10348800040E0001616F000E0001636F000E626F91
:10349800000E0001656F180E646F74EC23F0FBC01A
:1034A80002F4FCC003F400D0080E0401016F800E82
:1034B8000401006F00D0FDC006F4FEC007F400D080
:1034C800080E0401056F000E0401046F00D0010E00
:1034D80000016C6F020E00016C6501D0C3D00001C1
:1034E8006C51070D000EF324D96E010EF420DA6E2C
:1034F80000016C51080D020EF326000EF422000E96
:10350800F324E16E040EF420E26EDECFE6FFDDCF99
:10351800E5FF00016C51070D040EF326000EF4229E
:10352800000EF324D96E010EF420DA6E00016C51FE
:10353800080D010EF326000EF422000EF324E16EAE
:10354800040EF420E26EDFCFE7FF00016C51080D96
:10355800000EF324D96E040EF420DA6E880EDF6EA6
:1035680000D000016C51070D020EF326000EF42264
:10357800000EF324D96E010EF420DA6E00016C51AE
:103588000001686F696BD8900001683769370001DE
:10359800D890683769370001D89068376937060EC0
:1035A80000016827000E6923000E00016825E16EFE
:1035B800040E00016921E26EDECFE6FFDDCFE5FFF4
:1035C80000D000016C51070D050EF326000EF42201
:1035D800000EF324D96E010EF420DA6E00016C514E
:1035E8000001686F696BD89000016837693700017E
:1035F800D890683769370001D89068376937050E61
:1036080000016827000E6923000E00016825E16E9D
:10361800040E00016921E26EDFCFE7FF00016C5163
:103628000001686F696BD89000016837693700013D
:10363800D890683769370001D89068376937040E21
:1036480000016827000E6923000E00016825D96E65
:10365800040E00016921DA6E000EDF6E00D0000151
:103668006C2B38D70AEC24F0A38412006290629283
:1036780000D0000E646E000E666E608662886296E8
:1036880062846596659665966596000E656E648695
:10369800648A6480648C6A0E016E0F0E026E000EDE
:1036A800046E000E036E000E066E100E056EDCEC46
:1036B80023F06A886A966A846A826A90010E0D6E9F
:1036C800020E0D6401D023D00D50010D6A0EF324B3
:1036D8000B6E0F0EF4200C6E0BC0D9FF0CC0DAFF76
:1036E800DF880BC0D9FF0CC0DAFFDF860BC0D9FF1B
:1036F8000CC0DAFFDF840BC0D9FF0CC0DAFFDF8211
:103708000BC0D9FF0CC0DAFFDF900D2AD9D7000E05
:10371800636E000E0001F36F000E5F6E000E000175
:10372800FF6F000E0D6E020E0D6401D010D00D500B
:10373800070D060EF326000EF422000EF324D96EB0
:10374800010EF420DA6E040EDF6E0D2AECD7000E9F
:10375800016E040E026E000E046E000E036E000E63
:10376800066E180E056EDCEC23F0FBC002F4FCC0FC
:1037780003F400D0080E0401016F800E0401006FED
:1037880000D0FDC006F4FEC007F400D0080E040106
:10379800056F000E0401046F00D0010E0D6E020EBD
:1037A8000D6401D0A3D00D50070D000EF324D96E7F
:1037B800010EF420DA6E0D50080D020EF326000EED
:1037C800F422000EF324E16E040EF420E26EDECF44
:1037D800E6FFDDCFE5FF0D50070D040EF326000EC2
:1037E800F422000EF324D96E010EF420DA6E0D5087
:1037F800080D010EF326000EF422000EF324E16EEC
:10380800040EF420E26EDFCFE7FF0D50080D000E26
:10381800F324D96E040EF420DA6E880EDF6E00D021
:103828000D50070D020EF326000EF422000EF324AD
:10383800D96E010EF420DA6E0D50096E0A6AD8901E
:1038480009360A36D89009360A36D89009360A3623
:10385800060E0926000E0A22000E0924E16E040E47
:103868000A20E26EDECFE6FFDDCFE5FF00D00D5087
:10387800070D050EF326000EF422000EF324D96E70
:10388800010EF420DA6E0D50096E0A6AD8900936D6
:103898000A36D89009360A36D89009360A36050EFF
:1038A8000926000E0A22000E0924E16E040E0A20E1
:1038B800E26EDFCFE7FF0D50096E0A6AD89009362D
:1038C8000A36D89009360A36D89009360A36040ED0
:1038D8000926000E0A22000E0924D96E040E0A20B9
:1038E800DA6E000EDF6E00D00D2A59D734EC24F0C2
:1038F800A3841200700E0001736F000E0001746F34
:10390800B2D0250E00017919D8B40AD06CC0D9FFFD
:103918006DC0DAFF79C0DFFF00016C4B6D2BA3D0BF
:10392800000E0001756F04D0AED017D09CD015D012
:103938006EC0F6FF6FC0F7FF00016E4B6F2B0800DB
:10394800F5CF79F000017951000AD8B49CD0640A07
:10395800D8B403D00D0AD8A486D073C0D9FF74C0D8
:10396800DAFFDECF77F0DDCF78F0020E00017327A3
:10397800000E7423000178AF09D0030E00017513FF
:103988000001776D781FD8B0782B00D0010E0001A8
:10399800796F050E00017919D8B41AD001D018D062
:1039A80000017951020DF50EF324F66E200EF42075
:1039B800F76E0900F5500001775D0900F550000128
:1039C8007859D8A005D001D003D00001792BE1D7D0
:1039D80075C072F0030E00017217D8B40AD06CC01B
:1039E800D9FF6DC0DAFF2D0EDF6E00016C4B6D2B19
:1039F80000D079C076F02FD000017651020DF50E77
:103A0800F324F66E200EF420F76E0900F5CF62F06D
:103A18000A00F5CF63F077C060F078C061F023EC5E
:103A280021F060C067F061C068F0000E00016A6FA5
:103A38000A0E696FD9EC21F000016751300F0001BF
:103A4800796F6CC0D9FF6DC0DAFF79C0DFFF000164
:103A58006C4B6D2B00D00001760700017629D8B495
:103A680002D0CAD700D06EC0F6FF6FC0F7FF0001C2
:103A78006E4B6F2B0800F5CF79F000017951D8B45F
:103A880002D03FD700D06CC0D9FF6DC0DAFF000E5E
:103A9800DF6E1200120065A006D021EC25F03AEC8A
:103AA8001BF0659000D065AA21D0000E4B6E010E68
:103AB8004A6E4BBE08D04B5018E1030E4A5CD8B092
:103AC80014D001D012D06A0E4A24486E0F0E4B2033
:103AD800496E48C0D9FF49C0DAFFDF904A4A4B2AED
:103AE8004BBEF1D74B5001E1E8D7659A65A687D060
:103AF8006130E832E8320F0B0009D8B461B41ED047
:103B080004010031E8320F0B4C6E0D0E4C18D8A48E
:103B180003D0D6EC20F00FD0090E4C18D8B40BD037
:103B280001D009D04C04D8A403D084EC1FF003D0F2
:103B3800E4EC24F000D0CCEC24F060D06130E83222
:103B4800E8320F0B0009D8B461A403D009EC1FF0C8
:103B580055D06130E832E8320F0B0009D8B44ED0A6
:103B68006130E832E8320F0B476E030E476046D0EB
:103B780061A422D06130E832E8320F0B476E47501B
:103B8800070D060EF326000EF422000EF324D96E5C
:103B9800010EF420DA6E0101DFA207D06130E832AD
:103BA800E8320F0B64EC21F029D06130E832E832BA
:103BB8000F0B24EC25F022D06130E832E8320F0BED
:103BC800476E4750070D060EF326000EF422000E2E
:103BD800F324D96E010EF420DA6E0101DFA007D0BC
:103BE8006130E832E8320F0BAAEC23F007D06130DD
:103BF800E832E8320F0B23EC25F000D0659665AC6F
:103C080004D022EC25F0659C00D0A4A41200A49452
:103C18001200120000016B6F5F50D8B4120000014F
:103C28006B516FEC24F00009D8A4120000016B510D
:103C38000001686F696BD890000168376937000127
:103C4800D890683769370001D89068376937040E0B
:103C580000016827000E6923000E00016825000195
:103C68006C6F040E0001692100016D6F00016B513A
:103C7800070D060EF326000EF422000EF324D96E6B
:103C8800010EF420DA6E0101DFA602D0010E01D088
:103C9800000E00016A6F6CC0D9FF6DC0DAFF000E1C
:103CA800DF6E00016A510001D8B411D0000120EE86
:103CB80001F06C51D9266D51DA2266C0DFFF6CC065
:103CC800D9FF6DC0DAFFC80E10D011D000D00001A6
:103CD80020EE01F06C51D9266D51DA2266C0DFFF63
:103CE8006CC0D9FF6DC0DAFF880EDF6E00D000010E
:103CF8006B51070D060EF326000EF422000EF32476
:103D0800D96E010EF420DA6E080EDF1A12001200C6
:103D18000001616F00016151070D060EF326000EC8
:103D2800F422000EF324D96E010EF420DA6E01019C
:103D3800DFA402D0010E01D0000E0001606F000167
:103D480060510001D8B429D000016151070D040E5B
:103D5800F326000EF422000EF324D96E010EF4208F
:103D6800DA6E00016151080D010EF326000EF422EF
:103D7800000EF324E16E040EF420E26EDFCFE7FFBD
:103D880000016151080D000EF324D96E040EF420D1
:103D9800DA6EC80E28D029D000D000016151070D75
:103DA800040EF326000EF422000EF324D96E010E41
:103DB800F420DA6E00016151080D010EF326000EA1
:103DC800F422000EF324E16E040EF420E26EDFCF3D
:103DD800E7FF00016151080D000EF324D96E040EAF
:103DE800F420DA6E880EDF6E00D000016151070DF5
:103DF800060EF326000EF422000EF324D96E010EEF
:103E0800F420DA6E040EDF1A12000001F351D8B460
:103E180006D0F2C063FF000E0001F36F00D05B50C4
:103E28005C10D8B440D05C5004E1080E5B5CD8A0AC
:103E380005D0000E0C6E080E0B6E04D05BC00BF0A4
:103E48005CC00CF00BC00DF0FDC001F0FEC002F02C
:103E580017C103F018C104F00DC005F0066A40EC64
:103E680022F00D505B5E000E5C5A0D50010DF350B0
:103E780001011727F450010118235B505C10D8A4E6
:103E88000CD0080E0D18D8A408D00001F751D8B4EA
:103E980004D0010E0001F46F00D00DC002F0036AD7
:103EA80035EC23F012000001F451D8B40CD0000E08
:103EB800036E000E026E35EC23F0000E0001F46F65
:103EC80034EC24F012000001F651D8A412005D5021
:103ED8005E10D8B411D001D80FD00500FA6E5D502D
:103EE800FD6E5E50FE6EF850FF6EFA50F0C003F0A3
:103EF800F1C004F0010E120034EC24F0120012009C
:103F080001C40FF00001F605D8A418D05D505E106A
:103F1800D8B411D001D80FD00500FA6E5D50FD6EEF
:103F28005E50FE6EF850FF6EFA50F0C003F0F1C01C
:103F380004F0010E120034EC24F0120001011951B2
:103F480001011A11D8B412000F500B6E0C6A5B50A5
:103F58000B5C5C500C58D8A005D05BC00DF05CC061
:103F68000EF003D00FC00DF00E6A0DC010F019C18D
:103F780001F01AC102F0FBC003F0FCC004F010C04D
:103F880005F0066A40EC22F01050010DF3500101D3
:103F98001927F45001011A2310505B5E000E5C5A79
:103FA800070E0F6404D05B505C10D8A412000F50A9
:103FB800105CD8B01AD0E4EC24F05D505E10D8B490
:103FC80011D001D80FD00500FA6E5D50FD6E5E501D
:103FD800FE6EF850FF6EFA50F0C003F0F1C004F026
:103FE800000E120034EC24F01200C1EC24F0120090
:103FF8001200036E0350D8A40ED001C0D9FF02C02E
:10400800DAFF5B0EDE6E220EDD6E000E026E040E0F
:10401800016E120059D00304D8A40ED001C0D9FFF4
:1040280002C0DAFFBD0EDE6E210EDD6E000E026EDE
:10403800300EEED7120048D0020E0318D8A40ED0C6
:1040480001C0D9FF02C0DAFF2F0EDE6E220EDD6E30
:10405800000E026E1A0EDCD7120036D0030E0318BB
:10406800D8A40ED001C0D9FF02C0DAFF130EDE6E4D
:10407800220EDD6E000E026E1C0ECAD7120024D06E
:10408800040E0318D8A40ED001C0D9FF02C0DAFF6D
:10409800ED0EDE6E210EDD6E000E026E260EB8D716
:1040A800120012D0050E0318D8A40ED001C0D9FFF3
:1040B80002C0DAFFFF0EDE6E200EDD6E000E026E0D
:1040C800780EA6D7120000D00168026812000E50C0
:1040D80004E1080E0D5CD8A005D0000E146E080E81
:1040E800136E04D00DC013F00EC014F013C019F0F5
:1040F8001950116E126A0F50115C10501258D8A046
:1041080005D00FC015F010C016F003D019C015F077
:10411800166A15C019F00F500D5C10500E58D8B023
:1041280002D0010E01D0000E0001F76FFDC001F0B2
:10413800FEC002F00BC003F00CC004F019C005F07B
:10414800066A40EC22F01950010DF3500B240101CE
:10415800176FF4500C200101186F0D500F5C0E50B2
:104168001058D8A005D00DC017F00EC018F005D013
:104178000FC017F010C018F000D01950116E126A55
:10418800111E121E114A122A175011245B6E185064
:1041980012205C6E0001FF8719C002F0036A35EC3B
:1041A80023F01200FBC045F0FCC046F045C0D9FF23
:1041B80046C0DAFF000EDFBE010E0001F66FD4EC38
:1041C80024F05B505C10D8B418D05D505E10D8B4A1
:1041D80011D001D80FD00500FA6E5D50FD6E5E500B
:1041E800FE6EF850FF6EFA50F0C003F0F1C004F014
:1041F800000E120034EC24F000D045C0D9FF46C0B0
:10420800DAFFDF38E832030B0009D8A40AD096ECAD
:1042180011F0446E44BE05D010D003D00ED001D0AA
:104228000CD045C042F046C043F0DCEC24F0446EAC
:1042380044AE03D0E4EC24F000D060981200000EE5
:104248000001656F000E646F000162510001631187
:10425800D8B431D0010E0001666F07D00001D890A4
:10426800623763370001662B00D0000163BF02D0BC
:10427800F5D700D00001D890643765370001625146
:104288000001605D0001635100016159D8A00BD0A5
:10429800000162510001605F000163510001615B30
:1042A8000001648100D00001D890633362330001BB
:1042B800662FE0D700D064C060F065C061F01200DE
:1042C800036E0350070D050EF326000EF422000EB0
:1042D800F324D96E010EF420DA6E0350016E026ADF
:1042E800D89001360236D89001360236D890013679
:1042F8000236050E0126000E0222000E0124E16E90
:10430800040E0220E26EDFCFE7FF0350016E026A5F
:10431800D89001360236D89001360236D890013648
:104328000236040E0126000E0222000E0124D96E68
:10433800040E0220DA6E840EDF6E1200120001EE07
:1043480017F00E0EEE6AE806FDE100EEF0F00B0E37
:10435800EE6AE806FDE15F6A5E6A5D6A5C6A5B6A4E
:104368006A0EF66E490EF76E000EF86E01EE00F05A
:1043780010EE17F00900F5CFEEFFE550E150FAE135
:10438800320EF66E4A0EF76E000EF86E00EEFBF077
:1043980010EE05F00900F5CFEEFFE550E150FAE127
:1043A800000EF86E000169EF17F000016951000175
:1043B8006A11D8B42BD0010E00016B6F07D0000131
:1043C800D89069376A3700016B2B00D000016ABFAB
:1043D80002D0F5D700D0000169510001675D0001E6
:1043E8006A5100016859D8A009D00001695100013B
:1043F800675F00016A510001685B00D00001D89036
:104408006A33693300016B2FE6D700D067C067F0C5
:1044180068C068F0120065C06BF066C06CF063C0DD
:1044280069F064C06AF01CD06BC0F6FF6CC0F7FF7F
:10443800F86A69C0D9FF6AC0DAFF070EF76403D0CB
:104448000800F55005D0F6CFE1FFF7CFE2FFE750BF
:10445800DF6E00016B4B6C2B0001694B6A2B00D09F
:1044680000016707D8A0680700016729DDE100019E
:104478006829D8A4D9D7120003C009F004C00AF0EB
:1044880001C007F002C008F01AD009C0F6FF0AC040
:10449800F7FFF86A07C0D9FF08C0DAFF070EF7640C
:1044A80003D00800F55005D0F6CFE1FFF7CFE2FFC3
:1044B800E750DF6E094A0A2A074A082A00D005068B
:1044C800D8A006060528E1E10628D8A4DED7120000
:1044D800056E0550D8B4120001D0120001011EA1CA
:1044E80002D0010E01D0000E066E01011EA302D0FB
:1044F800010E01D0000E076E020E0001F919D8A4B2
:1045080009D006C001F007C002F00001FA511EEC04
:1045180025F0120006C001F007C002F00001FA51B0
:104528001FEC25F0120012000001726F0001725199
:104538001FEC24F060C070F061C071F000D0000181
:104548007251C3EC22F00009D8A4F9D770C060F00A
:1045580071C061F06EC062F06FC063F08FEC23F041
:1045680070C060F071C061F0EBEC22F060C066F0E2
:1045780061C067F0000172510EEC1EF012000001DC
:10458800626F000162510001606F616BD890000199
:10459800603761370001D890603761370001D890E3
:1045A80060376137040E00016027000E6123000E9A
:1045B80000016025D96E040E00016121DA6E040144
:1045C800DFAE02D0010E1200000E1200120060C011
:1045D80064F061C065F004D00001644B652B00D025
:1045E80064C0D9FF65C0DAFFDF50D8A4F5D760C032
:1045F80062F061C063F00001621F631F624B632BAE
:1046080000016451000162250001606F00016551DD
:10461800000163210001616F120012000001626F46
:1046280000016251070D000EF324D96E010EF4202B
:10463800DA6E60C0E1FF61C0E2FFDECFE6FFDDCFEA
:10464800E5FF00016251080D010EF326000EF42269
:10465800000EF324D96E040EF420DA6EDF50120037
:104668001200000E95EC24F00009D8A412000001F5
:10467800FFA702D0010E01D0000E046E000E040147
:10468800046F0450D8B405D002C005F4C80E04D095
:1046980006D002C005F4880E0401046F00D0080E8D
:1046A8000001FF1B120012009E90CD900B0ECF6EE2
:1046B800DB0ECE6ECD8001011B4B1C2B780E010149
:1046C8001B1901011C11D8A41200817C000E0101E4
:1046D8001C6F000E1B6F010E0001F86F1200120014
:1046E80060C066F061C067F00AD066C0D9FF67C0D5
:1046F800DAFF62C0DFFF0001664B672B00D00001C4
:104708006407D8A0650700016429EFE10001652965
:10471800D8A4EBD7120060C064F061C065F007D080
:104728000001644B652B0001624B632B00D062C013
:10473800F6FF63C0F7FF64C0D9FF65C0DAFF080061
:10474800F5CFDFFFDF50D8A4EBD71200016E015080
:10475800080D010EF326000EF422000EF324D96E84
:10476800040EF420DA6E000EDF6E0150080D000E04
:10477800F324D96E040EF420DA6E840EDF6E120074
:104788001200000E01011C6F000E1B6F000E0001CD
:10479800F86F939C000ECD6ECD88CD8A0B0ECF6E30
:1047A800DB0ECE6ECD80F28EF28C9E909D80120034
:1047B80001C007F002C008F009D007C0D9FF08C03F
:1047C800DAFF03C0DFFF074A082A00D00506D8A091
:1047D80006060528F2E10628D8A4EFD712001EC065
:1047E8005DF01FC05EF020C0F0F021C0F1F01AC0EB
:1047F8000BF01BC00CF01CC00DF01DC00EF01CC04F
:104808000FF01DC010F06BEC20F01200000E01013B
:10481800176F000E0101186F000E0101196F000ECD
:1048280001011A6F000E5C6E000E5B6E000E5D6E6D
:10483800000E5E6E12000001626F00016251070DEA
:10484800020EF326000EF422000EF324D96E010E98
:10485800F420DA6EDECF60F0DDCF61F012001200D6
:10486800000E0101176F000E0101186F000E010103
:10487800196F000E01011A6F000E5C6E000E5B6E60
:10488800000E5D6E000E5E6E12000001606F00018A
:104898006051080D000EF324D96E040EF420DA6E70
:1048A8000401DFBE02D0010E1200000E1200120039
:1048B8000001606F00016051070D060EF326000E1F
:1048C800F422000EF324D96E010EF420DA6EDF50C4
:1048D800010B120012000001606F00016051070D0A
:1048E800060EF326000EF422000EF324D96E010EF4
:1048F800F420DA6EDF50020B1200120034EC24F0C0
:1049080005C05DF006C05EF001C019F102C01AF1E1
:1049180003C05BF004C05CF007C0F0F008C0F1F021
:104928001200016E0150070D060EF326000EF42248
:10493800000EF324D96E010EF420DA6EDF50020B5C
:1049480012001200056E0550D8B4120001D01200F2
:104958001E0E016E010E026E0001FA5120EC25F0C8
:1049680012000000000000000010051105010A00F7
:104978001B055B05404000772100000E0401046F11
:10498800000E0401056FC80E0401046F1200120026
:10499800080E0401016F800E0401006F120012005E
:1049A800080E0401056F000E0401046F12001200C6
:1049B80042C022F043C023F0CFEC14F012001200E2
:1049C800080E0401056F840E0401046F1200120022
:1049D800000E026E000E016E12001200F5C060F0AB
:1049E8000001616B12000F015C91938012005F500F
:1049F80012001200016802681200000E1200120074
:104A0800000E12001200000E12001200FF0E12001B
:104A18001200000E12001200FF0E120012000168B0
:104A280002681200FF0E12001200000508050000BF
:104A380012001200120012001200120012001200DE
:024A480012005A
:020000040020DA
:08000000FFFFFFFFFFFFFFFF00
:020000040030CA
:0E00000023225E3CFFD3A5FF0FC00FE00F4090
:00000001FF
