:020000040800F2
:1000000070080020AD010008050200080502000884
:1000100005020008050200080502000800000000B3
:1000200000000000000000000000000005020008C1
:10003000050200080000000005020008E90B0008A6
:100040000502000805020008050200080502000874
:100050000502000805020008050200080502000864
:100060000502000805020008050200080502000854
:100070000502000805020008050200080502000844
:100080000502000805020008050200080502000834
:100090000502000805020008050200080502000824
:1000A0000502000805020008050200080502000814
:1000B0000502000805020008050200080502000804
:1000C00005020008050200080502000805020008F4
:1000D00005020008050200080502000805020008E4
:1000E00005020008050200080502000805020008D4
:1000F00005020008050200080502000805020008C4
:1001000005020008050200080502000805020008B3
:1001100005020008050200080502000805020008A3
:100120000502000805020008050200080502000893
:100130000502000805020008050200080502000883
:100140000502000805020008050200080502000873
:100150000502000805020008050200080502000863
:100160000502000805020008050200080502000853
:100170000502000805020008050200080502000843
:100180000502000805020008050200080502000833
:100190000502000805020008050200080502000823
:1001A00005020008050200080502000880B582B0BB
:1001B00000AF0F4B7B600F4B3B6007E03B681A1DA5
:1001C0003A607A68111D796012681A603B680A4AC1
:1001D0009342F3D309480A494FF000028842B8BF5E
:1001E00040F8042BFADB00F013F80837BD4680BD59
:1001F000B85B0008000000204800002048000020F4
:100200006C00002080B400AFFEE700BF00000000DB
:1002100090B587B002AF01F00DFD02F051F800205B
:1002200002F084FA032002F0C5FA4FF6E07300935F
:10023000002301935A205A214F4A504B02F0FEFAF4
:100240004FF6E0730093002301935A2064214C4A37
:100250004A4B02F0F3FA4FF6E07300930023019348
:100260005A206E21474A454B02F0E8FA4FF6E073F8
:100270000093002301935A207821434A3F4B02F018
:10028000DDFA00F01BFA0346022B0BD04FF6E433E5
:10029000009300230193142014213C4A3C4B02F0AC
:1002A000CDFAFEE701237B724FF6FF730093002027
:1002B00078214FF4A072782302F0A2FB0023FB60A8
:1002C0002BE0FB689CB2FB68FA6802FB03F318465C
:1002D00002F09AFD02460B461046194624A3D3E9C4
:1002E000002302F0F7FD02460B46104619464FF078
:1002F0000002284B02F03CFC02460B461046194611
:1003000002F0FAFF03469BB2204619464FF6FF72F1
:1003100002F0A2F9FB680133FB60FB68B3F5A07F34
:10032000CFDB3B1D184600F095FA0346002B12D197
:10033000002300934FF6E433019314205021164A12
:10034000134B02F07BFABA88FB881046194600224C
:1003500002F082F90AE0002300934FF6E4330193A0
:10036000142050210D4A0A4B02F068FAD9E700BF69
:10037000FCA9F1D24D62403F383300083000002024
:100380004C330008603300087033000880330008E5
:100390003800002000005E409033000898330008C9
:1003A00080B483B000AF0346FB71054B00221A7086
:1003B000034AFB7913700C37BD465DF8047B704728
:1003C0000238024080B582B000AF00233B600023BA
:1003D000FB710023BB71312000F020F90346BB7193
:1003E0003B6801333B603B68B3F5A04F02D0BB795B
:1003F000002BF0D0312000F011F90346002B02D081
:100400000123FB7101E00023FB71FB7918460837DB
:10041000BD4680BD80B489B000AF78600023BB6169
:1004200000237B610023FB6102233B610023FB600F
:100430000223BB60484B9B6803F00C03BB61BB69A4
:10044000042B07D0082B09D0002B3FD17B68434AEF
:100450001A603FE07B68424A1A603BE03E4B5B68B3
:1004600003F480039B0DFB603B4B5B6803F03F0391
:10047000BB60FB68002B0DD0394ABB68B2FBF3F2BE
:10048000354B596847F6C0730B409B0903FB02F3D9
:10049000FB610CE0314ABB68B2FBF3F22E4B5968AA
:1004A00047F6C0730B409B0903FB02F3FB612A4B29
:1004B0005B6803F440331B0C01335B003B61FA695A
:1004C0003B69B2FBF3F27B681A6003E07B68234A66
:1004D0001A6000BF204B9B6803F0F003BB61BB694F
:1004E0001B09BB611F4ABB6913441B78DBB27B61EC
:1004F0007B681A687B69DA407B685A60164B9B6898
:1005000003F4E053BB61BB699B0ABB61154ABB693D
:1005100013441B78DBB27B617B685A687B69DA40E5
:100520007B689A600C4B9B6803F46043BB61BB69BA
:100530005B0BBB610B4ABB6913441B78DBB27B616D
:100540007B685A687B69DA407B68DA602437BD468D
:100550005DF8047B704700BF003802400024F400BF
:1005600000127A000000002080B483B000AF7860F1
:100570000B46FB70FB78002B06D00949084B1A6B21
:100580007B6813430B6306E00549054B1A6B7B68D8
:10059000DB4313400B630C37BD465DF8047B7047AB
:1005A0000038024080B483B000AF78600B46FB7027
:1005B000FB78002B06D00949084B1A6C7B68134363
:1005C0000B6406E00549054B1A6C7B68DB4313405E
:1005D0000B640C37BD465DF8047B70470038024061
:1005E00080B483B000AF78600B46FB70FB78002BC3
:1005F00006D00949084B5A6C7B6813434B6406E0EC
:100600000549054B5A6C7B68DB4313404B640C3740
:10061000BD465DF8047B70470038024080B487B067
:1006200000AF0346FB710023FB6000237B610023C6
:10063000FB74FB795B09DBB2FB60FB68012B03D128
:10064000124B1B687B6109E0FB68022B03D10F4B47
:100650001B6F7B6102E00D4B5B6F7B61FB7903F0ED
:100660001F03FB60FB687A6922FA03F303F00103BE
:10067000002B02D00123FB7401E00023FB74FB7C00
:1006800018461C37BD465DF8047B704700380240B1
:1006900080B485B000AF7860074B1B68FB6000BF7B
:1006A000054B1A68FB68D21A7B689A42F8D3143754
:1006B000BD465DF8047B70474C00002090B585B0C6
:1006C00002AF00F0A9FA58480021584A00F058FE3D
:1006D000554882210322022301F00EF80520FFF77E
:1006E000D7FF514882210322002301F005F80220A0
:1006F000FFF7CEFF3C1D022300934B4882210022CE
:10070000234601F01DF83B791B027A79134340F62A
:100710001102934201D0032381E043488221032246
:10072000022300F0E9FF0520FFF7B2FF3E488221D7
:100730000322002300F0E0FF0220FFF7A9FF0420BE
:1007400000F076F80346FB71FB7923F00103FB719F
:10075000FB7935488221042200F0CEFF042000F00E
:1007600067F80346FB71FB7923F00203FB71FB7909
:100770002D488221042200F0BFFF2B488221202235
:10078000492300F0B9FF0220FFF782FF26488221AB
:100790002122012300F0B0FF172000F049F80346A2
:1007A000FB71FB7943F01E03FB71FB791E4882212C
:1007B000172200F0A1FF1C48822141229A2300F059
:1007C0009BFF194882214A22012300F095FF164819
:1007D00082214B22012300F08FFF134882214B22FC
:1007E000002300F089FF104882215622012300F0E7
:1007F00083FF0D4882215822012300F07DFF0A4823
:1008000082214022032300F077FF074882210B2238
:10081000FF2300F071FF0220FFF73AFF0223184682
:100820000C37BD4690BD00BF005C0040A0860100B3
:1008300080B582B000AF0346FB71FB79044882218A
:100840001A4600F031FF034618460837BD4680BD02
:10085000005C004080B584B000AF78604020FFF7B6
:10086000E7FF0346FB73FB7B5BB2002B16DB7B6869
:1008700000221A807B6800225A807B6801221A714C
:100880005A4882214B22012300F036FF574882212B
:100890004B22002300F030FF0123A3E07B685B794B
:1008A000002B17D17B681B88184600F0A1F803467F
:1008B000C3F1EF039AB27B681A807B685B881846A5
:1008C00000F0F4F80346C3F59F7301339AB27B68D6
:1008D0005A8048E07B685B79012B12D17B681B88CA
:1008E000184600F085F803461A467B681A807B6834
:1008F0005B88184600F0DAF803461A467B685A808F
:1009000031E07B685B79022B15D17B685B881846E8
:1009100000F06EF803461A467B685A807B681B8895
:10092000184600F0C3F80346C3F59F7301339AB22B
:100930007B681A8017E07B685B79032B13D17B6897
:100940001B88184600F054F80346C3F1EF039AB22F
:100950007B685A807B681B88184600F0A7F803461E
:100960001A467B681A80214882214B22012300F01D
:10097000C3FE1E4882214B22002300F0BDFE7B688F
:1009800000221A717B685B79002B03D07B685B794E
:10099000012B13D17B681B88002B0ED07B681B8832
:1009A000EE2B0AD87B685B88002B06D07B685B88BF
:1009B000B3F59F7F01D8002314E012E07B681B8809
:1009C000002B0ED07B681B88B3F59F7F09D87B680E
:1009D0005B88002B05D07B685B88EE2B01D8002359
:1009E00000E0012318461037BD4680BD005C004082
:1009F00080B584B000AF0346FB804D20FFF718FFA1
:100A000003467B724E20FFF713FF03463B727B7A4F
:100A10001B029AB23B7A9BB21343FB81B7F90E30AB
:100A200040F6B832934206DCFB89C3F573630C339E
:100A30009BB2FB8105E0FB89C3F56D6308339BB274
:100A4000FB81B7F90E30184A82FB03121A44D21008
:100A5000DB17D31AFB81B7F90E30EF2B02DDEF2342
:100A6000FB8105E0B7F90E30002B01DA0023FB8192
:100A7000B7F90E20FB889A4205DDFA89FB88D31A64
:100A80009BB29BB204E0FB89FA88D31A9BB29BB25B
:100A9000BB81B7F90C30042B01DDFB8900E0FB883A
:100AA00018461037BD4680BD8988888880B584B0D7
:100AB00000AF0346FB804F20FFF7BAFE03467B7270
:100AC0005020FFF7B5FE03463B727B7A1B029AB2B9
:100AD0003B7A9BB21343FB81FB89A3F5B4739BB2B2
:100AE000FB81B7F90E30194A82FB03125210DB1753
:100AF000D31AFB81B7F90E30002B02DC0023FB81F7
:100B000007E0B7F90E30B3F5A07F02DB40F23F13E8
:100B1000FB81B7F90E20FB889A4205DDFA89FB8834
:100B2000D31A9BB29BB204E0FB89FA88D31A9BB21A
:100B30009BB2BB81B7F90C30042B01DDFB8900E0CF
:100B4000FB8818461037BD4680BD00BFE9A28B2E3A
:100B500080B483B000AF03463960FB7197F907306A
:100B6000002B0BDA0D49FB7903F00F03043B3A68C5
:100B7000D2B21201D2B20B441A7609E0084997F9B1
:100B800007303A68D2B21201D2B20B4483F8002384
:100B90000C37BD465DF8047B704700BF00ED00E0F8
:100BA00000E100E080B582B000AF78607B68013B77
:100BB000B3F1807F01D301230FE00A4A7B68013B38
:100BC00053604FF0FF300F21FFF7C2FF054B0022AB
:100BD0009A60044B07221A60002318460837BD4666
:100BE00080BD00BF10E000E080B400AF084B1B6880
:100BF0000133074A1360074B1B68002B04D0054BD9
:100C00001B68013B034A1360BD465DF8047B7047D7
:100C10004C0000205000002080B500AF134B1B7823
:100C2000002B00D021E00120FFF7BAFB00BFFFF747
:100C3000C9FB0346002BFAD00D4B1B680D4AA2FBE3
:100C400003239B091846FFF7ADFF0346002B00D096
:100C5000FEE7074B1B689B09074AA2FB03239B0A7D
:100C6000064A1360014B01221A7080BD5400002017
:100C70001C000020D34D621017916502580000201F
:100C800080B582B000AF78600B46FB707B681B4A72
:100C9000934204D1FB78184600F066F82BE07B689D
:100CA000174A934204D1FB78184600F0DBF822E0A3
:100CB0007B68144A934204D1FB78184600F080F90F
:100CC00019E07B68104A934204D1FB78184600F083
:100CD000F5F910E07B680D4A934204D1FB78184681
:100CE00000F068FA07E07B68094A934203D1FB7879
:100CF000184600F0EBFA0837BD4680BD00300140D1
:100D000000380040003C00400034014000500140E9
:100D10000054014080B582B000AF78600B46FB7094
:100D2000FB789AB27B689A8100BF7868022101F053
:100D3000C9F80346002BF8D000BF7868012101F004
:100D4000C1F80346002BF8D000BF7868802101F07D
:100D5000B9F80346002BF8D17B689B899BB2DBB2C4
:100D600018460837BD4680BD80B58AB000AF03463F
:100D7000FB71002387F82630002387F827300323F0
:100D800087F82530022387F82430FB79002B1BD10C
:100D900001200121FFF7E8FBE0233B6207F120037C
:100DA0002D48194600F054FE2B480521052200F07D
:100DB000F9FE29480621052200F0F4FE2648072105
:100DC000052200F0EFFE1DE0FB79012B1AD1022075
:100DD0000121FFF7C9FB38233B6207F120031F48BD
:100DE000194600F035FE1D480321052200F0DAFE09
:100DF0001A480421052200F0D5FE184805210522D5
:100E000000F0D0FE4FF480500121FFF7E9FB07F11D
:100E10000C03184601F012F820233B8300233B8289
:100E20000023BB8100237B834FF48273FB8100236B
:100E30007B820023BB824FF40073FB8207F10C031B
:100E40000748194600F0B6FF0548012101F01AF8DD
:100E50002837BD4680BD00BF0000024000040240AC
:100E60000030014080B58AB000AF0346FB7100231B
:100E700087F82630012387F82730032387F82530A9
:100E8000022387F82430FB79002B28D1022001218E
:100E9000FFF76AFB04200121FFF766FB0C233B628E
:100EA00007F120034248194600F0D2FD4FF4806359
:100EB0003B6207F120033F48194600F0C9FD3C485A
:100EC0000221052200F06EFE39480321052200F0C0
:100ED00069FE38480A21052200F064FE3EE0FB79F5
:100EE000012B1CD102200121FFF73EFB4FF4604390
:100EF0003B6207F120032F48194600F0A9FD2D4859
:100F00000D21052200F04EFE2A480E21052200F098
:100F100049FE28480F21052200F044FE1EE0FB791F
:100F2000022B1BD14FF480700121FFF71DFB0D2315
:100F30003B6207F120031F48194600F089FD1E4857
:100F40000021052200F02EFE1B480221052200F0A0
:100F500029FE19480321052200F024FE4FF48040A9
:100F60000121FFF71FFB07F10C03184600F066FF95
:100F700020233B8300233B820023BB8100237B8310
:100F80004FF48273FB8100237B820023BB824FF4EA
:100F90000073FB8207F10C030848194600F00AFFB2
:100FA0000648012100F06EFF2837BD4680BD00BF16
:100FB00000080240000402400020024000380040C7
:100FC00080B58AB000AF0346FB71002387F8263056
:100FD000002387F82730032387F82530022387F87A
:100FE0002430FB79002B1BD102200121FFF7BCFA32
:100FF00038233B6207F120032D48194600F028FDF5
:101000002B480321062200F0CDFD294804210622A9
:1010100000F0C8FD26480521062200F0C3FD1EE0B1
:10102000FB79012B1BD104200121FFF79DFA4FF41E
:10103000E0533B6207F120031E48194600F008FD0B
:101040001C480A21062200F0ADFD1A480B21062299
:1010500000F0A8FD17480C21062200F0A3FD4FF474
:1010600000400121FFF79EFA07F10C03184600F03B
:10107000E5FE20233B8300233B820023BB8100232A
:101080007B834FF48273FB8100237B820023BB822E
:101090004FF40073FB8207F10C030748194600F078
:1010A00089FE0548012100F0EDFE2837BD4680BDD0
:1010B0000004024000080240003C004080B58AB0B5
:1010C00000AF0346FB71002387F82630002387F822
:1010D0002730032387F82530022387F82430FB7953
:1010E000002B1BD110200121FFF73EFA64233B6245
:1010F00007F120032D48194600F0AAFC2B480221D5
:10110000052200F04FFD29480521052200F04AFD87
:1011100026480621052200F045FD1EE0FB79012B43
:101120001BD110200121FFF71FFA4FF4E0433B626F
:1011300007F120031D48194600F08AFC1B480C21CA
:10114000052200F02FFD19480D21052200F02AFD8F
:1011500016480E21052200F025FD4FF40050012114
:10116000FFF73EFA07F10C03184600F067FE202354
:101170003B8300233B820023BB8100237B834FF40E
:101180008273FB8100237B820023BB824FF40073B8
:10119000FB8207F10C030648194600F00BFE0448D9
:1011A000012100F06FFE2837BD4680BD00100240CF
:1011B0000034014080B58AB000AF0346FB710023C4
:1011C00087F82630002387F82730032387F8253057
:1011D000022387F82430FB79002B1CD12020012129
:1011E000FFF7C2F94FF460733B6207F12003344804
:1011F000194600F02DFC32480721052200F0D2FCF0
:101200002F480821052200F0CDFC2D480921052298
:1012100000F0C8FC2AE0FB79012B27D12020012116
:10122000FFF7A2F980200121FFF79EF9C0233B625E
:1012300007F120032248194600F00AFC4FF400632E
:101240003B6207F120031E48194600F001FC1C48D0
:101250000B21052200F0A6FC1A480621052200F009
:10126000A1FC18480721052200F09CFC4FF48010D7
:101270000121FFF7B5F907F10C03184600F0DEFD78
:1012800020233B8300233B820023BB8100237B83FD
:101290004FF48273FB8100237B820023BB824FF4D7
:1012A0000073FB8207F10C030748194600F082FD2A
:1012B0000548012100F0E6FD2837BD4680BD00BF8E
:1012C00000140240001C02400050014080B58AB06A
:1012D00000AF0346FB7140200121FFF745F90023D1
:1012E00087F82630002387F82730032387F8253036
:1012F000022387F824304FF4E0433B6207F12003D8
:101300001D48194600F0A4FB1B480D21052200F0E2
:1013100049FC19480C21052200F044FC16480E2116
:10132000052200F03FFC4FF400100121FFF758F9AF
:1013300007F10C03184600F081FD20233B830023B6
:101340003B820023BB8100237B834FF48273FB81AC
:1013500000237B820023BB824FF40073FB8207F1E2
:101360000C030648194600F025FD0448012100F051
:1013700089FD2837BD4680BD001802400054014059
:1013800080B588B000AFF8600B467A60FB72FB68EE
:101390003C4A934220D14FF400100121FFF702F99B
:1013A000FB7A184600F076F8374B1A687B689A4249
:1013B00002D9354A7B681360334B1B683B614FF49D
:1013C0008043BB830023BB8200233B8300237B83BA
:1013D0004BF6FF73FB8248E0FB682C4A934220D116
:1013E0004FF480000121FFF7DDF8FB7A184600F08A
:1013F0009FF8254B5A687B689A4202D9224A7B683B
:101400005360214B5B683B614FF48043BB830023F7
:10141000BB8200233B8300237B834BF6FF73FB825D
:1014200023E0FB681A4A93421FD14FF400000121C8
:10143000FFF7B8F8FB7A184600F0DEF8124B9A680E
:101440007B689A4202D9104A7B6893600E4B9B6876
:101450003B614FF48043BB830023BB8200233B836B
:1014600000237B834BF6FF73FB8207F11003F868C0
:10147000194600F043FDF868012100F001FE203715
:10148000BD4680BD005400401000002000580040C0
:10149000005C004080B584B000AF0346FB710220C1
:1014A0000121FFF761F802233B730123BB73012382
:1014B000FB7303237B73FB79002B0CD1C023BB6030
:1014C0001A480621042200F06DFB18480721042267
:1014D00000F068FB20E0FB79012B0DD14FF4407345
:1014E000BB6012480821042200F05CFB0F48092170
:1014F000042200F057FB0FE0FB79022B0CD14FF4D4
:101500001073BB6009480621042200F04BFB07481A
:101510000921042200F046FB07F10803034819469D
:1015200000F096FA1037BD4680BD00BF00040240AF
:1015300080B584B000AF0346FB7102233B730123E7
:10154000BB730123FB7303237B73FB79002B17D140
:1015500002200121FFF708F84FF44063BB602348E5
:101560000A21042200F01EFB20480B21042200F077
:1015700019FB07F108031D48194600F069FA32E02B
:10158000FB79012B16D120200121FEF7EDFF03236B
:10159000BB6017480021042200F004FB144801211D
:1015A000042200F0FFFA07F108031148194600F081
:1015B0004FFA18E0FB79022B15D180200121FEF7AC
:1015C000D3FF3023BB600B480421042200F0EAFA69
:1015D00008480521042200F0E5FA07F10803054850
:1015E000194600F035FA1037BD4680BD00040240B0
:1015F00000140240001C024080B584B000AF0346D6
:10160000FB7102233B730123BB730123FB73032391
:101610007B73FB79002B24D101200121FEF7A4FF6D
:1016200004200121FEF7A0FF1C480821042200F03D
:10163000B9FA1B480921042200F0B4FA4FF4807370
:10164000BB6007F108031548194600F001FA4FF492
:101650000073BB6007F108031148194600F0F8F960
:1016600013E0FB79012B10D180200121FEF77CFFD4
:101670004FF4C073BB600B480721042200F092FABC
:1016800008480821042200F08DFA07F108030548F4
:10169000194600F0DDF91037BD4680BD000002405C
:1016A00000080240001C024080B584B000AF7860A2
:1016B0000B46FB701346BB70FB7878681946002216
:1016C000002300F081F8BB787868194600F006F92D
:1016D000786800F087F9FB787868194601220023C2
:1016E00000F072F8786800F04DF90346FB73FB7B5D
:1016F00018461037BD4680BD80B582B000AF786017
:10170000084611461A460346FB700B46BB7013464B
:101710007B70FB78786819460022002300F054F8AB
:10172000BB787868194600F0D9F87B787868194654
:1017300000F0D4F8786800F055F90837BD4680BD50
:1017400090B587B000AFF8607B600B46FB72134624
:10175000BB72FB7AF86819460022012300F034F8C6
:10176000BB7AF868194600F0B9F8F86800F03AF961
:10177000FB7AF86819460122012300F025F80023BE
:10178000FB7518E0FA7D3B8D013B9A4208D1FB7D49
:101790007A68D418F86800F0F5F80346237007E07B
:1017A000FB7D7A68D418F86800F0C0F8034623700F
:1017B000FB7D0133FB75FB7D9BB23A8D9A42E1D8EC
:1017C0001C37BD4690BD00BF80B582B000AF7860C9
:1017D000084611461A460346FB700B46BB7013467B
:1017E0007B707868012100F06BFC374B44F6206277
:1017F0001A600AE0344B1B68013B334A1360324BDA
:101800001B68002B01D1012358E078682F4900F0B4
:1018100023FD0346002B03D12B4B1B68002BE9D182
:101820007B78002B03D02A48012100F0A7FCFA782E
:10183000BB78786811461A4600F082FCBB78002B12
:101840001BD1214B44F620621A600AE01E4B1B6834
:10185000013B1D4A13601C4B1B68002B01D1012367
:101860002CE078681B4900F0F7FC0346002B22D1DE
:10187000154B1B68002BE9D11DE0BB78012B1AD159
:10188000114B44F620621A600AE00F4B1B68013BC3
:101890000D4A13600C4B1B68002B01D101230DE096
:1018A00078680D4900F0A8FC0346002B03D1064BD5
:1018B0001B68002BE9D17B681B8B00231BB21846E9
:1018C0000837BD4680BD00BF5C000020010000104D
:1018D00000540040020000100200030080B582B0F6
:1018E00000AF78600B46FB700E4B44F620621A6026
:1018F00004E00C4B1B68013B0A4A136078680A49F4
:1019000000F0AAFC0346002B03D1064B1B68002BFA
:10191000EFD1FB787868194600F050FC0837BD46D7
:1019200080BD00BF5C0000208000001080B584B046
:1019300000AF78607868012100F020FC0F4B44F67E
:1019400020621A6004E00D4B1B68013B0B4A1360D8
:1019500078680B4900F050FC0346002B03D1074B7D
:101960001B68002BEFD1786800F038FC0346FB734E
:10197000FB7B18461037BD4680BD00BF5C000020D1
:101980004000030080B584B000AF78607868002123
:1019900000F0F4FB7868012100F0B2FB0F4B44F635
:1019A00020621A6004E00D4B1B68013B0B4A136078
:1019B00078680B4900F020FC0346002B03D1074B4D
:1019C0001B68002BEFD1786800F008FC0346FB731E
:1019D000FB7B18461037BD4680BD00BF5C00002071
:1019E0004000030080B582B000AF7860154B44F62C
:1019F00020621A600AE0134B1B68013B114A136016
:101A0000104B1B68002B01D1012316E078680E49AA
:101A100000F022FC0346002B06D078680B4900F04A
:101A20001BFC0346002B03D1064B1B68002BE2D1A5
:101A30007868012100F064FB002318460837BD4692
:101A400080BD00BF5C00002080000010040000107A
:101A500080B487B000AF7860396000237B610023D9
:101A60003B610023FB6000237B6176E07B69012200
:101A700002FA03F33B613B681A683B691340FB6061
:101A8000FA683B699A4265D17B681A687B695B009A
:101A9000194603238B40DB431A407B681A607B683E
:101AA0001A683B681B7919467B695B0001FA03F3EE
:101AB0001A437B681A603B681B79012B03D03B6893
:101AC0001B79022B2ED17B689A687B695B001946D3
:101AD00003238B40DB431A407B689A607B689A68DB
:101AE0003B685B7919467B695B0001FA03F31A4393
:101AF0007B689A607B685A687B699BB219460123B0
:101B00008B40DB431A407B685A607B685B683A68AD
:101B1000927911467A6992B201FA02F292B21A43AC
:101B20007B685A607B68DA687B699BB25B00032143
:101B300001FA03F3DB431A407B68DA607B68DA68FA
:101B40003B68DB7919467B695B0001FA03F31A43B2
:101B50007B68DA607B6901337B617B690F2B85D9F8
:101B60001C37BD465DF8047B704700BF80B483B06E
:101B700000AF78600B467B807B687A881A830C37CD
:101B8000BD465DF8047B704780B483B000AF7860D9
:101B90000B467B807B687A885A830C37BD465DF89C
:101BA000047B704780B485B000AF78600B467B80C3
:101BB00013467B700023FB600023BB607B787A8830
:101BC00002F0070292009340FB607B88DB089BB227
:101BD00018467B88DB089BB21A467B68083253F8AC
:101BE00022207B8803F007039B0019460F238B40BC
:101BF000DB4302EA03017B6800F1080243F822108C
:101C00007B88DB089BB21A467B68083253F8222097
:101C1000FB681343BB607B88DB089BB21A467B687A
:101C20000832B96843F822101437BD465DF8047BCA
:101C3000704700BF80B500AF114A114B1B6843F0DD
:101C4000010313600E4B00229A600D4A0C4B1B6877
:101C500023F0847323F480331360094B094A5A60DC
:101C6000074A074B1B6823F480231360044B0022B0
:101C7000DA6000F00BF8044B4FF000629A6080BD10
:101C8000003802401030002400ED00E080B483B042
:101C900000AF00237B6000233B60424A414B1B683E
:101CA00043F4803313603F4B1B6803F400333B6005
:101CB0007B6801337B603B68002B03D17B68B3F505
:101CC000A04FF0D1374B1B6803F40033002B02D038
:101CD00001233B6001E000233B603B68012B5CD1AA
:101CE000304A304B1B6C43F0805313642E4A2E4B0A
:101CF0001B6843F4404313602A4A2A4B9B68936055
:101D0000284A284B9B6843F400439360254A254B9F
:101D10009B6843F4A0539360224B244A5A60214AA3
:101D2000204B1B6843F08073136000BF1D4B1B6882
:101D300003F00073002BF9D01B4A1B4B1B6843F4C4
:101D40008033136000BF184B5B6803F48033002BB3
:101D5000F9D0154A144B1B6843F40033136000BFDD
:101D6000114B5B6803F40033002BF9D0104B40F2A9
:101D700005721A600B4A0B4B9B6823F003039360B8
:101D8000084A084B9B6843F00203936000BF054B71
:101D90009B6803F00C03082BF9D10C37BD465DF8A6
:101DA000047B70470038024000700040085A40072A
:101DB000003C024080B485B000AF786039600023F9
:101DC000FB817B681B88FB81FB8903F44153FB810A
:101DD0003B681A883B685B8813439AB23B689B88D0
:101DE00013439AB23B68DB8813439AB23B681B8962
:101DF00013439AB23B685B8913439AB23B689B8951
:101E000013439AB23B68DB8913439AB2FB891343AD
:101E1000FB817B68FA891A807B689B8B9BB223F4D9
:101E200000639AB27B689A833B681A8A7B681A823D
:101E30001437BD465DF8047B704700BF80B483B0A3
:101E400000AF78607B6800221A807B6800225A808D
:101E50007B6800229A807B680022DA807B680022FF
:101E60001A817B6800225A817B6800229A817B68F4
:101E70000022DA817B6807221A820C37BD465DF8A2
:101E8000047B704780B483B000AF78600B46FB7072
:101E9000FB78002B08D07B681B889BB243F0400383
:101EA0009AB27B681A8007E07B681B889BB223F09C
:101EB00040039AB27B681A800C37BD465DF8047BFC
:101EC000704700BF80B485B000AF78600B467B8060
:101ED0000023FB737B681B899AB27B8813409BB2FB
:101EE000002B02D00123FB7301E00023FB73FB7B7B
:101EF00018461437BD465DF8047B704780B58AB03C
:101F000000AF786039600023FB8400237B840423C6
:101F1000BB84574BFB617B689B88FB84FB8C23F065
:101F20003F03FB8407F10C031846FEF773FA7B6945
:101F3000FB61FB694F4AA2FB03239B0C7B84FA8C59
:101F40007B8C1343FB847B68FA8C9A807B681B88AC
:101F50009BB223F001039AB27B681A800023FB84B2
:101F60003B681B68444A934215D83B681B685B007A
:101F7000FA69B2FBF3F3BB84BB8C032B01D80423B7
:101F8000BB84FA8CBB8C1343FB847B8C01339AB2E9
:101F90007B681A8440E03B68DB884BF6FF72934213
:101FA00009D13B681A6813465B001344FA69B2FB17
:101FB000F3F3BB840EE03B681A6813469B0013449E
:101FC0009A001344FA69B2FBF3F3BB84BB8C43F46D
:101FD0008043BB84BB8CC3F30B03002B03D1BB8CAE
:101FE00043F00103BB84BA8CFB8C13439BB26FEAB2
:101FF00043436FEA5343FB847B8C4FF4967202FB9E
:1020000003F31E4A82FB03129211DB17D31A9BB211
:1020100001339AB27B681A847B68FA8C9A837B6856
:102020001B889BB243F001039AB27B681A807B68DD
:102030001B88FB84FB8C23F4816323F00203FB8465
:102040003B689A883B685B8913439AB2FB8C1343C5
:10205000FB847B68FA8C1A803B689A893B681B89F1
:1020600013439AB27B681A812837BD4680BD00BFF2
:1020700000127A0083DE1B43A0860100D34D62105C
:1020800080B483B000AF78600B46FB70FB78002B08
:1020900008D07B681B889BB243F001039AB27B682F
:1020A0001A8007E07B681B889BB223F001039AB279
:1020B0007B681A800C37BD465DF8047B704700BF13
:1020C00080B483B000AF78600B46FB70FB78002BC8
:1020D00008D07B681B889BB243F480739AB27B68FC
:1020E0001A8007E07B681B889BB223F480739AB246
:1020F0007B681A800C37BD465DF8047B704700BFD3
:1021000080B483B000AF78600B46FB70FB78002B87
:1021100008D07B681B889BB243F400739AB27B683B
:102120001A8007E07B681B889BB223F400739AB285
:102130007B681A800C37BD465DF8047B704700BF92
:1021400080B483B000AF78600B46FB701346BB7061
:10215000BB78002B04D0FB7843F00103FB7003E055
:10216000FB7823F00103FB70FB789AB27B681A823C
:102170000C37BD465DF8047B704700BF80B483B068
:1021800000AF78600B46FB70FB78002B08D07B68B3
:102190001B889BB243F480639AB27B681A8007E085
:1021A0007B681B889BB223F480639AB27B681A8099
:1021B0000C37BD465DF8047B704700BF80B483B028
:1021C00000AF78600B46FB70FB789AB27B681A828E
:1021D0000C37BD465DF8047B704700BF80B483B008
:1021E00000AF78607B681B8A9BB2DBB218460C3765
:1021F000BD465DF8047B704780B487B000AF78605F
:10220000396000233B610023FB600023BB60002397
:10221000FB757B689B8A9BB2FB607B681B8B9BB2C8
:10222000BB60BB681B04BB60FA68BB68134323F048
:102230007F433B613A693B681A403B689A4202D14E
:102240000123FB7501E00023FB75FB7D18461C375D
:10225000BD465DF8047B704780B487B000AF7860FE
:1022600039600023FB7500233B610023FB607B6822
:10227000FB603B681B0F3B613B6823F07F433B6087
:102280003B69002B03D0FB681433FB6005E03B681F
:102290001B0C3B60FB681833FB60FB681A683B68EB
:1022A0001340002B02D00123FB7501E00023FB75D6
:1022B000FB7D18461C37BD465DF8047B704700BFA8
:1022C00080B582B000AF08200121FEF74DF94FF430
:1022D00000533B6002237B7101233B710023BB71E0
:1022E0000023FB713B461F481946FFF7B1FB042052
:1022F0000121FEF739F904233B603B461A48194691
:10230000FFF7A6FB08200121FEF72EF90123FB7140
:102310004FF480533B603B4612481946FFF798FB49
:1023200011480421FFF722FC10480021FEF7A8FC09
:1023300000F024F80E4B00221A800D4B1A880D4B2A
:102340001A800D4BF0221A800B4B4FF4A0725A806A
:10235000094B01221A714FF6FF7000F0E7F90837B8
:10236000BD4680BD000C0240000802400050014004
:102370006A000020600000206400002080B500AFEB
:1023800092484FF48051FFF7F1FB012000F024F94F
:102390008F4800F0FFF9CB2000F01EF9392000F043
:1023A0003BF92C2000F038F9002000F035F93420FA
:1023B00000F032F9022000F02FF9CF2000F00CF9E4
:1023C000002000F029F9C12000F026F9302000F0AB
:1023D00023F9E82000F000F9852000F01DF9002025
:1023E00000F01AF9782000F017F9EA2000F0F4F86C
:1023F000002000F011F9002000F00EF9ED2000F0AF
:10240000EBF8642000F008F9032000F005F9122031
:1024100000F002F9812000F0FFF8F72000F0DCF86E
:10242000202000F0F9F8C02000F0D6F8232000F0BA
:10243000F3F8C12000F0D0F8102000F0EDF8C5202E
:1024400000F0CAF83E2000F0E7F8282000F0E4F899
:10245000C72000F0C1F8862000F0DEF8362000F03A
:10246000BBF8482000F0D8F83A2000F0B5F8552025
:1024700000F0D2F8B12000F0AFF8002000F0CCF866
:10248000182000F0C9F8B62000F0A6F8082000F0E7
:10249000C3F8822000F0C0F8272000F0BDF8F22039
:1024A00000F09AF8002000F0B7F82A2000F094F825
:1024B000002000F0B1F8002000F0AEF8002000F09D
:1024C000ABF8EF2000F0A8F82B2000F085F80020F2
:1024D00000F0A2F8002000F09FF8012000F09CF826
:1024E0003F2000F099F8262000F076F8012000F057
:1024F00093F8E02000F070F80F2000F08DF8312004
:1025000000F08AF82B2000F087F80C2000F084F807
:102510000E2000F081F8082000F07EF84E2000F038
:102520007BF8F12000F078F8372000F075F80720EC
:1025300000F072F8102000F06FF8032000F06CF843
:102540000E2000F069F8092000F066F8002000F085
:1025500063F8E12000F040F8002000F05DF80E2064
:1025600000F05AF8142000F057F8032000F054F857
:10257000112000F051F8072000F04EF8312000F053
:102580004BF8C12000F048F8482000F045F808203A
:1025900000F042F80F2000F03FF80C2000F03CF86B
:1025A000312000F039F8362000F036F80F2000F026
:1025B00033F8112000F010F8064800F0EBF829205D
:1025C00000F00AF82C2000F007F880BD000C024053
:1025D00080841E0040420F0080B582B000AF0346E9
:1025E000FB710A484FF40051FFF7CEFA0848042166
:1025F000FFF7CAFAFB7907481946FEF78BFB044838
:102600000421FFF7B3FA0837BD4680BD000C024035
:10261000000802400050014080B582B000AF034680
:10262000FB710A484FF40051FFF7A0FA0848042153
:10263000FFF7AAFAFB7907481946FEF76BFB044837
:102640000421FFF793FA0837BD4680BD000C024015
:10265000000802400050014080B582B000AF034640
:10266000FB800B46BB8013467B80F888B988FA88CC
:10267000BB8800F013F82C20FFF7AEFF7B881B0A05
:102680009BB2DBB21846FFF7C7FF7B88DBB2184668
:10269000FFF7C2FF0837BD4680BD00BF90B583B0CD
:1026A00000AF0446084611461A462346FB800346FF
:1026B000BB800B467B8013463B802A20FFF78CFFB4
:1026C000FB881B0A9BB2DBB21846FFF7A5FFFB880D
:1026D000DBB21846FFF7A0FF7B881B0A9BB2DBB278
:1026E0001846FFF799FF7B88DBB21846FFF794FF87
:1026F0002B20FFF771FFBB881B0A9BB2DBB2184689
:10270000FFF78AFFBB88DBB21846FFF785FF3B88DF
:102710001B0A9BB2DBB21846FFF77EFF3B88DBB299
:102720001846FFF779FF0C37BD4690BD80B586B0DF
:1027300000AF0346FB80FB881B0A9BB23B61FB8812
:10274000DBB2FB60124B1B88013B9AB2104B5B88DB
:10275000013B9BB200200021FFF7A0FF2C20FFF7D8
:102760003BFF00237B610CE03B69DBB21846FFF7BF
:1027700053FFFB68DBB21846FFF74EFF7B6901335E
:102780007B617B69B3F5963FEED31837BD4680BDBC
:102790006400002080B483B000AF786002E07B6802
:1027A000013B7B607B68002BF9D10C37BD465DF89F
:1027B000047B704780B582B000AF0346FB713620C2
:1027C000FFF70AFFFB79002B03D15820FFF724FF06
:1027D00013E0FB79012B03D18820FFF71DFF0CE0EC
:1027E000FB79022B03D12820FFF716FF05E0FB79C8
:1027F000032B02D1E820FFF70FFFFB79002B02D05B
:10280000FB79012B0AD10C4BF0221A800A4B4FF4B2
:10281000A0725A80084B01221A7109E0064B4FF44E
:10282000A0721A80044BF0225A80034B00221A71C6
:102830000837BD4680BD00BF6400002080B588B069
:1028400002AFBA607B600346FB810B46BB81FB890C
:10285000FB82234AFB891380224ABB89138038E01C
:10286000BB681B780A2B1DD17B685B789AB21D4B25
:102870001B8813449BB201339AB21A4B1A80BB686F
:1028800001331B780D2B06D1154B00221A80BB6833
:102890000133BB6002E0124AFB8A1380BB6801333C
:1028A000BB6016E0BB681B780D2B03D1BB680133FE
:1028B000BB600EE00A4B18880A4B1988BB685A1C8B
:1028C000BA601A783B8C0093BB8C01937B6800F054
:1028D0000BF8BB681B78002BC2D11837BD4680BDF2
:1028E000600000206A00002080B588B000AF7B60E7
:1028F0000346FB810B46BB811346FB723D4AFB89B5
:1029000013803D4ABB8913803A4B1B881A467B686B
:102910001B781344394A128893420BDD7B685B783D
:102920009AB2354B1B8813449AB2334B1A80314B01
:1029300000221A800023FB614AE07B685A68FB7A18
:10294000203B7968497801FB03F31946FB690B4486
:102950005B0013441B887B610023BB612FE0BB69D4
:102960007A6902FA03F303F40043002B12D0BB6927
:102970009AB2204B1B88134499B2FB699AB21E4B42
:102980001B8813449AB23B8D084611461A46FFF73E
:1029900063FE11E0BB699AB2164B1B88134499B2CF
:1029A000FB699AB2144B1B8813449AB2BB8D08463C
:1029B00011461A46FFF750FEBB690133BB617B68C5
:1029C0001B781A46BB699A42C9D8FB690133FB617F
:1029D0007B685B781A46FB699A42AED87B681B78A5
:1029E0009AB2044B1B8813449AB2024B1A802037C8
:1029F000BD4680BD600000206A0000206400002009
:102A000090B587B000AF0446084611461A462346E3
:102A1000FB800346BB800B467B8013463B80504BBC
:102A20001B88FA889A4203D34D4B1B88013BFB80DD
:102A30004B4B1B887A889A4203D3494B1B88013B36
:102A40007B80474B5B88BA889A4203D3444B5B88B0
:102A5000013BBB80424B5B883A889A4203D3404B90
:102A60005B88013B3B80FA887B889A4205D27A8852
:102A7000FB88D31A9BB29BB204E0FA887B88D31AF6
:102A80009BB29BB2BB82BA883B889A4205D23A88F5
:102A9000BB88D31A9BB29BB204E0BA883B88D31A96
:102AA0009BB29BB27B82FA887B889A4201D2012337
:102AB00001E04FF6FF733B82BA883B889A4201D20D
:102AC000012301E04FF6FF73FB81B7F91420B7F93A
:102AD00012309A4206DDB7F91430DA0F13445B1056
:102AE0009BB206E0B7F912305B42DA0F13445B1079
:102AF0009BB2FB82F988BA883B8D084611461A467C
:102B0000FFF7AAFDFA887B889A4204D1BA883B88ED
:102B10009A4200D121E0FB8ABB81B7F90C20B7F9BA
:102B200014305B429A4208DDFA8A7B8AD31A9BB240
:102B3000FB823A8AFB881344FB80B7F90C20B7F973
:102B400012309A4208DAFA8ABB8A13449BB2FB829B
:102B5000FA89BB881344BB80CCE71C37BD4690BDC7
:102B60006400002081F0004102E000BF83F00043D8
:102B700030B54FEA41044FEA430594EA050F08BF18
:102B800090EA020F1FBF54EA000C55EA020C7FEADC
:102B9000645C7FEA655C00F0E2804FEA5454D4EB59
:102BA0005555B8BF6D420CDD2C4480EA020281EA23
:102BB000030382EA000083EA010180EA020281EA5B
:102BC0000303362D88BF30BD11F0004F4FEA0131AD
:102BD0004FF4801C4CEA113102D0404261EB4101BC
:102BE00013F0004F4FEA03334CEA133302D0524242
:102BF00063EB430394EA050F00F0A780A4F10104FE
:102C0000D5F1200E0DDB02FA0EFC22FA05F2801837
:102C100041F1000103FA0EF2801843FA05F359411D
:102C20000EE0A5F120050EF1200E012A03FA0EFC9C
:102C300028BF4CF0020C43FA05F3C01851EBE371C6
:102C400001F0004507D54FF0000EDCF1000C7EEBE3
:102C500000006EEB0101B1F5801F1BD3B1F5001F21
:102C60000CD349085FEA30004FEA3C0C04F1010440
:102C70004FEA445212F5800F80F09A80BCF1004F69
:102C800008BF5FEA500C50F1000041EB045141EAEB
:102C9000050130BD5FEA4C0C404141EB010111F4EC
:102CA000801FA4F10104E9D191F0000F04BF014697
:102CB0000020B1FA81F308BF2033A3F10B03B3F175
:102CC00020020CDA0C3208DD02F1140CC2F10C0205
:102CD00001FA0CF021FA02F10CE002F11402D8BF63
:102CE000C2F1200C01FA02F120FA0CFCDCBF41EA2F
:102CF0000C019040E41AA2BF01EB0451294330BDFE
:102D00006FEA04041F3C1CDA0C340EDC04F11404DA
:102D1000C4F1200220FA04F001FA02F340EA0300B1
:102D200021FA04F345EA030130BDC4F10C04C4F1F7
:102D3000200220FA02F001FA04F340EA03002946D7
:102D400030BD21FA04F0294630BD94F0000F83F421
:102D5000801306BF81F480110134013D4EE77FEA04
:102D6000645C18BF7FEA655C29D094EA050F08BF50
:102D700090EA020F05D054EA000C04BF1946104631
:102D800030BD91EA030F1EBF0021002030BD5FEA75
:102D9000545C05D14000494128BF41F0004130BD9D
:102DA00014F580043CBF01F5801130BD01F00045F1
:102DB00045F0FE4141F470014FF0000030BD7FEA64
:102DC000645C1ABF194610467FEA655C1CBF0B465F
:102DD000024650EA013406BF52EA033591EA030F76
:102DE00041F4002130BD00BF90F0000F04BF00216E
:102DF000704730B54FF4806404F132044FF00005A1
:102E00004FF0000150E700BF90F0000F04BF002119
:102E1000704730B54FF4806404F1320410F000457F
:102E200048BF40424FF000013EE700BF42004FEA7A
:102E3000E2014FEA31014FEA02701FBF12F07F43F7
:102E400093F07F4F81F06051704792F0000F14BFF4
:102E500093F07F4F704730B54FF4607401F0004538
:102E600021F0004120E700BF50EA010208BF70478F
:102E700030B54FF000050AE050EA010208BF704784
:102E800030B511F0004502D5404261EB41014FF4ED
:102E9000806404F132045FEA915C3FF4DCAE4FF0F1
:102EA00003025FEADC0C18BF03325FEADC0C18BFD8
:102EB000033202EBDC02C2F1200300FA03FC20FA29
:102EC00002F001FA03FE40EA0E0021FA02F1144476
:102ED000C1E600BF70B54FF0FF0C4CF4E06C1CEA8B
:102EE00011541DBF1CEA135594EA0C0F95EA0C0F00
:102EF00000F0DEF82C4481EA030621EA4C5123EA73
:102F00004C5350EA013518BF52EA033541F48011A1
:102F100043F4801338D0A0FB02CE4FF00005E1FB54
:102F200002E506F00042E0FB03E54FF00006E1FB9E
:102F300003569CF0000F18BF4EF0010EA4F1FF04E1
:102F4000B6F5007F64F5407404D25FEA4E0E6D4121
:102F500046EB060642EAC62141EA55514FEAC52032
:102F600040EA5E504FEACE2EB4F1FD0C88BFBCF5AE
:102F7000E06F1ED8BEF1004F08BF5FEA500E50F15F
:102F8000000041EB045170BD06F0004646EA010125
:102F900040EA020081EA0301B4EB5C04C2BFD4EB57
:102FA0000C0541EA045170BD41F480114FF0000E50
:102FB000013C00F3AB8014F1360FDEBF002001F0BE
:102FC000004170BDC4F10004203C35DA0C341BDC38
:102FD00004F11404C4F1200500FA05F320FA04F00A
:102FE00001FA05F240EA020001F0004221F000413E
:102FF00010EBD37021FA04F642EB06015EEA430EB1
:1030000008BF20EAD37070BDC4F10C04C4F12005E0
:1030100000FA04F320FA05F001FA04F240EA020093
:1030200001F0004110EBD37041F100015EEA430E64
:1030300008BF20EAD37070BDC4F1200500FA05F284
:103040004EEA020E20FA04F301FA05F243EA020303
:1030500021FA04F001F0004121FA04F220EA020012
:1030600000EBD3705EEA430E08BF20EAD37070BD58
:1030700094F0000F0FD101F00046400041EB010138
:1030800011F4801F08BF013CF7D041EA060195F01A
:10309000000F18BF704703F00046520043EB0303D4
:1030A00013F4801F08BF013DF7D043EA06037047C1
:1030B00094EA0C0F0CEA135518BF95EA0C0F0CD0CC
:1030C00050EA410618BF52EA4306D1D181EA030112
:1030D00001F000414FF0000070BD50EA410606BF0C
:1030E0001046194652EA430619D094EA0C0F02D151
:1030F00050EA013613D195EA0C0F05D152EA033696
:103100001CBF104619460AD181EA030101F00041B3
:1031100041F0FE4141F470014FF0000070BD41F0FC
:10312000FE4141F4780170BD70B54FF0FF0C4CF4D6
:10313000E06C1CEA11541DBF1CEA135594EA0C0FF5
:1031400095EA0C0F00F0A7F8A4EB050481EA030E42
:1031500052EA03354FEA013100F088804FEA033329
:103160004FF0805545EA131343EA12634FEA0222F7
:1031700045EA111545EA10654FEA00260EF00041B8
:103180009D4208BF964244F1FD0404F5407402D20A
:103190005B084FEA3202B61A65EB03055B084FEA9B
:1031A00032024FF480104FF4002CB6EB020E75EB98
:1031B000030E22BFB61A754640EA0C005B084FEAC0
:1031C0003202B6EB020E75EB030E22BFB61A75463D
:1031D00040EA5C005B084FEA3202B6EB020E75EB88
:1031E000030E22BFB61A754640EA9C005B084FEA00
:1031F0003202B6EB020E75EB030E22BFB61A75460D
:1032000040EADC0055EA060E18D04FEA051545EAFB
:1032100016754FEA06164FEAC30343EA52734FEAA4
:10322000C2025FEA1C1CC0D111F4801F0BD141EA1D
:1032300000014FF000004FF0004CB6E711F4801F82
:1032400004BF01430020B4F1FD0C88BFBCF5E06F62
:103250003FF6AFAEB5EB030C04BFB6EB020C5FEA72
:10326000500C50F1000041EB045170BD0EF0004EC7
:103270004EEA113114EB5C04C2BFD4EB0C0541EAF9
:10328000045170BD41F480114FF0000E013C90E6F6
:1032900045EA060E8DE60CEA135594EA0C0F08BFBA
:1032A00095EA0C0F3FF43BAF94EA0C0F0AD150EAB9
:1032B00001347FF434AF95EA0C0F7FF425AF10464C
:1032C00019462CE795EA0C0F06D152EA03353FF474
:1032D000FDAE1046194622E750EA410618BF52EAF1
:1032E00043067FF4C5AE50EA41047FF40DAF52EAC5
:1032F00043057FF4EBAE12E74A0011D212F500123B
:1033000011D20DD56FF47873B3EB62520ED44FEA3D
:10331000C12343F0004343EA505323FA02F07047BD
:103320004FF00000704750EA013002D14FF0FF30FB
:1033300070474FF00000704775466F726D696361AA
:103340007269756D2076302E3100000054656D7005
:1033500065726174757265203330646567000000C2
:1033600048756D6964697479203430250000000067
:10337000466F726D6963617269756D20233100005B
:1033800053544D5045383131204572726F720000F0
:1033900070726573736564004E6F7420507265734C
:1033A00073656400000000000000000000000000E1
:1033B00000000000000000000010001000100010CD
:1033C000001000100000001000000000002800287D
:1033D00000280000000000000000000000000000C5
:1033E00000240024007C00240048007C00480048A1
:1033F0000000000000380054005000380014005451
:103400000054003800100000002000540058003024
:1034100000280054001400080000000000100028DC
:10342000002800100034004800480034000000006C
:10343000001000100010000000000000000000005C
:1034400000000000000800100020002000200020E4
:1034500000200020001000080020001000080008D4
:1034600000080008000800080010002000100038C4
:103470000010002800000000000000000000000014
:103480000000000000100010007C00100010000080
:10349000000000000000000000000000000000002C
:1034A00000000010001000100000000000000000EC
:1034B00000000038000000000000000000000000D4
:1034C00000000000000000000000001000000000EC
:1034D000000800080010001000100010002000205C
:1034E0000000000000380044004400540044004440
:1034F00000440038000000000010003000500010B0
:1035000000100010001000100000000000380044FF
:1035100000440004000800100020007C00000000AF
:10352000003800440004001800040004004400387F
:103530000000000000080018002800280048007C57
:103540000008000800000000007C004000400078F7
:10355000000400040044003800000000003800446B
:10356000004000780044004400440038000000009F
:10357000007C000400080010001000200020002043
:1035800000000000003800440044003800440044BB
:1035900000440038000000000038004400440044AB
:1035A000003C00040044003800000000000000005F
:1035B00000100000000000000000001000000000EB
:1035C00000000000000000100000000000000010DB
:1035D0000010001000000000000C0030004000301F
:1035E000000C000000000000000000000000007C53
:1035F0000000007C0000000000000000000000004F
:1036000000600018000400180060000000000000C6
:1036100000380044000400080010001000000010F2
:103620000000000000380044004C0054005C0040E2
:10363000004000380000000000100028002800288A
:103640000028007C00440044000000000078004492
:10365000004400780044004400440078000000006A
:103660000038004400400040004000400044003862
:103670000000000000700048004400440044004482
:103680000048007000000000007C00400040007C0A
:10369000004000400040007C00000000007C004032
:1036A0000040007800400040004000400000000062
:1036B0000038004400400040005C004400440038F2
:1036C00000000000004400440044007C004400442A
:1036D00000440044000000000038001000100010FA
:1036E000001000100010003800000000000400046A
:1036F000000400040004000400440038000000003E
:103700000044004800500060005000480048004459
:103710000000000000400040004000400040004029
:103720000040007C000000000044006C006C00546D
:1037300000440044004400440000000000440064D1
:10374000006400540054004C004C00440000000091
:103750000038004400440044004400440044003861
:10376000000000000078004400440044007800405D
:1037700000400040000000000038004400440044C5
:103780000044004400540038000400000078004465
:103790000044004400780048004800440000000055
:1037A00000380044004000300008000400440038A5
:1037B00000000000007C001000100010001000103D
:1037C00000100010000000000044004400440044C9
:1037D000004400440044003800000000004400445D
:1037E00000440028002800280010001000000000FD
:1037F00000440044005400540054006C0028002889
:1038000000000000004400280028001000100028DC
:103810000028004400000000004400440028002864
:10382000001000100010001000000000007C0004D8
:1038300000080010001000200040007C0000000084
:1038400000180010001000100010001000100010F0
:1038500000100018002000200010001000100010C0
:1038600000080008000000000030001000100010E8
:103870000010001000100010001000300010002890
:1038800000280044000000000000000000000000CC
:103890000000000000000000000000000000000028
:1038A000000000FE002000100000000000000000EA
:1038B000000000000000000000000000003800448C
:1038C000003C0044004C0034000000000040004078
:1038D00000580064004400440064005800000000E8
:1038E0000000000000380044004000400044003860
:1038F00000000000000400040034004C00440044B8
:10390000004C0034000000000000000000380044BB
:10391000007C00400044003800000000000C001053
:10392000007C0010001000100010001000000000CB
:10393000000000000034004C00440044004C0034FF
:103940000004007800400040005800640044004437
:10395000004400440000000000100000007000104F
:103960000010001000100010000000000010000007
:10397000007000100010001000100010001000E097
:1039800000400040004800500060005000480044E3
:103990000000000000700010001000100010001067
:1039A000001000100000000000000000007800542B
:1039B00000540054005400540000000000000000B7
:1039C000005800640044004400440044000000002B
:1039D0000000000000380044004400440044003867
:1039E0000000000000000000005800640044004493
:1039F0000064005800400040000000000034004C0B
:103A000000440044004C00340004000400000000A6
:103A100000580064004000400040004000000000EA
:103A20000000000000380044003000080044003866
:103A3000000000000020002000780020002000206E
:103A400000200018000000000000000000440044B6
:103A500000440044004C003400000000000000005E
:103A60000044004400280028002800100000000046
:103A700000000000005400540054006C002800288E
:103A800000000000000000000044002800100010AA
:103A90000028004400000000000000000044004432
:103AA0000028002800100010001000600000000036
:103AB000007C0008001000200040007C0000000096
:103AC000001800100010001000200020001000104E
:103AD000001000180010001000100010001000105E
:103AE0000010001000100010003000100010001036
:103AF0000008000800100010001000300000000056
:103B000000000074004C00000000000000000000F5
:103B100000000000000000000000000000000000A5
:103B20000000000000000000000000000000000095
:103B3000000000000000000C000C000C000C000C49
:103B4000000C000C000C000C000C000C0000000C21
:103B5000000C0000000000000000001B001B001B08
:103B6000001B001B0000000000000000000000001F
:103B700000000000000000000000000000008019AC
:103B8000801980198019C07FC07F80190033C07FE1
:103B9000C07F00330033003300330000000000001A
:103BA0000000001E003F807580650074003C001E10
:103BB00000078005806580658075003F001E000459
:103BC000000400000000007000D840D8C0D880D9A0
:103BD00000730006000C801BC036C066C046C006DD
:103BE00080030000000000000000001E003F0033C2
:103BF00000330033001E000CC03CC066806380614F
:103C00008063C03E801C0000000000000000000C2B
:103C1000000C000C000C000C000000000000000074
:103C20000000000000000000000000000000000094
:103C3000800000010003000600060004000C000CD8
:103C4000000C000C000C000C000400060006000331
:103C500000018000002000100018000C000C00047F
:103C60000006000600060006000600060004000C20
:103C7000000C0018001000200000000C002D003F78
:103C8000001E0033000000000000000000000000E3
:103C90000000000000000000000000000000000024
:103CA0000000000C000C000C000CC0FFC0FF000C5A
:103CB000000C000C000C00000000000000000000E0
:103CC00000000000000000000000000000000000F4
:103CD00000000000000000000000000C000C0004C8
:103CE00000040008000000000000000000000000C8
:103CF000000000000000001E001E00000000000088
:103D000000000000000000000000000000000000B3
:103D100000000000000000000000000000000000A3
:103D20000000000C000C0000000000000000000378
:103D3000000300030006000600060006000C000C4D
:103D4000000C000C00180018001800000000000013
:103D50000000001E003F0033806180618061806D43
:103D6000806D8061806180610033003F001E000033
:103D70000000000000000006000E001E00360026B5
:103D80000006000600060006000600060006000603
:103D900000060000000000000000001E003F8073CD
:103DA00080618061800100030006000C0018003073
:103DB0000060807F807F0000000000000000001C89
:103DC000003E006300630003000E000E000380014C
:103DD000800180618073003F001E00000000000031
:103DE00000000006000E000E001E001E0016003629
:103DF00000360066807F807F000600060006000017
:103E0000000000000000007F007F00600060006094
:103E1000006E007F80638001800180618073003FBD
:103E2000001E0000000000000000001E003F803364
:103E300080610060006E007F8073806180618061BE
:103E40008033003F001E0000000000000000807F63
:103E5000807F80010003000300060006000C000CB8
:103E6000000C0008001800180018000000000000F6
:103E70000000001E003F8063806180610021001E01
:103E8000003F8061806180618061003F001E000012
:103E9000000000000000001E003F00738061806190
:103EA00080618073803F801D800180610073003FCE
:103EB000001E0000000000000000000000000000E4
:103EC0000000000C000C00000000000000000000DA
:103ED0000000000C000C00000000000000000000CA
:103EE0000000000000000000000C000C00000000BA
:103EF000000000000000000C000C0004000400089A
:103F0000000000000000000080008003000E003868
:103F100000600038000E80038000000000000000F8
:103F20000000000000000000000000000000807F92
:103F3000807F00000000807F807F00000000000084
:103F40000000000000000000000000000000000071
:103F500000400070001C000780010007001C00707A
:103F60000040000000000000000000000000001FF2
:103F7000803FC071C060C000C00180030007000E18
:103F8000000C000C0000000C000C00000000000001
:103F90000000001E003F803180718063806F806D63
:103FA000806D806F806700600032003E001C000062
:103FB000000000000000000E000E001B001B001B94
:103FC000001B80318031803F803F8031C060C06005
:103FD000C0600000000000000000007C007E006364
:103FE000006300630063007E007E00638061806187
:103FF0008063007F007E0000000000000000001EC3
:10400000003F8031806100600060006000600060FF
:10401000006080618031003F001E00000000000051
:104020000000007C007F00638063806180618061AC
:1040300080618061806100630063007E007C00001D
:10404000000000000000807F807F00600060006052
:104050000060007F007F0060006000600060807F83
:10406000807F0000000000000000807F807F0060F3
:10407000006000600060007F007F00600060006002
:104080000060006000600000000000000000001EF2
:10409000003F803180610060006000608063806369
:1040A000806180618031803F001E000000000000C0
:1040B0000000806180618061806180618061807FBB
:1040C000807F8061806180618061806180610000AB
:1040D000000000000000003F003F000C000C000C3E
:1040E000000C000C000C000C000C000C000C003F3D
:1040F000003F0000000000000000800180018001FE
:1041000080018001800180018001800180618061E7
:104110008073003F001E0000000000000000C0602F
:104120008061006300660066006C0078007C0066B9
:104130000066006380618061C060000000000000D4
:1041400000000060006000600060006000600060CF
:1041500000600060006000600060807F807F000081
:10416000000000000000C071C071C07BC07AC06A4E
:10417000C06AC06EC064C060C060C060C060C06023
:10418000C060000000000000000080718071807934
:1041900080798079806D806D806D806580678067B3
:1041A0008067806380630000000000000000001E44
:1041B000003F003380618061806180618061806147
:1041C000806180610033003F001E0000000000009D
:1041D0000000007E007F8063806180618061806379
:1041E000007F007E006000600060006000600000F2
:1041F000000000000000001E003F0033806180616D
:104200008061806180618061806580670033803F6C
:10421000401E0000000000000000007E007F806360
:10422000806180618063007F007E006600630063C0
:1042300080618061C0600000000000000000000E8E
:10424000001F8031803100300038001E00078003DD
:10425000806180618031003F001E0000000000008E
:104260000000C0FFC0FF000C000C000C000C000C94
:10427000000C000C000C000C000C000C000C0000EA
:1042800000000000000080618061806180618061C9
:104290008061806180618061806180618073003FA6
:1042A000001E0000000000000000C060C060C06090
:1042B000803180318031001B001B001B001B000E71
:1042C000000E000E00040000000000000000C0C04E
:1042D000C0C0C0C0C0C0C0C0C0CC804C804C805EDC
:1042E0008052805280738061806100000000000075
:1042F0000000C0C0806080610033003B001E000CE5
:10430000000C001E001F003B80718061C0C00000D7
:10431000000000000000C0C08061806100330033F5
:10432000001E001E000C000C000C000C000C000C09
:10433000000C0000000000000000803F803F800172
:10434000000300030006000C000C001800180030E9
:104350000060807F807F000000000000000F000FE1
:10436000000C000C000C000C000C000C000C000CED
:10437000000C000C000C000C000C000C000F000FD7
:104380000000001800180018000C000C000C000CB5
:1043900000060006000600060003000300030000FC
:1043A00000000000001E001E0006000600060006B9
:1043B00000060006000600060006000600060006CD
:1043C00000060006001E001E0000000C000C001E6F
:1043D00000120033003380618061000000000000A3
:1043E00000000000000000000000000000000000CD
:1043F00000000000000000000000000000000000BD
:10440000000000000000000000000000E0FF0000CD
:10441000000000380018000C000000000000000040
:10442000000000000000000000000000000000008C
:104430000000000000000000000000000000001F5D
:10444000803F80618001801F803F80618063807F2A
:10445000C038000000000000000000600060006044
:104460000060006E007F8073806180618061806188
:104470008073007F006E000000000000000000005C
:10448000000000000000001E003F8073806100609B
:10449000006080618073003F001E0000000000008B
:1044A00000008001800180018001801D803F8073B9
:1044B00080618061806180618073803F801D000029
:1044C0000000000000000000000000000000001ECE
:1044D000003F00738061807F807F00608071003FBB
:1044E000001E0000000000000000C007C00F000C0C
:1044F000000C807F807F000C000C000C000C000C76
:10450000000C000C000C0000000000000000000087
:1045100000000000801D803F8073806180618061A9
:1045200080618073803F801D80018063007F003E3A
:1045300000000060006000600060006F807F80719C
:104540008061806180618061806180618061000044
:104550000000000000000006000600000000003E11
:10456000003E0006000600060006000600060006E3
:104570000006000000000000000600060000000029
:10458000003E003E0006000600060006000600068B
:104590000006000600060046007E003C00000060A9
:1045A000006000600060806100630066006C007C59
:1045B0000076006300638061C060000000000000BE
:1045C0000000003E003E0006000600060006000651
:1045D00000060006000600060006000600060000B1
:1045E000000000000000000000000000000080DD6E
:1045F000C0FFC0CEC0CCC0CCC0CCC0CCC0CCC0CC26
:10460000C0CC00000000000000000000000000001E
:104610000000006F807F80718061806180618061B7
:1046200080618061806100000000000000000000E7
:10463000000000000000001E003F80738061806168
:10464000806180618073003F001E00000000000058
:104650000000000000000000006E007F8073806199
:104660008061806180618073007F006E0060006007
:10467000006000600000000000000000801D803F1E
:10468000807380618061806180618073803F801D64
:104690008001800180018001000000000000000016
:1046A00000000067803F00390030003000300030EB
:1046B000003000300030000000000000000000006A
:1046C000000000000000001E803F80610060007F4D
:1046D000803F80018061007F001E0000000000001C
:1046E00000000000000800180018007F007F00187C
:1046F00000180018001800180018801F800F000014
:1047000000000000000000000000000000008061C8
:104710008061806180618061806180618063807F71
:10472000803D0000000000000000000000000000CC
:104730000000C060803180318031001B001B001BF5
:10474000000E000E00060000000000000000000047
:1047500000000000000080DD80DD80DD0055005598
:1047600000550077007700220022000000000000C2
:1047700000000000000000000000806100330033F2
:10478000001E000C000C001E00330033806100008E
:104790000000000000000000000000008061806157
:1047A000803100330033001B001B001B000E000E85
:1047B000000E001C007C00700000000000000000E3
:1047C0000000C07FC07F800100030006000C0018BD
:1047D0000030C07FC07F0000000000008003800721
:1047E00000060006000600060006000E001C001C65
:1047F000000E000600060006000600068007800383
:104800000006000600060006000600060006000678
:104810000006000600060006000600060006000668
:10482000000600060038003C000C000C000C000CD8
:10483000000C000E00070007000E000C000C000C1E
:10484000000C000C003C00380000000000000000DC
:104850000000000000008038807F0047000000005A
:104860000000000000000000000000000000000048
:104870000000000000000000000000000000000038
:104880000000000000000000000000000000000028
:104890000000000000000000000000000000000018
:1048A000E003E003E003E003E003E003E003E003F0
:1048B000C003C003C001C001C001C001C0010000AD
:1048C00000000000E003E003E0030000000000003F
:1048D000000000003C1E3C1E3C1E3C1E3C1E3C1EBC
:1048E0003C1E00000000000000000000000000006E
:1048F00000000000000000000000000000000000B8
:104900000000000000000000CE01CE03DE039E0385
:104910009C039C07FF3FFF7F3807380F780F780F05
:10492000780EFFFFFFFFF01EF01CE01CE03CE03DB6
:10493000E03900000000000000000000FC03FE0F52
:10494000EE1FE01EE01EE01EE01EE01FE00FE0078D
:10495000F003FC01FE01FE01FE01FE01FE01FE016D
:10496000FE3DFC3FF00FE001E00100000000000010
:10497000033E07F78FE78EE79EE3BCE3B8E7F8E76F
:10498000F0F7E03FC001FF03FF07F307F30FF31E4B
:10499000F33CF338F3787FF03FE0000000000000C4
:1049A00000000000E007F80F780F781F781F781FCD
:1049B000780FF00FE00F801FC37FC3FBE7F3F7F121
:1049C000F7F0FFF07FF03EF87F7CFF3FEF1F000025
:1049D0000000000000000000E003E003E003E0034B
:1049E000E003C003C0010000000000000000000060
:1049F00000000000000000000000000000000000B7
:104A00000000000000000000000000003F007C00EB
:104A1000F001E001C003C00780078007800F000F8E
:104A2000000F000F000F000F000F800F800780079E
:104A3000C007C003E001F0017C003F000F00000050
:104A4000007E001FC007C003E001F001F000F0008D
:104A5000F800780078007800780078007800F80096
:104A6000F000F000F001E001C003C007001F007E6D
:104A700000780000E003C003C001CE39FF3F7F3F54
:104A800020037003F807780F3C1F38060000000071
:104A90000000000000000000000000000000000016
:104AA0000000000000000000000000000000000006
:104AB00000000000C001C001C001C001C001C00170
:104AC000C001FFFFFFFFC001C001C001C001C00164
:104AD000C001000000000000000000000000000015
:104AE00000000000000000000000000000000000C6
:104AF0000000000000000000000000000000E003D3
:104B0000E003E003E003E001E001E001C001800315
:104B10000000000000000000000000000000000095
:104B2000000000000000FE3FFE3F0000000000000B
:104B30000000000000000000000000000000000075
:104B40000000000000000000000000000000000065
:104B50000000000000000000000000000000000055
:104B6000000000000000E003E003E003E0030000B9
:104B700000000000000000000F000F001E001E00DB
:104B80003C003C0078007800F000F000E001E0011B
:104B9000C003C00380078007000F000F001E001E27
:104BA000003C003C0078007800F00000F007F80FAF
:104BB0007C1F3E3E1E3C1F7C1F7C0F780F780F78B9
:104BC0000F780F780F780F781F7C1F7C1E3C3E3EBD
:104BD0007C1FF80FF007000000000000000000003C
:104BE000F000F007F03FF03FF001F001F001F001BC
:104BF000F001F001F001F001F001F001F001F0012D
:104C0000F001F001F001FF3FFF3F00000000000055
:104C100000000000E00FF83F7C3C3C003E003E00FE
:104C20003E003C003C007C00F800F001E003C007BF
:104C30008007000F001E003E003CFE3FFE3F0000CC
:104C40000000000000000000F00FF81F7C1C3E0078
:104C50003E003E003C003C00F800F00FF80F7C00E6
:104C60003E001E001E001E001E003E007C1CF81FA1
:104C7000E01F000000000000000000007800F800C5
:104C8000F800F801F803F807F807780F781E781E87
:104C9000783C78787878FFFFFFFF7800780078001C
:104CA000780078007800000000000000000000009C
:104CB000FC1FFC1FFC1F001E001E001E001E001E0D
:104CC000E01FF81FFC007C003E003E001E003E007E
:104CD0003E003C007C1CF81FE01F000000000000AC
:104CE00000000000FC01FE078E0F001F001E003EAA
:104CF000003C003CF83DFC3F3E7F1F7E0F3C0F3CDC
:104D00000F3C0F3C0F3E1F1E3E1FFC0FF003000028
:104D10000000000000000000FF3FFF3FFF3F0F00CA
:104D20001E001E003C0038007800F000F000E0019A
:104D3000E001C003C0038007800F800F000F001F39
:104D4000001F00000000000000000000F807FC0F3A
:104D50003E1F1E1E1E3E1E3E1E1E3C1FF80FF0076D
:104D6000F80FFC1E3E3E1F3C1F7C0F7C0F7C1F3C3F
:104D70003E3FFC1FF00700000000000000000000A4
:104D8000F007F80F7C1E3E3C1E3C1F7C1F7C1F7CE6
:104D90001F7C1F3C3F3EFF1FEF071F001E001E0031
:104DA0003E003C00F838F03FE01F0000000000002B
:104DB00000000000000000000000000000000000F3
:104DC000E003E003E003E003000000000000000057
:104DD000000000000000E003E003E003E003000047
:104DE00000000000000000000000000000000000C3
:104DF00000000000E003E003E003E0030000000027
:104E000000000000000000000000E003E003E003F9
:104E1000E003E001E001E001C003800300000000C6
:104E2000000000000000000003000F003F00FC0035
:104E3000F003C00F003F00FE003FC00FF003FC0076
:104E40003F000F0003000000000000000000000011
:104E50000000000000000000000000000000000052
:104E600000000000FFFFFFFF000000000000FFFF48
:104E7000FFFF000000000000000000000000000034
:104E80000000000000000000000000000000000022
:104E900000E000F8007E801FE007F8017E001F00A0
:104EA0007E00F801E007801F007E00F800E00000AF
:104EB0000000000000000000F01FFC3F3E381F38DB
:104EC0001F381E001E003C007800F000E001C00307
:104ED000C003C007C007000000000000C007C007F3
:104EE000C00700000000000000000000F803FE0FF3
:104EF0001E1F0F3E7F3CFF78EF79C773C7F38FF318
:104F00008FF38FF39FF39FF3FF73FF7BF779003CE1
:104F10001C1FFC0FF8030000000000000000000050
:104F2000000000000000E003E003F007F007F007D6
:104F3000780F780F7C0E3C1E3C1E3E3CFE3FFF3F30
:104F40001F780F780FF007F007F000000000000056
:104F500000000000000000000000F83FFC3F3E3C65
:104F60001E3C1E3C1E3C3E3C7C3CF03FF83F7E3CE1
:104F70001F3C1F3C0F3C0F3C1F3CFE3FF83F000016
:104F80000000000000000000000000000000FF0121
:104F9000FF07871F003E003C007C00780078007807
:104FA00000780078007C007C003E003F831FFF07F4
:104FB000FF010000000000000000000000000000F1
:104FC0000000F07FFC7F7E781F781F780F780F78C5
:104FD0000F780F780F780F780F780F781F781E787A
:104FE0007E78F87FE07F00000000000000000000F5
:104FF000000000000000FF3FFF3F003E003E003E7B
:10500000003E003E003EFE3FFE3F003E003E003EB2
:10501000003E003E003EFF3FFF3F0000000000005A
:1050200000000000000000000000FF1FFF1F001E26
:10503000001E001E001E001E001EFF1FFF1F001E80
:10504000001E001E001E001E001E001E001E00008E
:105050000000000000000000000000000000FE034F
:10506000FF0F871F003E007C007C007800F800F8EE
:105070007FF87FF80F780F7C0F7C0F3E8F1FFF0F9C
:10508000FE0300000000000000000000000000001F
:1050900000001F7C1F7C1F7C1F7C1F7C1F7C1F7CD3
:1050A0001F7CFF7FFF7F1F7C1F7C1F7C1F7C1F7C62
:1050B0001F7C1F7C1F7C000000000000000000001F
:1050C000000000000000FF3FFF3FE003E003E003BB
:1050D000E003E003E003E003E003E003E003E003B8
:1050E000E003E003E003FF3FFF3F0000000000009B
:1050F00000000000000000000000FC1FFC1F7C00FE
:105100007C007C007C007C007C007C007C007C00BF
:105110007C007C0078007800F838F03FC03F000049
:1051200000000000000000000000000000001F3C24
:105130001E3C3C3C783CF03CE03DE03FC03F803FC3
:10514000C03FE03FF03DF03C783C7C3C3E3C1F3CA7
:105150000F3C000000000000000000000000000004
:105160000000003E003E003E003E003E003E003E8D
:10517000003E003E003E003E003E003E003E003E3F
:10518000003EFF3FFF3F0000000000000000000065
:105190000000000000001FF81FFC1FFC3FFE3FFE48
:1051A0003FFE7FFF77FF77FFF7F7E7F7E7F3E7F3D8
:1051B000C7F307F007F007F007F000000000000059
:1051C000000000000000000000000F7C0F7C0F7E3C
:1051D0000F7F0F7F8F7F8F7FCF7FEF7BEF79FF79FF
:1051E000FF78FF787F783F783F781F781F7800003E
:1051F0000000000000000000000000000000F007B8
:10520000FC1F3E3E1F7C0F780F780FF80FF80FF849
:105210000FF80FF80FF80F780F781F7C3E3EFC1F39
:10522000F007000000000000000000000000000087
:105230000000FC3FFF3F1F3E0F3E0F3E0F3E0F3E64
:105240001F3E3F3EFC3FF03F003E003E003E003E22
:10525000003E003E003E0000000000000000000094
:10526000000000000000F007FC1F3E3E1F7C0F788E
:105270000F780FF80FF80FF80FF80FF80FF80F78F6
:105280000F781F7C3E3EFC1FF8077C003F000F009C
:1052900003000000000000000000F03FFC3F7E3CE7
:1052A0003E3C1E3C1E3C3E3C3C3CFC3CF03FE03F58
:1052B000F03DF83C7C3C3E3C1E3C1F3C0F3C00005B
:1052C0000000000000000000000000000000FC07DB
:1052D000FE1F0E3E003C003C003C003EC01FF80F8D
:1052E000FE037F001F000F000F001F203E3CFC3F0D
:1052F000F01F00000000000000000000000000009F
:105300000000FFFFFFFFE003E003E003E003E00332
:10531000E003E003E003E003E003E003E003E00375
:10532000E003E003E00300000000000000000000D4
:105330000000000000000F7C0F7C0F7C0F7C0F7CB6
:105340000F7C0F7C0F7C0F7C0F7C0F7C0F7C0F7C05
:105350001E3C1E3C3E3EFC1FF0070000000000000B
:105360000000000000000000000007F007F007F850
:105370000F780F7C1E3C1E3C1E3E3C1E3C1F781FBF
:10538000780FF80FF007F007F007E003E0030000E4
:10539000000000000000000000000000000003E02A
:1053A00003F003F007F0E7F3E7F3E7F3E773F77BC6
:1053B000F77FFF7F7F7F7F7F7E7F7E3F3E3E3E3E4B
:1053C0003E3E000000000000000000000000000061
:1053D000000007F80F7C1E3E3E3E3C1FF80FF00712
:1053E000E007E003E003F007F80F7C0F7C1E3E3C73
:1053F0001F780F780FF00000000000000000000090
:1054000000000000000007F807780F7C1E3C1E3EDD
:105410003C1F780FF80FF007E003E003E003E00320
:10542000E003E003E003E003E0030000000000000D
:1054300000000000000000000000FF7FFF7F0F0061
:105440001F003E007C00F800F000E001E003C00710
:10545000800F000F001E003E007CFF7FFF7F0000DA
:105460000000000000000000FF07800780078007A1
:1054700080078007800780078007800780078007F4
:1054800080078007800780078007800780078007E4
:10549000800780078007FF07FF070000007800787B
:1054A000003C003C001E001E000F000F800780071C
:1054B000C003C003E001E001F000F00078007800D4
:1054C0003C003C001E001E000F000F000700000003
:1054D000F07FF000F000F000F000F000F000F000CD
:1054E000F000F000F000F000F000F000F000F0003C
:1054F000F000F000F000F000F000F000F000F07FAD
:10550000F07F0000C000C001C001E003E003F0072D
:10551000F0077807780F380F3C1E3C1E1E3C1E3CDF
:105520000F380F780778000000000000000000002E
:10553000000000000000000000000000000000006B
:10554000000000000000000000000000000000005B
:10555000000000000000000000000000000000004B
:105560000000FFFFFFFF000000000000F00000004F
:10557000000000000000000000000000000000002B
:10558000000000000000000000000000000000001B
:10559000000000000000000000000000000000000B
:1055A000000000000000000000000000F80FFC3FB9
:1055B0007C3C3E003E003E00FE07FE1F3E3E3E7C21
:1055C0003E783E7C7E7CFF3FCF1F00000000000045
:1055D00000000000003C003C003C003C003C003C63
:1055E000F83DFE3F3E3F1F3E0F3C0F3C0F3C0F3C43
:1055F0000F3C0F3C1F3C1E3C3E3FFC3FF03B00007D
:10560000000000000000000000000000000000009A
:1056100000000000FE03FF0F871F003E003E003C1D
:10562000007C007C007C003C003E003E871FFF0F9A
:10563000FE03000000000000000000001F001F002B
:105640001F001F001F001F00FF07FF1F3F3E1F3CE2
:105650001F7C1F7C1F7C1F781F781F7C1F7C3F3C9A
:105660007F3EFF1FDF0F0000000000000000000071
:10567000000000000000000000000000F803FC0F24
:105680003E1F1E3E1F3C1F7CFF7FFF7F007C007C77
:10569000003C003E071FFF0FFE030000000000005B
:1056A00000000000FF01E103C003C007C007C007FE
:1056B000FF7FFF7FC007C007C007C007C007C00744
:1056C000C007C007C007C007C007C007C007000069
:1056D00000000000000000000000000000000000CA
:1056E00000000000EF07FF1F7F3E1F3C1F7C1F7C58
:1056F0001F781F781F781F7C1F7C3F3C7F3EFF1F59
:10570000DF0F1E001E001E007C38F83F003C003CEE
:10571000003C003C003C003CFC3DFE3F9E3F1F3FE8
:105720001F3E1F3C1F3C1F3C1F3C1F3C1F3C1F3C9F
:105730001F3C1F3C1F3C0000000000000000000058
:10574000F001F0010000000000000000E07FE07FB9
:10575000E001E001E001E001E001E001E001E00141
:10576000E001E001E001E001E001000000000000D4
:1057700000000000F800F800000000000000000039
:10578000F83FF83FF800F800F800F800F800F800DB
:10579000F800F800F800F800F800F800F800F80049
:1057A000F800F000F071E07F003C003C003C003C61
:1057B000003C003C1F3C3E3C7C3CF83CF03DE03D66
:1057C000C03FC03FE03FF03DF83C7C3C3E3C1F3CCE
:1057D0001F3C00000000000000000000F07FF0010E
:1057E000F001F001F001F001F001F001F001F00131
:1057F000F001F001F001F001F001F001F001F00121
:10580000F001F001F00100000000000000000000C5
:105810000000000000000000000000009EF7FFFFF5
:10582000FFFFFFFFE7FBE7F9C7F1C7F1C7F1C7F1DA
:10583000C7F1C7F1C7F1C7F1C7F1000000000000D0
:105840000000000000000000000000000000000058
:10585000FC3DFE3F9E3F1F3F1F3E1F3C1F3C1F3C29
:105860001F3C1F3C1F3C1F3C1F3C1F3C1F3C0000BB
:105870000000000000000000000000000000000028
:1058800000000000F007FC1F3E3E1F3C1F7C0F780D
:105890000F780F780F780F781F7C1F3C3E3EFC1F5F
:1058A000F007000000000000000000000000000001
:1058B0000000000000000000F83DFE3F3E3F1F3E9C
:1058C0000F3C0F3C0F3C0F3C0F3C0F3C1F3C1E3E5F
:1058D0003E3FFC3FF83F003C003C003C003C003CAD
:1058E000000000000000000000000000EE07FE1FA6
:1058F0007E3E1E3C1E7C1E781E781E781E781E780A
:105900001E7C3E7C7E3EFE1FDE0F1E001E001E0023
:105910001E001E000000000000000000000000004B
:105920007F1FFF1FE71FC71F871F001F001F001FCC
:10593000001F001F001F001F001F001F001F00008E
:105940000000000000000000000000000000000057
:1059500000000000FC07FE1F0E1E003E003E003F40
:10596000E01FFC07FE003E001E001E003E3CFC3F08
:10597000F01F000000000000000000000000000018
:105980000000800780078007FF7FFF7F8007800778
:1059900080078007800780078007800780078007CF
:1059A000C007FF03FF01000000000000000000002E
:1059B0000000000000000000000000001E3C1E3C33
:1059C0001E3C1E3C1E3C1E3C1E3C1E3C1E3C1E3C07
:1059D0003E3C7E3CFE3EFE1FDE0F0000000000004D
:1059E00000000000000000000000000000000000B7
:1059F00007F00F780F781E3C1E3C1E3E3C1E3C1EDE
:105A0000780F780FF00FF007F007E003E0030000D5
:105A10000000000000000000000000000000000086
:105A20000000000003F0E3F1E3F3E7F3F7F3F7F32B
:105A3000F77F777F7F7F7F7F7F7F3E3E3E3E3E3E8C
:105A40003E3E0000000000000000000000000000DA
:105A500000000000000000000F7C1E3E3C3E3C1F8A
:105A6000F80FF007F007E003F007F807F80F7C1EC7
:105A70003E3E1F3C1F7800000000000000000000B8
:105A800000000000000000000000000007F80F7890
:105A90000F7C1E3C1E3C3C1E3C1E3C1F780FF80F2A
:105AA000F007F007E003E003C003C003C003800772
:105AB000800F007F000000000000000000000000D8
:105AC000FF3FFF3F1F003E007C00F800F001E003B5
:105AD000C007800F001F001E003CFF7FFF7F0000FB
