:020000040800F2
:1000000028080020AD0100080502000805020008CC
:1000100005020008050200080502000800000000B3
:1000200000000000000000000000000005020008C1
:100030000502000800000000050200080502000893
:100040000502000805020008050200080502000874
:100050000502000805020008050200080502000864
:100060000502000805020008050200080502000854
:100070000502000805020008050200080502000844
:100080000502000805020008050200080502000834
:100090000502000805020008050200080502000824
:1000A0000502000805020008050200080502000814
:1000B0000502000805020008050200080502000804
:1000C00005020008050200080502000805020008F4
:1000D00005020008050200080502000805020008E4
:1000E00005020008050200080502000805020008D4
:1000F00005020008050200080502000805020008C4
:1001000005020008050200080502000805020008B3
:1001100005020008050200080502000805020008A3
:100120000502000805020008050200080502000893
:100130000502000805020008050200080502000883
:100140000502000805020008050200080502000873
:100150000502000805020008050200080502000863
:100160000502000805020008050200080502000853
:100170000502000805020008050200080502000843
:100180000502000805020008050200080502000833
:100190000502000805020008050200080502000823
:1001A00005020008050200080502000880B582B0BB
:1001B00000AF0F4B7B600F4B3B6007E03B681A1DA5
:1001C0003A607A68111D796012681A603B680A4AC1
:1001D0009342F3D309480A494FF000028842B8BF5E
:1001E00040F8042BFADB00F011F80837BD4680BD5B
:1001F000903E000800000020180000201800002099
:100200002400002080B400AFFEE700BF80B582B0BC
:1002100002AF00F00BFD00F06DFE002001F0A0F831
:10022000032001F0E1F84FF6E073009300230193FF
:100230005A205A21124A134B01F01AF94FF6E07373
:100240000093002301935A2064210F4A0D4B01F0C3
:100250000FF94FF6E0730093002301935A206E21AB
:100260000A4A084B01F004F94FF6E07300930023AB
:1002700001935A207821064A024B01F0F9F8FEE773
:100280003416000800000020481600085C1600081C
:100290006C16000880B483B000AF78600B46FB702A
:1002A000FB78002B06D00949084B1A6B7B68134377
:1002B0000B6306E00549054B1A6B7B68DB43134073
:1002C0000B630C37BD465DF8047B70470038024075
:1002D00080B483B000AF78600B46FB70FB78002BD6
:1002E00006D00949084B1A6C7B6813430B6406E07F
:1002F0000549054B1A6C7B68DB4313400B640C37D4
:10030000BD465DF8047B70470038024080B483B07E
:1003100000AF78600B46FB70FB78002B06D00949D4
:10032000084B5A6C7B6813434B6406E00549054B48
:100330005A6C7B68DB4313404B640C37BD465DF859
:10034000047B70470038024080B582B000AF78600F
:100350000B46FB707B681B4A934204D1FB7818461E
:1003600000F066F82BE07B68174A934204D1FB78D3
:10037000184600F0DBF822E07B68144A934204D16F
:10038000FB78184600F080F919E07B68104A934228
:1003900004D1FB78184600F0F5F910E07B680D4AAF
:1003A000934204D1FB78184600F068FA07E07B68B6
:1003B000094A934203D1FB78184600F0EBFA08375C
:1003C000BD4680BD0030014000380040003C004088
:1003D00000340140005001400054014080B582B01B
:1003E00000AF78600B46FB70FB789AB27B689A810D
:1003F00000BF7868022100F061FD0346002BF8D0B1
:1004000000BF7868012100F059FD0346002BF8D0A9
:1004100000BF7868802100F051FD0346002BF8D121
:100420007B689B899BB2DBB218460837BD4680BD0E
:1004300080B58AB000AF0346FB71002387F82630F1
:10044000002387F82730032387F82530022387F815
:100450002430FB79002B1BD101200121FFF71AFF6B
:10046000E0233B6207F120032D48194600F0ECFA27
:100470002B480521052200F091FB29480621052281
:1004800000F08CFB26480721052200F087FB1DE0C9
:10049000FB79012B1AD102200121FFF7FBFE382343
:1004A0003B6207F120031F48194600F0CDFA1D48B2
:1004B0000321052200F072FB1A480421052200F0F6
:1004C0006DFB18480521052200F068FB4FF48050B1
:1004D0000121FFF71BFF07F10C03184600F0AAFCEF
:1004E00020233B8300233B820023BB8100237B83AB
:1004F0004FF48273FB8100237B820023BB824FF485
:100500000073FB8207F10C030748194600F04EFC0C
:100510000548012100F0B2FC2837BD4680BD00BF70
:1005200000000240000402400030014080B58AB063
:1005300000AF0346FB71002387F82630012387F8BC
:100540002730032387F82530022387F82430FB79EE
:10055000002B28D102200121FFF79CFE042001215D
:10056000FFF798FE0C233B6207F12003424819462F
:1005700000F06AFA4FF480633B6207F120033F48C2
:10058000194600F061FA3C480221052200F006FB02
:1005900039480321052200F001FB38480A210522D1
:1005A00000F0FCFA3EE0FB79012B1CD10220012176
:1005B000FFF770FE4FF460433B6207F120032F48C2
:1005C000194600F041FA2D480D21052200F0E6FA07
:1005D0002A480E21052200F0E1FA28480F210522C1
:1005E00000F0DCFA1EE0FB79022B1BD14FF4807087
:1005F0000121FFF74FFE0D233B6207F120031F4847
:10060000194600F021FA1E480021052200F0C6FA22
:100610001B480221052200F0C1FA194803210522D6
:1006200000F0BCFA4FF480400121FFF751FE07F1C2
:100630000C03184600F0FEFB20233B8300233B8283
:100640000023BB8100237B834FF48273FB81002353
:100650007B820023BB824FF40073FB8207F10C0303
:100660000848194600F0A2FB0648012100F006FCEC
:100670002837BD4680BD00BF00080240000402408C
:10068000002002400038004080B58AB000AF034629
:10069000FB71002387F82630002387F827300323D7
:1006A00087F82530022387F82430FB79002B1BD1F3
:1006B00002200121FFF7EEFD38233B6207F1200302
:1006C0002D48194600F0C0F92B480321062200F0FE
:1006D00065FA29480421062200F060FA264805211F
:1006E000062200F05BFA1EE0FB79012B1BD10420EF
:1006F0000121FFF7CFFD4FF4E0533B6207F12003E8
:100700001E48194600F0A0F91C480A21062200F0F4
:1007100045FA1A480B21062200F040FA17480C212E
:10072000062200F03BFA4FF400400121FFF7D0FD14
:1007300007F10C03184600F07DFB20233B830023C8
:100740003B820023BB8100237B834FF48273FB81B8
:1007500000237B820023BB824FF40073FB8207F1EE
:100760000C030748194600F021FB0548012100F061
:1007700085FB2837BD4680BD0004024000080240CA
:10078000003C004080B58AB000AF0346FB710023F7
:1007900087F82630002387F82730032387F8253091
:1007A000022387F82430FB79002B1BD11020012174
:1007B000FFF770FD64233B6207F120032D481946C3
:1007C00000F042F92B480221052200F0E7F9294800
:1007D0000521052200F0E2F926480621052200F055
:1007E000DDF91EE0FB79012B1BD110200121FFF761
:1007F00051FD4FF4E0433B6207F120031D481946C9
:1008000000F022F91B480C21052200F0C7F9194815
:100810000D21052200F0C2F916480E21052200F034
:10082000BDF94FF400500121FFF770FD07F10C03F3
:10083000184600F0FFFA20233B8300233B8200236D
:10084000BB8100237B834FF48273FB8100237B8277
:100850000023BB824FF40073FB8207F10C030648B0
:10086000194600F0A3FA0448012100F007FB2837DD
:10087000BD4680BD001002400034014080B58AB002
:1008800000AF0346FB71002387F82630002387F86A
:100890002730032387F82530022387F82430FB799B
:1008A000002B1CD120200121FFF7F4FC4FF46073D2
:1008B0003B6207F120033448194600F0C5F832487E
:1008C0000721052200F06AF92F480821052200F0CF
:1008D00065F92D480921052200F060F92AE0FB792D
:1008E000012B27D120200121FFF7D4FC80200121FA
:1008F000FFF7D0FCC0233B6207F1200322481946D2
:1009000000F0A2F84FF400633B6207F120031E4899
:10091000194600F099F81C480B21052200F03EF919
:100920001A480621052200F039F918480721052246
:1009300000F034F94FF480100121FFF7E7FC07F1D4
:100940000C03184600F076FA20233B8300233B82F9
:100950000023BB8100237B834FF48273FB81002340
:100960007B820023BB824FF40073FB8207F10C03F0
:100970000748194600F01AFA0548012100F07EFAEE
:100980002837BD4680BD00BF00140240001C024055
:100990000050014080B58AB000AF0346FB71402093
:1009A0000121FFF777FC002387F82630002387F822
:1009B0002730032387F82530022387F824304FF4AB
:1009C000E0433B6207F120031D48194600F03CF864
:1009D0001B480D21052200F0E1F819480C210522E1
:1009E00000F0DCF816480E21052200F0D7F84FF48D
:1009F00000100121FFF78AFC07F10C03184600F0F4
:100A000019FA20233B8300233B820023BB81002370
:100A10007B834FF48273FB8100237B820023BB82A4
:100A20004FF40073FB8207F10C030648194600F0EF
:100A3000BDF90448012100F021FA2837BD4680BDE8
:100A4000001802400054014080B487B000AF7860C5
:100A5000396000237B6100233B610023FB6000239E
:100A60007B6176E07B69012202FA03F33B613B681C
:100A70001A683B691340FB60FA683B699A4265D18A
:100A80007B681A687B695B00194603238B40DB4354
:100A90001A407B681A607B681A683B681B791946A4
:100AA0007B695B0001FA03F31A437B681A603B68B9
:100AB0001B79012B03D03B681B79022B2ED17B685D
:100AC0009A687B695B00194603238B40DB431A401D
:100AD0007B689A607B689A683B685B7919467B699A
:100AE0005B0001FA03F31A437B689A607B685A68DB
:100AF0007B699BB2194601238B40DB431A407B681C
:100B00005A607B685B683A68927911467A6992B25A
:100B100001FA02F292B21A437B685A607B68DA6883
:100B20007B699BB25B00032101FA03F3DB431A40AC
:100B30007B68DA607B68DA683B68DB7919467B6939
:100B40005B0001FA03F31A437B68DA607B690133C7
:100B50007B617B690F2B85D91C37BD465DF8047B13
:100B6000704700BF80B483B000AF78600B467B80D5
:100B70007B687A881A830C37BD465DF8047B704722
:100B800080B483B000AF78600B467B807B687A8846
:100B90005A830C37BD465DF8047B704780B485B03E
:100BA00000AF78600B467B8013467B700023FB60B0
:100BB0000023BB607B787A8802F0070292009340A2
:100BC000FB607B88DB089BB218467B88DB089BB206
:100BD0001A467B68083253F822207B8803F007030B
:100BE0009B0019460F238B40DB4302EA03017B681D
:100BF00000F1080243F822107B88DB089BB21A46FA
:100C00007B68083253F82220FB681343BB607B8863
:100C1000DB089BB21A467B680832B96843F8221099
:100C20001437BD465DF8047B704700BF80B500AF48
:100C3000114A114B1B6843F0010313600E4B002255
:100C40009A600D4A0C4B1B6823F0847323F48033A5
:100C50001360094B094A5A60074A074B1B6823F483
:100C600080231360044B0022DA6000F00BF8044B81
:100C70004FF000629A6080BD0038024010300024BE
:100C800000ED00E080B483B000AF00237B60002360
:100C90003B60424A414B1B6843F4803313603F4B37
:100CA0001B6803F400333B607B6801337B603B6867
:100CB000002B03D17B68B3F5A04FF0D1374B1B68F5
:100CC00003F40033002B02D001233B6001E000233A
:100CD0003B603B68012B5CD1304A304B1B6C43F0CE
:100CE000805313642E4A2E4B1B6843F44043136019
:100CF0002A4A2A4B9B689360284A284B9B6843F4F6
:100D000000439360254A254B9B6843F4A0539360AE
:100D1000224B244A5A60214A204B1B6843F08073BF
:100D2000136000BF1D4B1B6803F00073002BF9D04C
:100D30001B4A1B4B1B6843F48033136000BF184BE6
:100D40005B6803F48033002BF9D0154A144B1B6801
:100D500043F40033136000BF114B5B6803F40033AE
:100D6000002BF9D0104B40F205721A600B4A0B4B66
:100D70009B6823F003039360084A084B9B6843F089
:100D80000203936000BF054B9B6803F00C03082B24
:100D9000F9D10C37BD465DF8047B7047003802403E
:100DA00000700040085A4007003C024080B485B003
:100DB00000AF786039600023FB817B681B88FB8172
:100DC000FB8903F44153FB813B681A883B685B88CD
:100DD00013439AB23B689B8813439AB23B68DB8803
:100DE00013439AB23B681B8913439AB23B685B89F1
:100DF00013439AB23B689B8913439AB23B68DB89E1
:100E000013439AB2FB891343FB817B68FA891A80EA
:100E10007B689B8B9BB223F400639AB27B689A83B6
:100E20003B681A8A7B681A821437BD465DF8047BDA
:100E3000704700BF80B483B000AF78607B68002249
:100E40001A807B6800225A807B6800229A807B6827
:100E50000022DA807B6800221A817B6800225A8196
:100E60007B6800229A817B680022DA817B680722F6
:100E70001A820C37BD465DF8047B704780B483B09E
:100E800000AF78600B46FB70FB78002B08D07B68C6
:100E90001B889BB243F040039AB27B681A8007E03C
:100EA0007B681B889BB223F040039AB27B681A8050
:100EB0000C37BD465DF8047B704700BF80B485B039
:100EC00000AF78600B467B800023FB737B681B8937
:100ED0009AB27B8813409BB2002B02D00123FB7394
:100EE00001E00023FB73FB7B18461437BD465DF819
:100EF000047B704780B582B000AF08200121FFF766
:100F0000C9F94FF400533B6002237B7101233B710D
:100F10000023BB710023FB713B461F481946FFF7B6
:100F200093FD04200121FFF7B5F904233B603B4604
:100F30001A481946FFF788FD08200121FFF7AAF992
:100F40000123FB714FF480533B603B461248194626
:100F5000FFF77AFD11480421FFF704FE1048002135
:100F6000FFF7F2F900F024F80E4B00221A800D4B27
:100F70001A880D4B1A800D4BF0221A800B4B4FF440
:100F8000A0725A80094B01221A714FF6FF7000F0CF
:100F9000E7F90837BD4680BD000C0240000802405A
:100FA0000050014022000020180000201C000020FA
:100FB00080B500AF92484FF48051FFF7D3FD012078
:100FC00000F024F98F4800F0FFF9CB2000F01EF963
:100FD000392000F03BF92C2000F038F9002000F017
:100FE00035F9342000F032F9022000F02FF9CF203B
:100FF00000F00CF9002000F029F9C12000F026F9DA
:10100000302000F023F9E82000F000F9852000F0FE
:101010001DF9002000F01AF9782000F017F9EA20F5
:1010200000F0F4F8002000F011F9002000F00EF9B3
:10103000ED2000F0EBF8642000F008F9032000F048
:1010400005F9122000F002F9812000F0FFF8F720E6
:1010500000F0DCF8202000F0F9F8C02000F0D6F80D
:10106000232000F0F3F8C12000F0D0F8102000F0A9
:10107000EDF8C52000F0CAF83E2000F0E7F828207F
:1010800000F0E4F8C72000F0C1F8862000F0DEF898
:10109000362000F0BBF8482000F0D8F83A2000F0E5
:1010A000B5F8552000F0D2F8B12000F0AFF80020DC
:1010B00000F0CCF8182000F0C9F8B62000F0A6F82F
:1010C000082000F0C3F8822000F0C0F8272000F0CC
:1010D000BDF8F22000F09AF8002000F0B7F82A20BE
:1010E00000F094F8002000F0B1F8002000F0AEF815
:1010F000002000F0ABF8EF2000F0A8F82B2000F063
:1011000085F8002000F0A2F8002000F09FF80120F0
:1011100000F09CF83F2000F099F8262000F076F8C7
:10112000012000F093F8E02000F070F80F2000F0AC
:101130008DF8312000F08AF82B2000F087F80C2081
:1011400000F084F80E2000F081F8082000F07EF80E
:101150004E2000F07BF8F12000F078F8372000F006
:1011600075F8072000F072F8102000F06FF80320E7
:1011700000F06CF80E2000F069F8092000F066F825
:10118000002000F063F8E12000F040F8002000F0BB
:101190005DF80E2000F05AF8142000F057F80320F4
:1011A00000F054F8112000F051F8072000F04EF83C
:1011B000312000F04BF8C12000F048F8482000F042
:1011C00045F8082000F042F80F2000F03FF80C200E
:1011D00000F03CF8312000F039F8362000F036F805
:1011E0000F2000F033F8112000F010F8064800F04E
:1011F000EBF8292000F00AF82C2000F007F880BD59
:10120000000C024080841E0040420F0080B582B076
:1012100000AF0346FB710A484FF40051FFF7B0FCE2
:1012200008480421FFF7ACFCFB7907481946FFF793
:10123000D5F804480421FFF795FC0837BD4680BD6A
:10124000000C0240000802400050014080B582B00E
:1012500000AF0346FB710A484FF40051FFF782FCD0
:1012600008480421FFF78CFCFB7907481946FFF773
:10127000B5F804480421FFF775FC0837BD4680BD6A
:10128000000C0240000802400050014080B582B0CE
:1012900000AF0346FB800B46BB8013467B80F8887B
:1012A000B988FA88BB8800F013F82C20FFF7AEFF4E
:1012B0007B881B0A9BB2DBB21846FFF7C7FF7B880F
:1012C000DBB21846FFF7C2FF0837BD4680BD00BF3E
:1012D00090B583B000AF0446084611461A4623462F
:1012E000FB800346BB800B467B8013463B802A2055
:1012F000FFF78CFFFB881B0A9BB2DBB21846FFF797
:10130000A5FFFB88DBB21846FFF7A0FF7B881B0A0E
:101310009BB2DBB21846FFF799FF7B88DBB2184619
:10132000FFF794FF2B20FFF771FFBB881B0A9BB2CE
:10133000DBB21846FFF78AFFBB88DBB21846FFF71F
:1013400085FF3B881B0A9BB2DBB21846FFF77EFF86
:101350003B88DBB21846FFF779FF0C37BD4690BDDE
:1013600080B586B000AF0346FB80FB881B0A9BB2AA
:101370003B61FB88DBB2FB60124B1B88013B9AB2DE
:10138000104B5B88013B9BB200200021FFF7A0FFC0
:101390002C20FFF73BFF00237B610CE03B69DBB2B5
:1013A0001846FFF753FFFB68DBB21846FFF74EFF06
:1013B0007B6901337B617B69B3F5963FEED31837C8
:1013C000BD4680BD1C00002080B483B000AF7860B3
:1013D00002E07B68013B7B607B68002BF9D10C3716
:1013E000BD465DF8047B704780B582B000AF034610
:1013F000FB713620FFF70AFFFB79002B03D1582041
:10140000FFF724FF13E0FB79012B03D18820FFF7BE
:101410001DFF0CE0FB79022B03D12820FFF716FFFC
:1014200005E0FB79032B02D1E820FFF70FFFFB79E2
:10143000002B02D0FB79012B0AD10C4BF0221A8031
:101440000A4B4FF4A0725A80084B01221A7109E02E
:10145000064B4FF4A0721A80044BF0225A80034BC3
:1014600000221A710837BD4680BD00BF1C00002055
:1014700080B588B002AFBA607B600346FB810B4643
:10148000BB81FB89FB82234AFB891380224ABB89EB
:10149000138038E0BB681B780A2B1DD17B685B7812
:1014A0009AB21D4B1B8813449BB201339AB21A4B5C
:1014B0001A80BB6801331B780D2B06D1154B002217
:1014C0001A80BB680133BB6002E0124AFB8A1380BA
:1014D000BB680133BB6016E0BB681B780D2B03D1E2
:1014E000BB680133BB600EE00A4B18880A4B1988B1
:1014F000BB685A1CBA601A783B8C0093BB8C019372
:101500007B6800F00BF8BB681B78002BC2D1183742
:10151000BD4680BD180000202200002080B588B0A4
:1015200000AF7B600346FB810B46BB811346FB7219
:101530003D4AFB8913803D4ABB8913803A4B1B8887
:101540001A467B681B781344394A128893420BDD94
:101550007B685B789AB2354B1B8813449AB2334B45
:101560001A80314B00221A800023FB614AE07B681D
:101570005A68FB7A203B7968497801FB03F31946E6
:10158000FB690B445B0013441B887B610023BB6138
:101590002FE0BB697A6902FA03F303F40043002BDE
:1015A00012D0BB699AB2204B1B88134499B2FB69D5
:1015B0009AB21E4B1B8813449AB23B8D08461146C3
:1015C0001A46FFF763FE11E0BB699AB2164B1B88FF
:1015D000134499B2FB699AB2144B1B8813449AB214
:1015E000BB8D084611461A46FFF750FEBB69013312
:1015F000BB617B681B781A46BB699A42C9D8FB69F4
:101600000133FB617B685B781A46FB699A42AED86E
:101610007B681B789AB2044B1B8813449AB2024B26
:101620001A802037BD4680BD18000020220000200F
:101630001C00002075466F726D6963617269756D7B
:101640002076302E3100000054656D706572617433
:1016500075726520333064656700000048756D69F8
:10166000646974792034302500000000466F726D83
:101670006963617269756D2023310000000000000C
:10168000000000000000000000000000000000005A
:1016900000100010001000100010001000000010DA
:1016A00000000000002800280028000000000000C2
:1016B000000000000000000000240024007C002442
:1016C0000048007C0048004800000000003800543A
:1016D000005000380014005400540038001000007E
:1016E0000020005400580030002800540014000866
:1016F00000000000001000280028001000340048FE
:10170000004800340000000000100010001000002D
:1017100000000000000000000000000000080010B1
:1017200000200020002000200020002000100008E1
:101730000020001000080008000800080008000849
:1017400000100020001000380010002800000000E9
:101750000000000000000000000000000010001069
:10176000007C0010001000000000000000000000DD
:101770000000000000000000000000100010001039
:101780000000000000000000000000380000000021
:101790000000000000000000000000000000000049
:1017A00000000010000000000008000800100010F9
:1017B000001000100020002000000000003800444D
:1017C000004400540044004400440038000000007D
:1017D0000010003000500010001000100010001029
:1017E000000000000038004400440004000800101D
:1017F0000020007C000000000038004400040018B5
:101800000004000400440038000000000008001834
:10181000002800280048007C0008000800000000A4
:10182000007C0040004000780004000400440038C0
:1018300000000000003800440040007800440044EC
:101840000044003800000000007C00040008001084
:10185000001000200020002000000000003800449C
:1018600000440038004400440044003800000000F8
:101870000038004400440044003C000400440038A8
:101880000000000000000000001000000000000048
:101890000000001000000000000000000000001028
:1018A0000000000000000010001000100000000008
:1018B000000C003000400030000C00000000000070
:1018C000000000000000007C0000007C0000000020
:1018D0000000000000000000006000180004001874
:1018E0000060000000000000003800440004000810
:1018F000001000100000001000000000003800443C
:10190000004C0054005C0040004000380000000023
:1019100000100028002800280028007C0044004413
:1019200000000000007800440044007800440044B7
:1019300000440078000000000038004400400040EF
:1019400000400040004400380000000000700048E3
:1019500000440044004400440048007000000000BF
:10196000007C00400040007C004000400040007CC3
:1019700000000000007C0040004000780040004073
:1019800000400040000000000038004400400040DB
:10199000005C0044004400380000000000440044A3
:1019A0000044007C00440044004400440000000067
:1019B0000038001000100010001000100010003857
:1019C00000000000000400040004000400040004FF
:1019D000004400380000000000440048005000604F
:1019E0000050004800480044000000000040004053
:1019F00000400040004000400040007C000000002B
:101A00000044006C006C0054004400440044004456
:101A10000000000000440064006400540054004CC6
:101A2000004C004400000000003800440044004422
:101A300000440044004400380000000000780044E6
:101A400000440044007800400040004000000000D6
:101A5000003800440044004400440044005400386E
:101A6000000400000078004400440044007800486E
:101A700000480044000000000038004400400030EE
:101A8000000800040044003800000000007C001042
:101A900000100010001000100010001000000000E6
:101AA0000044004400440044004400440044003822
:101AB00000000000004400440044002800280028E2
:101AC00000100010000000000044004400540054C6
:101AD0000054006C0028002800000000004400288A
:101AE000002800100010002800280044000000001A
:101AF00000440044002800280010001000100010CE
:101B000000000000007C000400080010001000200D
:101B10000040007C000000000018001000100010C1
:101B2000001000100010001000100018002000200D
:101B30000010001000100010000800080000000055
:101B400000300010001000100010001000100010F5
:101B500000100030001000280028004400000000A1
:101B60000000000000000000000000000000000075
:101B70000000000000000000000000FE0020001037
:101B80000000000000000000000000000000000055
:101B90000000000000380044003C0044004C0034C9
:101BA0000000000000400040005800640044004471
:101BB00000640058000000000000000000380044ED
:101BC0000040004000440038000000000004000411
:101BD0000034004C00440044004C0034000000007D
:101BE0000000000000380044007C00400044003841
:101BF00000000000000C0010007C0010001000101D
:101C00000010001000000000000000000034004C34
:101C100000440044004C00340004007800400040C0
:101C200000580064004400440044004400000000E8
:101C300000100000007000100010001000100010D4
:101C400000000000001000000070001000100010E4
:101C500000100010001000E000400040004800505C
:101C600000600050004800440000000000700010B8
:101C70000010001000100010001000100000000004
:101C80000000000000780054005400540054005438
:101C90000000000000000000005800640044004400
:101CA0000044004400000000000000000038004430
:101CB0000044004400440038000000000000000020
:101CC0000058006400440044006400580040004094
:101CD000000000000034004C00440044004C00347C
:101CE00000040004000000000058006400400040B0
:101CF00000400040000000000000000000380044E8
:101D000000300008004400380000000000200020DF
:101D100000780020002000200020001800000000B3
:101D2000000000000044004400440044004C003423
:101D300000000000000000000044004400280028CB
:101D400000280010000000000000000000540054B3
:101D50000054006C00280028000000000000000073
:101D6000004400280010001000280044000000007B
:101D7000000000000044004400280028001000106B
:101D80000010006000000000007C0008001000202F
:101D90000040007C0000000000180010001000103F
:101DA000002000200010001000100018001000108B
:101DB00000100010001000100010001000100010A3
:101DC0000030001000100010000800080010001083
:101DD000001000300000000000000074004C000003
:101DE00000000000000000000000000000000000F3
:101DF00000000000000000000000000000000000E3
:101E00000000000000000000000000000000000CC6
:101E1000000C000C000C000C000C000C000C000C62
:101E2000000C000C0000000C000C00000000000082
:101E30000000001B001B001B001B001B000000001B
:101E40000000000000000000000000000000000092
:101E50000000000000008019801980198019C07FDF
:101E6000C07F80190033C07FC07F00330033003350
:101E700000330000000000000000001E003F8075DD
:101E800080650074003C001E000780058065806549
:101E90008075003F001E0004000400000000007078
:101EA00000D840D8C0D880D900730006000C801B31
:101EB000C036C066C046C0068003000000000000B7
:101EC0000000001E003F003300330033001E000CF2
:101ED000C03CC066806380618063C03E801C00009F
:101EE000000000000000000C000C000C000C000CB6
:101EF00000000000000000000000000000000000E2
:101F00000000000000000000800000010003000647
:101F100000060004000C000C000C000C000C000C6F
:101F200000040006000600030001800000200010ED
:101F30000018000C000C0004000600060006000655
:101F4000000600060004000C000C00180010002021
:101F50000000000C002D003F001E003300000000B8
:101F60000000000000000000000000000000000071
:101F700000000000000000000000000C000C000C3D
:101F8000000CC0FFC0FF000C000C000C000C000097
:101F90000000000000000000000000000000000041
:101FA0000000000000000000000000000000000031
:101FB0000000000C000C00040004000800000000F9
:101FC0000000000000000000000000000000001EF3
:101FD000001E0000000000000000000000000000E3
:101FE00000000000000000000000000000000000F1
:101FF00000000000000000000000000C000C0000C9
:1020000000000000000000030003000300060006BB
:1020100000060006000C000C000C000C0018001854
:1020200000180000000000000000001E003F003308
:10203000806180618061806D806D80618061806180
:102040000033003F001E00000000000000000006FA
:10205000000E001E003600260006000600060006E0
:102060000006000600060006000600000000000052
:102070000000001E003F80738061806180010003CA
:102080000006000C001800300060807F807F000098
:10209000000000000000001C003E0063006300031D
:1020A000000E000E00038001800180618073003FFC
:1020B000001E00000000000000000006000E000EE0
:1020C000001E001E0016003600360066807F807FEE
:1020D0000006000600060000000000000000007F6F
:1020E000007F006000600060006E007F8063800100
:1020F000800180618073003F001E0000000000002E
:102100000000001E003F803380610060006E007F91
:1021100080738061806180618033003F001E000019
:10212000000000000000807F807F8001000300032A
:1021300000060006000C000C000C00080018001837
:1021400000180000000000000000001E003F806337
:10215000806180610021001E003F8061806180619C
:102160008061003F001E0000000000000000001E13
:10217000003F00738061806180618073803F801DBB
:10218000800180610073003F001E0000000000001D
:1021900000000000000000000000000C000C000027
:1021A00000000000000000000000000C000C000017
:1021B000000000000000000000000000000000001F
:1021C000000C000C00000000000000000000000CEB
:1021D000000C0004000400080000000000000000E3
:1021E00080008003000E003800600038000E80037D
:1021F000800000000000000000000000000000005F
:10220000000000000000807F807F00000000807FD1
:10221000807F0000000000000000000000000000BF
:10222000000000000000000000400070001C0007DB
:1022300080010007001C007000400000000000004A
:10224000000000000000001F803FC071C060C0009F
:10225000C00180030007000E000C000C0000000C01
:10226000000C0000000000000000001E003F803154
:1022700080718063806F806D806D806F806700608B
:102280000032003E001C0000000000000000000EB4
:10229000000E001B001B001B001B80318031803FA3
:1022A000803F8031C060C060C0600000000000005E
:1022B0000000007C007E0063006300630063007E1A
:1022C000007E0063806180618063007F007E00008B
:1022D000000000000000001E003F803180610060AF
:1022E0000060006000600060006080618031003F3D
:1022F000001E0000000000000000007C007F006362
:102300008063806180618061806180618061006341
:102310000063007E007C0000000000000000807F61
:10232000807F0060006000600060007F007F0060D0
:10233000006000600060807F807F0000000000007F
:102340000000807F807F0060006000600060007F90
:10235000007F0060006000600060006000600000BE
:10236000000000000000001E003F8031806100601E
:102370000060006080638063806180618031803FA5
:10238000001E00000000000000008061806180618C
:10239000806180618061807F807F806180618061F9
:1023A0008061806180610000000000000000003F4B
:1023B000003F000C000C000C000C000C000C000C8A
:1023C000000C000C000C003F003F0000000000006B
:1023D0000000800180018001800180018001800176
:1023E00080018001806180618073003F001E0000D9
:1023F000000000000000C0608061006300660066AD
:10240000006C0078007C006600660063806180617B
:10241000C06000000000000000000060006000607C
:1024200000600060006000600060006000600060AC
:102430000060807F807F0000000000000000C0710D
:10244000C071C07BC07AC06AC06AC06EC064C06020
:10245000C060C060C060C060C060000000000000DC
:10246000000080718071807980798079806D806DC5
:10247000806D80658067806780678063806300000F
:10248000000000000000001E003F003380618061FA
:102490008061806180618061806180610033003F84
:1024A000001E0000000000000000007E007F80632E
:1024B0008061806180618063007F007E00600060D9
:1024C0000060006000600000000000000000001ECE
:1024D000003F003380618061806180618061806144
:1024E000806580670033803F401E000000000000D0
:1024F0000000007E007F8063806180618063007FD8
:10250000007E00660063006380618061C06000003F
:10251000000000000000000E001F803180310030FC
:102520000038001E00078003806180618031003F19
:10253000001E0000000000000000C0FFC0FF000CF3
:10254000000C000C000C000C000C000C000C000C2B
:10255000000C000C000C0000000000000000806176
:102560008061806180618061806180618061806163
:10257000806180618073003F001E00000000000049
:102580000000C060C060C060803180318031001BBD
:10259000001B001B001B000E000E000E00040000BC
:1025A000000000000000C0C0C0C0C0C0C0C0C0C0AB
:1025B000C0CC804C804C805E8052805280738061A1
:1025C00080610000000000000000C0C080608061E9
:1025D0000033003B001E000C000C001E001F003BDF
:1025E00080718061C0C00000000000000000C0C019
:1025F0008061806100330033001E001E000C000C5F
:10260000000C000C000C000C000C0000000000008E
:102610000000803F803F8001000300030006000CA3
:10262000000C0018001800300060807F807F0000E0
:1026300000000000000F000F000C000C000C000C4C
:10264000000C000C000C000C000C000C000C000C2A
:10265000000C000C000F000F0000001800180018FC
:10266000000C000C000C000C000600060006000622
:10267000000300030003000000000000001E001E15
:10268000000600060006000600060006000600061A
:10269000000600060006000600060006001E001EDA
:1026A0000000000C000C001E00120033003380619B
:1026B0008061000000000000000000000000000039
:1026C000000000000000000000000000000000000A
:1026D00000000000000000000000000000000000FA
:1026E00000000000E0FF0000000000380018000CAF
:1026F00000000000000000000000000000000000DA
:1027000000000000000000000000000000000000C9
:10271000000000000000001F803F80618001801FDA
:10272000803F80618063807FC0380000000000002F
:1027300000000060006000600060006E007F807339
:1027400080618061806180618073007F006E000025
:102750000000000000000000000000000000001E5B
:10276000003F807380610060006080618073003F83
:10277000001E0000000000000000800180018001B8
:102780008001801D803F80738061806180618061F5
:102790008073803F801D00000000000000000000EA
:1027A000000000000000001E003F00738061807F79
:1027B000807F00608071003F001E0000000000006C
:1027C0000000C007C00F000C000C807F807F000C51
:1027D000000C000C000C000C000C000C000C0000A5
:1027E000000000000000000000000000801D803F8D
:1027F000807380618061806180618073803F801D13
:1028000080018063007F003E000000600060006087
:102810000060006F807F8071806180618061806175
:1028200080618061806100000000000000000006FF
:10283000000600000000003E003E00060006000604
:10284000000600060006000600060000000000006A
:102850000006000600000000003E003E00060006E4
:1028600000060006000600060006000600060046F8
:10287000007E003C0000006000600060006080613D
:1028800000630066006C007C00760063006380617A
:10289000C0600000000000000000003E003E000696
:1028A00000060006000600060006000600060006F8
:1028B0000006000600060000000000000000000006
:1028C00000000000000080DDC0FFC0CEC0CCC0CC46
:1028D000C0CCC0CCC0CCC0CCC0CC0000000000003C
:1028E00000000000000000000000006F807F807189
:1028F00080618061806180618061806180610000B1
:102900000000000000000000000000000000001EA9
:10291000003F807380618061806180618073003FCF
:10292000001E000000000000000000000000000089
:10293000006E007F80738061806180618061807340
:10294000007F006E0060006000600060000000001A
:1029500000000000801D803F807380618061806185
:1029600080618073803F801D800180018001800133
:10297000000000000000000000000067803F0039F8
:1029800000300030003000300030003000300000F7
:102990000000000000000000000000000000001E19
:1029A000803F80610060007F803F80018061007F08
:1029B000001E0000000000000000000000080018D9
:1029C0000018007F007F0018001800180018001879
:1029D0000018801F800F00000000000000000000B1
:1029E0000000000000008061806180618061806182
:1029F000806180618063807F803D00000000000076
:102A000000000000000000000000C0608031803144
:102A10008031001B001B001B000E000E0006000092
:102A2000000000000000000000000000000080DD49
:102A300080DD80DD005500550055007700770022CD
:102A40000022000000000000000000000000000064
:102A50000000806100330033001E000C000C001EDB
:102A6000003300338061000000000000000000001F
:102A70000000000080618061803100330033001B62
:102A8000001B001B000E000E000E001C007C0070DE
:102A900000000000000000000000C07FC07F800137
:102AA00000030006000C00180030C07FC07F00004B
:102AB00000000000800380070006000600060006F4
:102AC0000006000E001C001C000E0006000600069A
:102AD00000060006800780030006000600060006C8
:102AE00000060006000600060006000600060006B6
:102AF0000006000600060006000600060038003C3E
:102B0000000C000C000C000C000C000E000700076D
:102B1000000E000C000C000C000C000C003C0038F7
:102B200000000000000000000000000000008038ED
:102B3000807F00470000000000000000000000004F
:102B40000000000000000000000000000000000085
:102B50000000000000000000000000000000000075
:102B60000000000000000000000000000000000065
:102B70000000000000000000E003E003E003E003C9
:102B8000E003E003E003E003C003C003C001C001B1
:102B9000C001C001C001000000000000E003E0032C
:102BA000E003000000000000000000003C1E3C1E8E
:102BB0003C1E3C1E3C1E3C1E3C1E00000000000053
:102BC0000000000000000000000000000000000005
:102BD00000000000000000000000000000000000F5
:102BE000CE01CE03DE039E039C039C07FF3FFF7FC5
:102BF0003807380F780F780F780EFFFFFFFFF01EB1
:102C0000F01CE01CE03CE03DE0390000000000006A
:102C100000000000FC03FE0FEE1FE01EE01EE01EA1
:102C2000E01EE01FE00FE007F003FC01FE01FE01E3
:102C3000FE01FE01FE01FE01FE3DFC3FF00FE00142
:102C4000E001000000000000033E07F78FE78EE779
:102C50009EE3BCE3B8E7F8E7F0F7E03FC001FF030D
:102C6000FF07F307F30FF31EF33CF338F3787FF01D
:102C70003FE000000000000000000000E007F80F47
:102C8000780F781F781F781F780FF00FE00F801FE4
:102C9000C37FC3FBE7F3F7F1F7F0FFF07FF03EF8F7
:102CA0007F7CFF3FEF1F00000000000000000000DD
:102CB000E003E003E003E003E003C003C001000021
:102CC0000000000000000000000000000000000004
:102CD00000000000000000000000000000000000F4
:102CE000000000003F007C00F001E001C003C007CD
:102CF00080078007800F000F000F000F000F000FEC
:102D0000000F800F80078007C007C003E001F001BB
:102D10007C003F000F000000007E001FC007C003C2
:102D2000E001F001F000F000F80078007800780091
:102D3000780078007800F800F000F000F001E00181
:102D4000C003C007001F007E00780000E003C0033E
:102D5000C001CE39FF3F7F3F20037003F807780F93
:102D60003C1F3806000000000000000000000000CA
:102D70000000000000000000000000000000000053
:102D8000000000000000000000000000C001C001C1
:102D9000C001C001C001C001C001FFFFFFFFC001B1
:102DA000C001C001C001C001C0010000000000005E
:102DB0000000000000000000000000000000000013
:102DC0000000000000000000000000000000000003
:102DD000000000000000E003E003E003E003E00186
:102DE000E001E001C00180030000000000000000DD
:102DF0000000000000000000000000000000FE3F96
:102E0000FE3F000000000000000000000000000085
:102E100000000000000000000000000000000000B2
:102E200000000000000000000000000000000000A2
:102E30000000000000000000000000000000E003AF
:102E4000E003E003E00300000000000000000000D9
:102E50000F000F001E001E003C003C0078007800B0
:102E6000F000F000E001E001C003C003800780072C
:102E7000000F000F001E001E003C003C0078007890
:102E800000F00000F007F80F7C1F3E3E1E3C1F7C48
:102E90001F7C0F780F780F780F780F780F780F78E6
:102EA0001F7C1F7C1E3C3E3E7C1FF80FF00700007D
:102EB0000000000000000000F000F007F03FF03FCD
:102EC000F001F001F001F001F001F001F001F0017A
:102ED000F001F001F001F001F001F001F001FF3F1D
:102EE000FF3F00000000000000000000E00FF83F7E
:102EF0007C3C3C003E003E003E003C003C007C0030
:102F0000F800F001E003C0078007000F001E003E3C
:102F1000003CFE3FFE3F00000000000000000000FB
:102F2000F00FF81F7C1C3E003E003E003C003C00C1
:102F3000F800F00FF80F7C003E001E001E001E007F
:102F40001E003E007C1CF81FE01F00000000000077
:102F5000000000007800F800F800F801F803F80716
:102F6000F807780F781E781E783C78787878FFFF1D
:102F7000FFFF780078007800780078007800000083
:102F80000000000000000000FC1FFC1FFC1F001ED2
:102F9000001E001E001E001EE01FF81FFC007C002B
:102FA0003E003E001E003E003E003C007C1CF81F20
:102FB000E01F00000000000000000000FC01FE0710
:102FC0008E0F001F001E003E003C003CF83DFC3F01
:102FD0003E7F1F7E0F3C0F3C0F3C0F3C0F3E1F1EE1
:102FE0003E1FFC0FF0030000000000000000000086
:102FF000FF3FFF3FFF3F0F001E001E003C00380058
:103000007800F000F000E001E001C003C003800799
:10301000800F800F000F001F001F00000000000045
:1030200000000000F807FC0F3E1F1E1E1E3E1E3E45
:103030001E1E3C1FF80FF007F80FFC1E3E3E1F3C03
:103040001F7C0F7C0F7C1F3C3E3FFC1FF0070000E5
:103050000000000000000000F007F80F7C1E3E3C5E
:103060001E3C1F7C1F7C1F7C1F7C1F3C3F3EFF1FA4
:10307000EF071F001E001E003E003C00F838F03F26
:10308000E01F000000000000000000000000000041
:103090000000000000000000E003E003E003E003A4
:1030A0000000000000000000000000000000E0033D
:1030B000E003E003E0030000000000000000000067
:1030C000000000000000000000000000E003E0033A
:1030D000E003E0030000000000000000000000002A
:1030E0000000E003E003E003E003E001E001E001B1
:1030F000C00380030000000000000000000000008A
:1031000003000F003F00FC00F003C00F003F00FE73
:10311000003FC00FF003FC003F000F000300000061
:10312000000000000000000000000000000000009F
:10313000000000000000000000000000FFFFFFFF93
:10314000000000000000FFFFFFFF00000000000083
:10315000000000000000000000000000000000006F
:10316000000000000000000000E000F8007E801F6A
:10317000E007F8017E001F007E00F801E007801FD5
:10318000007E00F800E000000000000000000000E9
:10319000F01FFC3F3E381F381F381E001E003C0049
:1031A0007800F000E001C003C003C007C0070000C2
:1031B00000000000C007C007C007000000000000BA
:1031C00000000000F803FE0F1E1F0F3E7F3CFF783B
:1031D000EF79C773C7F38FF38FF38FF39FF39FF3E9
:1031E000FF73FF7BF779003C1C1FFC0FF803000006
:1031F0000000000000000000000000000000E003EC
:10320000E003F007F007F007780F780F7C0E3C1E04
:103210003C1E3E3CFE3FFF3F1F780F780FF007F04B
:1032200007F00000000000000000000000000000A7
:103230000000F83FFC3F3E3C1E3C1E3C1E3C3E3C1A
:103240007C3CF03FF83F7E3C1F3C1F3C0F3C0F3C5A
:103250001F3CFE3FF83F000000000000000000009F
:10326000000000000000FF01FF07871F003E003C38
:10327000007C00780078007800780078007C007C82
:10328000003E003F831FFF07FF0100000000000019
:1032900000000000000000000000F07FFC7F7E784E
:1032A0001F781F780F780F780F780F780F780F78C6
:1032B0000F780F781F781E787E78F87FE07F000007
:1032C0000000000000000000000000000000FF3FC0
:1032D000FF3F003E003E003E003E003E003EFE3FFF
:1032E000FE3F003E003E003E003E003E003EFF3FEF
:1032F000FF3F000000000000000000000000000090
:103300000000FF1FFF1F001E001E001E001E001EEB
:10331000001EFF1FFF1F001E001E001E001E001EBD
:10332000001E001E001E0000000000000000000043
:10333000000000000000FE03FF0F871F003E007C1E
:10334000007C007800F800F87FF87FF80F780F7C99
:103350000F7C0F3E8F1FFF0FFE03000000000000D8
:10336000000000000000000000001F7C1F7C1F7C8C
:103370001F7C1F7C1F7C1F7C1F7CFF7FFF7F1F7CAF
:103380001F7C1F7C1F7C1F7C1F7C1F7C1F7C000000
:103390000000000000000000000000000000FF3FEF
:1033A000FF3FE003E003E003E003E003E003E003AA
:1033B000E003E003E003E003E003E003E003FF3F9A
:1033C000FF3F0000000000000000000000000000BF
:1033D0000000FC1FFC1F7C007C007C007C007C004B
:1033E0007C007C007C007C007C007C007800780005
:1033F000F838F03FC03F000000000000000000006F
:103400000000000000001F3C1E3C3C3C783CF03CAF
:10341000E03DE03FC03F803FC03FE03FF03DF03C3B
:10342000783C7C3C3E3C1F3C0F3C00000000000010
:1034300000000000000000000000003E003E003ED2
:10344000003E003E003E003E003E003E003E003E8C
:10345000003E003E003E003E003EFF3FFF3F0000BA
:1034600000000000000000000000000000001FF845
:103470001FFC1FFC3FFE3FFE3FFE7FFF77FF77FFF5
:10348000F7F7E7F7E7F3E7F3C7F307F007F007F01D
:1034900007F0000000000000000000000000000035
:1034A00000000F7C0F7C0F7E0F7F0F7F8F7F8F7F41
:1034B000CF7FEF7BEF79FF79FF78FF787F783F78D8
:1034C0003F781F781F780000000000000000000017
:1034D000000000000000F007FC1F3E3E1F7C0F783C
:1034E0000F780FF80FF80FF80FF80FF80FF80F78A4
:1034F0000F781F7C3E3EFC1FF0070000000000001C
:1035000000000000000000000000FC3FFF3F1F3EE5
:103510000F3E0F3E0F3E0F3E1F3E3F3EFC3FF03F33
:10352000003E003E003E003E003E003E003E0000E9
:103530000000000000000000000000000000F00794
:10354000FC1F3E3E1F7C0F780F780FF80FF80FF826
:103550000FF80FF80FF80F780F781F7C3E3EFC1F16
:10356000F8077C003F000F0003000000000000008F
:103570000000F03FFC3F7E3C3E3C1E3C1E3C3E3C7F
:103580003C3CFC3CF03FE03FF03DF83C7C3C3E3CAA
:103590001E3C1F3C0F3C000000000000000000002B
:1035A000000000000000FC07FE1F0E3E003C003C37
:1035B000003C003EC01FF80FFE037F001F000F00FD
:1035C0000F001F203E3CFC3FF01F000000000000E9
:1035D00000000000000000000000FFFFFFFFE0030C
:1035E000E003E003E003E003E003E003E003E003C3
:1035F000E003E003E003E003E003E003E003000096
:1036000000000000000000000000000000000F7C2F
:103610000F7C0F7C0F7C0F7C0F7C0F7C0F7C0F7C52
:103620000F7C0F7C0F7C0F7C1E3C1E3C3E3EFC1F23
:10363000F007000000000000000000000000000093
:10364000000007F007F007F80F780F7C1E3C1E3CC7
:103650001E3E3C1E3C1F781F780FF80FF007F00746
:10366000F007E003E003000000000000000000009D
:1036700000000000000003E003F003F007F0E7F3B0
:10368000E7F3E7F3E773F77BF77FFF7F7F7F7F7FCA
:103690007E7F7E3F3E3E3E3E3E3E000000000000FC
:1036A0000000000000000000000007F80F7C1E3E34
:1036B0003E3E3C1FF80FF007E007E003E003F00791
:1036C000F80F7C0F7C1E3E3C1F780F780FF0000037
:1036D000000000000000000000000000000007F8EB
:1036E00007780F7C1E3C1E3E3C1F780FF80FF0073A
:1036F000E003E003E003E003E003E003E003E003B2
:10370000E0030000000000000000000000000000D6
:103710000000FF7FFF7F0F001F003E007C00F800CD
:10372000F000E001E003C007800F000F001E003E24
:10373000007CFF7FFF7F0000000000000000000011
:10374000FF078007800780078007800780078007C2
:103750008007800780078007800780078007800731
:103760008007800780078007800780078007FF07A2
:10377000FF07000000780078003C003C001E001E9F
:10378000000F000F80078007C003C003E001E001C5
:10379000F000F000780078003C003C001E001E00A5
:1037A0000F000F0007000000F07FF000F000F000B5
:1037B000F000F000F000F000F000F000F000F00089
:1037C000F000F000F000F000F000F000F000F00079
:1037D000F000F000F000F07FF07F0000C000C001BA
:1037E000C001E003E003F007F0077807780F380F17
:1037F0003C1E3C1E1E3C1E3C0F380F780778000014
:1038000000000000000000000000000000000000B8
:1038100000000000000000000000000000000000A8
:103820000000000000000000000000000000000098
:1038300000000000000000000000FFFFFFFF00008C
:1038400000000000F0000000000000000000000088
:103850000000000000000000000000000000000068
:103860000000000000000000000000000000000058
:103870000000000000000000000000000000000048
:1038800000000000F80FFC3F7C3C3E003E003E0084
:10389000FE07FE1F3E3E3E7C3E783E7C7E7CFF3F28
:1038A000CF1F00000000000000000000003C003CB2
:1038B000003C003C003C003CF83DFE3F3E3F1F3ECC
:1038C0000F3C0F3C0F3C0F3C0F3C0F3C1F3C1E3C81
:1038D0003E3FFC3FF03B0000000000000000000005
:1038E000000000000000000000000000FE03FF0FC9
:1038F000871F003E003E003C007C007C007C003CBA
:10390000003E003E871FFF0FFE0300000000000086
:10391000000000001F001F001F001F001F001F00ED
:10392000FF07FF1F3F3E1F3C1F7C1F7C1F7C1F7833
:103930001F781F7C1F7C3F3C7F3EFF1FDF0F000076
:103940000000000000000000000000000000000077
:1039500000000000F803FC0F3E1F1E3E1F3C1F7CB2
:10396000FF7FFF7F007C007C003C003E071FFF0FB5
:10397000FE0300000000000000000000FF01E10362
:10398000C003C007C007C007FF7FFF7FC007C00795
:10399000C007C007C007C007C007C007C007C007EF
:1039A000C007C007C00700000000000000000000C2
:1039B000000000000000000000000000EF07FF1FF3
:1039C0007F3E1F3C1F7C1F7C1F781F781F781F7C49
:1039D0001F7C3F3C7F3EFF1FDF0F1E001E001E00AE
:1039E0007C38F83F003C003C003C003C003C003C84
:1039F000FC3DFE3F9E3F1F3F1F3E1F3C1F3C1F3CA8
:103A00001F3C1F3C1F3C1F3C1F3C1F3C1F3C000039
:103A10000000000000000000F001F00100000000C4
:103A200000000000E07FE07FE001E001E001E00154
:103A3000E001E001E001E001E001E001E001E0017E
:103A4000E00100000000000000000000F800F800A5
:103A50000000000000000000F83FF83FF800F80008
:103A6000F800F800F800F800F800F800F800F80096
:103A7000F800F800F800F800F800F000F071E07FBE
:103A8000003C003C003C003C003C003C1F3C3E3CF9
:103A90007C3CF83CF03DE03DC03FC03FE03FF03DA6
:103AA000F83C7C3C3E3C1F3C1F3C000000000000FA
:103AB00000000000F07FF001F001F001F001F001E2
:103AC000F001F001F001F001F001F001F001F0016E
:103AD000F001F001F001F001F001F001F00100004F
:103AE00000000000000000000000000000000000D6
:103AF000000000009EF7FFFFFFFFFFFFE7FBE7F975
:103B0000C7F1C7F1C7F1C7F1C7F1C7F1C7F1C7F1F5
:103B1000C7F10000000000000000000000000000ED
:103B20000000000000000000FC3DFE3F9E3F1F3FE4
:103B30001F3E1F3C1F3C1F3C1F3C1F3C1F3C1F3CAB
:103B40001F3C1F3C1F3C0000000000000000000064
:103B5000000000000000000000000000F007FC1F53
:103B60003E3E1F3C1F7C0F780F780F780F780F7840
:103B70001F7C1F3C3E3EFC1FF007000000000000C1
:103B80000000000000000000000000000000000035
:103B9000F83DFE3F3E3F1F3E0F3C0F3C0F3C0F3CAD
:103BA0000F3C0F3C1F3C1E3E3E3FFC3FF83F003C9D
:103BB000003C003C003C003C000000000000000015
:103BC00000000000EE07FE1F7E3E1E3C1E7C1E789D
:103BD0001E781E781E781E781E7C3E7C7E3EFE1F60
:103BE000DE0F1E001E001E001E001E000000000052
:103BF00000000000000000007F1FFF1FE71FC71F1D
:103C0000871F001F001F001F001F001F001F001F35
:103C1000001F001F001F0000000000000000000047
:103C2000000000000000000000000000FC07FE1F74
:103C30000E1E003E003E003FE01FFC07FE003E005F
:103C40001E001E003E3CFC3FF01F00000000000074
:103C500000000000000000000000800780078007CF
:103C6000FF7FFF7F8007800780078007800780072E
:103C70008007800780078007C007FF03FF0100005F
:103C80000000000000000000000000000000000034
:103C9000000000001E3C1E3C1E3C1E3C1E3C1E3C08
:103CA0001E3C1E3C1E3C1E3C3E3C7E3CFE3EFE1F1F
:103CB000DE0F000000000000000000000000000017
:103CC000000000000000000007F00F780F781E3C95
:103CD0001E3C1E3E3C1E3C1E780F780FF00FF00776
:103CE000F007E003E0030000000000000000000017
:103CF00000000000000000000000000003F0E3F1FD
:103D0000E3F3E7F3F7F3F7F3F77F777F7F7F7F7FC7
:103D10007F7F3E3E3E3E3E3E3E3E000000000000B5
:103D20000000000000000000000000000000000093
:103D30000F7C1E3E3C3E3C1FF80FF007F007E003EF
:103D4000F007F807F80F7C1E3E3E1F3C1F7800006E
:103D50000000000000000000000000000000000063
:103D60000000000007F80F780F7C1E3C1E3C3C1E34
:103D70003C1E3C1F780FF80FF007F007E003E0034C
:103D8000C003C003C0038007800F007F0000000055
:103D90000000000000000000FF3FFF3F1F003E004A
:103DA0007C00F800F001E003C007800F001F001E38
:103DB000003CFF7FFF7F00000000000000000000CB
:103DC000FE01E003C003C003C003C003E001E00143
:103DD000E001C001C003803F803FC003C001E0019B
:103DE000E001E001C003C003C003C003E003FE0123
:103DF0007E000000C001C001C001C001C001C001BF
:103E0000C001C001C001C001C001C001C001C001AA
:103E1000C001C001C001C001C001C001C001C0019A
:103E2000C001C001C0010000C03FE003E001E001AB
:103E3000E001E001C001C003C003C001E001FE00D9
:103E4000FE00E001C001C003C003C001E001E001C9
:103E5000E001E001E003C03F003F0000000000007F
:103E60000000000000000000000000000000000052
:103E70000000073FC77FE773FFF17EF000000000FE
:103E80000000000000000000000000000000000032
:103E9000070A00007C1600080B120000E81D00084D
:083EA000101A0000442B000879
:0400000508000000EF
:00000001FF
