:020000040800F2
:1000000040BF0020050200085D0200085D020008F4
:100010005D0200085D0200085D02000800000000AB
:100020000000000000000000000000005D02000869
:100030005D020008000000005D020008810B00085E
:100040005D0200085D0200085D0200085D02000814
:100050005D0200085D0200085D0200085D02000804
:100060005D0200085D0200085D0200085D020008F4
:100070005D0200085D0200085D0200085D020008E4
:100080005D0200085D0200085D0200085D020008D4
:100090005D0200085D0200085D0200085D020008C4
:1000A0005D0200085D0200085D0200085D020008B4
:1000B0005D0200085D0200085D0200085D020008A4
:1000C0005D0200085D0200085D0200085D02000894
:1000D0005D0200085D0200085D0200085D02000884
:1000E0005D0200085D0200085D0200085D02000874
:1000F0005D0200085D0200085D0200085D02000864
:100100005D0200085D0200085D0200085D02000853
:100110005D0200085D0200085D0200085D02000843
:100120005D0200085D0200085D0200085D02000833
:100130005D0200085D0200085D0200085D02000823
:100140005D0200085D0200085D0200085D02000813
:100150005D0200085D0200085D0200085D02000803
:100160005D0200085D0200085D0200085D020008F3
:100170005D0200085D0200085D0200085D020008E3
:100180005D0200085D0200085D0200085D020008D3
:100190005D0200085D0200085D0200085D020008C3
:1001A0005D0200085D0200085D02000880B582B0B3
:1001B00000AF032002F0CAFA4FF6FF7002F082FA95
:1001C00000237B6012E00D4A7B6852F8333099B20D
:1001D0000A4A7B68DB0013445B689BB208461946F9
:1001E000002202F005FA7B6801337B607A68044BD9
:1001F0001B689A42E7D30837BD4680BD0000002047
:10020000E8B6002080B582B000AF0F4B7B600F4B8B
:100210003B6007E03B681A1D3A607A68111D7960FF
:1002200012681A603B680A4A9342F3D309480A49A4
:100230004FF000028842B8BF40F8042BFADB00F010
:1002400011F80837BD4680BD0C31000800000020C1
:100250001CB700201CB7002040B7002080B400AFBE
:10026000FEE700BF80B582B000AF01F0AFFC00F048
:10027000A1F901F0F1FF032002F068FAFFF796FF01
:1002800001237B713B46184600F060FA0346002BC1
:1002900001D100F0D9FBF5E780B483B000AF03468D
:1002A000FB71054B00221A70034AFB7913700C375F
:1002B000BD465DF8047B70470238024080B582B0CD
:1002C00000AF00233B600023FB710023BB71312092
:1002D00000F020F90346BB713B6801333B603B688B
:1002E000B3F5A04F02D0BB79002BF0D0312000F045
:1002F00011F90346002B02D00123FB7101E000231A
:10030000FB71FB7918460837BD4680BD80B489B0C3
:1003100000AF78600023BB6100237B610023FB6199
:1003200002233B610023FB600223BB60484B9B68B8
:1003300003F00C03BB61BB69042B07D0082B09D069
:10034000002B3FD17B68434A1A603FE07B68424AFA
:100350001A603BE03E4B5B6803F480039B0DFB603F
:100360003B4B5B6803F03F03BB60FB68002B0DD089
:10037000394ABB68B2FBF3F2354B596847F6C07394
:100380000B409B0903FB02F3FB610CE0314ABB68A5
:10039000B2FBF3F22E4B596847F6C0730B409B0932
:1003A00003FB02F3FB612A4B5B6803F440331B0C35
:1003B00001335B003B61FA693B69B2FBF3F27B6896
:1003C0001A6003E07B68234A1A6000BF204B9B68D9
:1003D00003F0F003BB61BB691B09BB611F4ABB692A
:1003E00013441B78DBB27B617B681A687B69DA4057
:1003F0007B685A60164B9B6803F4E053BB61BB6992
:100400009B0ABB61154ABB6913441B78DBB27B6155
:100410007B685A687B69DA407B689A600C4B9B6802
:1004200003F46043BB61BB695B0BBB610B4ABB69F7
:1004300013441B78DBB27B617B685A687B69DA40C6
:100440007B68DA602437BD465DF8047B704700BFE7
:10045000003802400024F40000127A00ECB60020BC
:1004600080B483B000AF78600B46FB70FB78002B44
:1004700006D00949084B1A6B7B6813430B6306E0EF
:100480000549054B1A6B7B68DB4313400B630C3744
:10049000BD465DF8047B70470038024080B483B0ED
:1004A00000AF78600B46FB70FB78002B06D0094943
:1004B000084B1A6C7B6813430B6406E00549054B37
:1004C0001A6C7B68DB4313400B640C37BD465DF848
:1004D000047B70470038024080B483B000AF78607E
:1004E0000B46FB70FB78002B06D00949084B5A6C71
:1004F0007B6813434B6406E00549054B5A6C7B68E7
:10050000DB4313404B640C37BD465DF8047B7047FA
:100510000038024080B487B000AF0346FB7100236F
:10052000FB6000237B610023FB74FB795B09DBB27A
:10053000FB60FB68012B03D1124B1B687B6109E058
:10054000FB68022B03D10F4B1B6F7B6102E00D4B4D
:100550005B6F7B61FB7903F01F03FB60FB687A69CB
:1005600022FA03F303F00103002B02D00123FB74F2
:1005700001E00023FB74FB7C18461C37BD465DF888
:10058000047B70470038024080B485B000AF7860CB
:10059000074B1B68FB6000BF054B1A68FB68D21A4B
:1005A0007B689A42F8D31437BD465DF8047B7047E8
:1005B00020B7002090B585B002AF00F0F9FA584896
:1005C0000021584A00F0A8FE554882210322022348
:1005D00001F05EF80520FFF7D7FF51488221032282
:1005E000002301F055F80220FFF7CEFF3C1D022347
:1005F00000934B4882210022234601F06DF83B799D
:100600001B027A79134340F61102934201D003236F
:1006100081E0434882210322022301F039F80520BA
:10062000FFF7B2FF3E4882210322002301F030F899
:100630000220FFF7A9FF042000F076F80346FB71C3
:10064000FB7923F00103FB71FB79354882210422F9
:1006500001F01EF8042000F067F80346FB71FB79F7
:1006600023F00203FB71FB792D488221042201F063
:100670000FF82B4882212022492301F009F802209B
:10068000FFF782FF264882212122012301F000F892
:10069000172000F049F80346FB71FB7943F01E0375
:1006A000FB71FB791E488221172200F0F1FF1C48E4
:1006B000822141229A2300F0EBFF194882214A222D
:1006C000012300F0E5FF164882214B22012300F0B0
:1006D000DFFF134882214B22002300F0D9FF10488E
:1006E00082215622012300F0D3FF0D488221582297
:1006F000012300F0CDFF0A4882214022032300F0AD
:10070000C7FF074882210B22FF2300F0C1FF022010
:10071000FFF73AFF022318460C37BD4690BD00BFD5
:10072000005C0040A086010080B582B000AF0346A7
:10073000FB71FB79044882211A4600F081FF0346D1
:1007400018460837BD4680BD005C004080B584B0C7
:1007500000AF78604020FFF7E7FF0346FB73FB7BA9
:100760005BB2002B16DB7B6800221A807B680022BC
:100770005A807B6801221A715A4882214B22012338
:1007800000F086FF574882214B22002300F080FFB3
:100790000123A3E07B685B79002B17D17B681B8862
:1007A000184600F0A1F80346C3F1EF039AB27B6844
:1007B0001A807B685B88184600F0F4F80346C3F59E
:1007C0009F7301339AB27B685A8048E07B685B79FB
:1007D000012B12D17B681B88184600F085F8034670
:1007E0001A467B681A807B685B88184600F0DAF846
:1007F00003461A467B685A8031E07B685B79022B9E
:1008000015D17B685B88184600F06EF803461A46DF
:100810007B685A807B681B88184600F0C3F8034643
:10082000C3F59F7301339AB27B681A8017E07B6827
:100830005B79032B13D17B681B88184600F054F8B2
:100840000346C3F1EF039AB27B685A807B681B882A
:10085000184600F0A7F803461A467B681A8021481C
:1008600082214B22012300F013FF1E4882214B22DC
:10087000002300F00DFF7B6800221A717B685B7912
:10088000002B03D07B685B79012B13D17B681B881D
:10089000002B0ED07B681B88EE2B0AD87B685B8808
:1008A000002B06D07B685B88B3F59F7F01D80023BF
:1008B00014E012E07B681B88002B0ED07B681B883D
:1008C000B3F59F7F09D87B685B88002B05D07B68D8
:1008D0005B88EE2B01D8002300E001231846103777
:1008E000BD4680BD005C004080B584B000AF0346CB
:1008F000FB804D20FFF718FF03467B724E20FFF769
:1009000013FF03463B727B7A1B029AB23B7A9BB27F
:100910001343FB81B7F90E3040F6B832934206DC40
:10092000FB89C3F573630C339BB2FB8105E0FB8944
:10093000C3F56D6308339BB2FB81B7F90E30184ADB
:1009400082FB03121A44D210DB17D31AFB81B7F9CA
:100950000E30EF2B02DDEF23FB8105E0B7F90E30FF
:10096000002B01DA0023FB81B7F90E20FB889A42A5
:1009700005DDFA89FB88D31A9BB29BB204E0FB89A0
:10098000FA88D31A9BB29BB2BB81B7F90C30042B07
:1009900001DDFB8900E0FB8818461037BD4680BDAD
:1009A0008988888880B584B000AF0346FB804F20DB
:1009B000FFF7BAFE03467B725020FFF7B5FE0346F1
:1009C0003B727B7A1B029AB23B7A9BB21343FB8148
:1009D000FB89A3F5B4739BB2FB81B7F90E30194ABA
:1009E00082FB03125210DB17D31AFB81B7F90E30CA
:1009F000002B02DC0023FB8107E0B7F90E30B3F5D2
:100A0000A07F02DB40F23F13FB81B7F90E20FB8889
:100A10009A4205DDFA89FB88D31A9BB29BB204E0A7
:100A2000FB89FA88D31A9BB29BB2BB81B7F90C3011
:100A3000042B01DDFB8900E0FB8818461037BD461A
:100A400080BD00BFE9A28B2E90B585B002AF47F6FE
:100A5000EF3001F037FE4FF6FF730093002078214E
:100A60004FF4A072782301F0B5FE00237B602BE0E9
:100A70007B689CB27B687A6802FB03F3184602F03D
:100A8000ADF802460B461046194613A3D3E90023DE
:100A900002F00AF902460B46104619464FF00002D2
:100AA0000F4B01F04FFF02460B461046194602F06D
:100AB0000DFB03469BB2204619464FF6FF7201F02C
:100AC00097FD7B6801337B607B68B3F5A07FCFDB4C
:100AD0000C37BD4690BD00BFFCA9F1D24D62403F2E
:100AE00000005E40AFF3008080B483B000AF0346E7
:100AF0003960FB7197F90730002B0BDA0D49FB7950
:100B000003F00F03043B3A68D2B21201D2B20B4495
:100B10001A7609E0084997F907303A68D2B212010B
:100B2000D2B20B4483F800230C37BD465DF8047B3A
:100B3000704700BF00ED00E000E100E080B582B04A
:100B400000AF78607B68013BB3F1807F01D3012364
:100B50000FE00A4A7B68013B53604FF0FF300F21E2
:100B6000FFF7C2FF054B00229A60044B07221A6070
:100B7000002318460837BD4680BD00BF10E000E0E6
:100B800080B400AF084B1B680133074A1360074B62
:100B90001B68002B04D0054B1B68013B034A136004
:100BA000BD465DF8047B704720B7002024B70020C5
:100BB00080B500AF134B1B78002B00D021E0012043
:100BC000FFF76AFB00BFFFF779FB0346002BFAD063
:100BD0000D4B1B680D4AA2FB03239B091846FFF728
:100BE000ADFF0346002B00D0FEE7074B1B689B09B7
:100BF000074AA2FB03239B0A064A1360014B01220A
:100C00001A7080BD28B7002008B70020D34D6210AD
:100C1000179165022CB7002080B582B000AF7860D4
:100C20000B46FB707B681B4A934204D1FB78184645
:100C300000F066F82BE07B68174A934204D1FB78FA
:100C4000184600F0DBF822E07B68144A934204D196
:100C5000FB78184600F080F919E07B68104A93424F
:100C600004D1FB78184600F0F5F910E07B680D4AD6
:100C7000934204D1FB78184600F068FA07E07B68DD
:100C8000094A934203D1FB78184600F0EBFA083783
:100C9000BD4680BD0030014000380040003C0040AF
:100CA00000340140005001400054014080B582B042
:100CB00000AF78600B46FB70FB789AB27B689A8134
:100CC00000BF7868022101F0C9F80346002BF8D074
:100CD00000BF7868012101F0C1F80346002BF8D06D
:100CE00000BF7868802101F0B9F80346002BF8D1E5
:100CF0007B689B899BB2DBB218460837BD4680BD36
:100D000080B58AB000AF0346FB71002387F8263018
:100D1000002387F82730032387F82530022387F83C
:100D20002430FB79002B1BD101200121FFF798FB18
:100D3000E0233B6207F120032D48194600F054FEE2
:100D40002B480521052200F0F9FE2948062105223D
:100D500000F0F4FE26480721052200F0EFFE1DE01A
:100D6000FB79012B1AD102200121FFF779FB3823EF
:100D70003B6207F120031F48194600F035FE1D486D
:100D80000321052200F0DAFE1A480421052200F0B2
:100D9000D5FE18480521052200F0D0FE4FF4805002
:100DA0000121FFF799FB07F10C03184601F012F837
:100DB00020233B8300233B820023BB8100237B83D2
:100DC0004FF48273FB8100237B820023BB824FF4AC
:100DD0000073FB8207F10C030748194600F0B6FFC9
:100DE0000548012101F01AF82837BD4680BD00BF33
:100DF00000000240000402400030014080B58AB08B
:100E000000AF0346FB71002387F82630012387F8E3
:100E10002730032387F82530022387F82430FB7915
:100E2000002B28D102200121FFF71AFB0420012109
:100E3000FFF716FB0C233B6207F1200342481946DB
:100E400000F0D2FD4FF480633B6207F120033F487E
:100E5000194600F0C9FD3C480221052200F06EFE53
:100E600039480321052200F069FE38480A2105228D
:100E700000F064FE3EE0FB79012B1CD10220012131
:100E8000FFF7EEFA4FF460433B6207F120032F486F
:100E9000194600F0A9FD2D480D21052200F04EFE57
:100EA0002A480E21052200F049FE28480F2105227C
:100EB00000F044FE1EE0FB79022B1BD14FF4807042
:100EC0000121FFF7CDFA0D233B6207F120031F48F4
:100ED000194600F089FD1E480021052200F02EFE73
:100EE0001B480221052200F029FE19480321052292
:100EF00000F024FE4FF480400121FFF7CFFA07F104
:100F00000C03184600F066FF20233B8300233B823E
:100F10000023BB8100237B834FF48273FB8100237A
:100F20007B820023BB824FF40073FB8207F10C032A
:100F30000848194600F00AFF0648012100F06EFF3C
:100F40002837BD4680BD00BF0008024000040240B3
:100F5000002002400038004080B58AB000AF034650
:100F6000FB71002387F82630002387F827300323FE
:100F700087F82530022387F82430FB79002B1BD11A
:100F800002200121FFF76CFA38233B6207F12003AE
:100F90002D48194600F028FD2B480321062200F0B9
:100FA000CDFD29480421062200F0C8FD2648052170
:100FB000062200F0C3FD1EE0FB79012B1BD10420AB
:100FC0000121FFF74DFA4FF4E0533B6207F1200394
:100FD0001E48194600F008FD1C480A21062200F0B0
:100FE000ADFD1A480B21062200F0A8FD17480C2180
:100FF000062200F0A3FD4FF400400121FFF74EFA56
:1010000007F10C03184600F0E5FE20233B83002384
:101010003B820023BB8100237B834FF48273FB81DF
:1010200000237B820023BB824FF40073FB8207F115
:101030000C030748194600F089FE0548012100F01D
:10104000EDFE2837BD4680BD000402400008024086
:10105000003C004080B58AB000AF0346FB7100231E
:1010600087F82630002387F82730032387F82530B8
:10107000022387F82430FB79002B1BD1102001219B
:10108000FFF7EEF964233B6207F120032D48194670
:1010900000F0AAFC2B480221052200F04FFD294850
:1010A0000521052200F04AFD26480621052200F010
:1010B00045FD1EE0FB79012B1BD110200121FFF71C
:1010C000CFF94FF4E0433B6207F120031D48194676
:1010D00000F08AFC1B480C21052200F02FFD194866
:1010E0000D21052200F02AFD16480E21052200F0F0
:1010F00025FD4FF400500121FFF7EEF907F10C0335
:10110000184600F067FE20233B8300233B82002328
:10111000BB8100237B834FF48273FB8100237B829E
:101120000023BB824FF40073FB8207F10C030648D7
:10113000194600F00BFE0448012100F06FFE28372D
:10114000BD4680BD001002400034014080B58AB029
:1011500000AF0346FB71002387F82630002387F891
:101160002730032387F82530022387F82430FB79C2
:10117000002B1CD120200121FFF772F94FF460737E
:101180003B6207F120033448194600F02DFC324839
:101190000721052200F0D2FC2F480821052200F08B
:1011A000CDFC2D480921052200F0C8FC2AE0FB797E
:1011B000012B27D120200121FFF752F980200121A6
:1011C000FFF74EF9C0233B6207F12003224819467E
:1011D00000F00AFC4FF400633B6207F120031E4855
:1011E000194600F001FC1C480B21052200F0A6FC6A
:1011F0001A480621052200F0A1FC18480721052203
:1012000000F09CFC4FF480100121FFF765F907F115
:101210000C03184600F0DEFD20233B8300233B82B5
:101220000023BB8100237B834FF48273FB81002367
:101230007B820023BB824FF40073FB8207F10C0317
:101240000748194600F082FD0548012100F0E6FD3F
:101250002837BD4680BD00BF00140240001C02407C
:101260000050014080B58AB000AF0346FB714020BA
:101270000121FFF7F5F8002387F82630002387F8CF
:101280002730032387F82530022387F824304FF4D2
:10129000E0433B6207F120031D48194600F0A4FB20
:1012A0001B480D21052200F049FC19480C2105229C
:1012B00000F044FC16480E21052200F03FFC4FF4DC
:1012C00000100121FFF708F907F10C03184600F0A0
:1012D00081FD20233B8300233B820023BB8100232D
:1012E0007B834FF48273FB8100237B820023BB82CC
:1012F0004FF40073FB8207F10C030648194600F017
:1013000025FD0448012100F089FD2837BD4680BD38
:10131000001802400054014080B588B000AFF8606A
:101320000B467A60FB72FB683C4A934220D14FF433
:1013300000100121FFF7B2F8FB7A184600F076F8AA
:10134000374B1A687B689A4202D9354A7B6813602A
:10135000334B1B683B614FF48043BB830023BB824C
:1013600000233B8300237B834BF6FF73FB8248E023
:10137000FB682C4A934220D14FF480000121FFF7F3
:101380008DF8FB7A184600F09FF8254B5A687B6869
:101390009A4202D9224A7B685360214B5B683B61C9
:1013A0004FF48043BB830023BB8200233B83002395
:1013B0007B834BF6FF73FB8223E0FB681A4A934260
:1013C0001FD14FF400000121FFF768F8FB7A18469F
:1013D00000F0DEF8124B9A687B689A4202D9104AF4
:1013E0007B6893600E4B9B683B614FF48043BB83EB
:1013F0000023BB8200233B8300237B834BF6FF73D8
:10140000FB8207F11003F868194600F043FDF86805
:10141000012100F001FE2037BD4680BD0054004090
:10142000FCB6002000580040005C004080B584B04D
:1014300000AF0346FB7102200121FFF711F80223E0
:101440003B730123BB730123FB7303237B73FB7982
:10145000002B0CD1C023BB601A480621042200F0E7
:101460006DFB18480721042200F068FB20E0FB799F
:10147000012B0DD14FF44073BB60124808210422A8
:1014800000F05CFB0F480921042200F057FB0FE03D
:10149000FB79022B0CD14FF41073BB600948062175
:1014A000042200F04BFB07480921042200F046FB10
:1014B00007F108030348194600F096FA1037BD46B5
:1014C00080BD00BF0004024080B584B000AF034679
:1014D000FB7102233B730123BB730123FB730323C3
:1014E0007B73FB79002B17D102200121FEF7B8FF97
:1014F0004FF44063BB6023480A21042200F01EFB26
:1015000020480B21042200F019FB07F108031D48B5
:10151000194600F069FA32E0FB79012B16D1202040
:101520000121FEF79DFF0323BB6017480021042221
:1015300000F004FB14480121042200F0FFFA07F137
:1015400008031148194600F04FFA18E0FB79022B06
:1015500015D180200121FEF783FF3023BB600B48AB
:101560000421042200F0EAFA08480521042200F0D0
:10157000E5FA07F108030548194600F035FA103777
:10158000BD4680BD0004024000140240001C024021
:1015900080B584B000AF0346FB7102233B73012387
:1015A000BB730123FB7303237B73FB79002B24D1D3
:1015B00001200121FEF754FF04200121FEF750FF16
:1015C0001C480821042200F0B9FA1B480921042212
:1015D00000F0B4FA4FF48073BB6007F108031548BC
:1015E000194600F001FA4FF40073BB6007F10803DD
:1015F0001148194600F0F8F913E0FB79012B10D1DE
:1016000080200121FEF72CFF4FF4C073BB600B4814
:101610000721042200F092FA08480821042200F071
:101620008DFA07F108030548194600F0DDF9103777
:10163000BD4680BD0000024000080240001C024080
:1016400080B584B000AF78600B46FB701346BB706A
:10165000FB78786819460022002300F081F8BB78F7
:101660007868194600F006F9786800F087F9FB7889
:10167000786819460122002300F072F8786800F0BB
:101680004DF90346FB73FB7B18461037BD4680BD02
:1016900080B582B000AF7860084611461A4603460E
:1016A000FB700B46BB7013467B70FB78786819465D
:1016B0000022002300F054F8BB787868194600F047
:1016C000D9F87B787868194600F0D4F8786800F08B
:1016D00055F90837BD4680BD90B587B000AFF860BA
:1016E0007B600B46FB721346BB72FB7AF8681946A7
:1016F0000022012300F034F8BB7AF868194600F0A4
:10170000B9F8F86800F03AF9FB7AF868194601224E
:10171000012300F025F80023FB7518E0FA7D3B8DCE
:10172000013B9A4208D1FB7D7A68D418F86800F032
:10173000F5F80346237007E0FB7D7A68D418F86853
:1017400000F0C0F803462370FB7D0133FB75FB7D81
:101750009BB23A8D9A42E1D81C37BD4690BD00BF7E
:1017600080B582B000AF7860084611461A4603463D
:10177000FB700B46BB7013467B707868012100F04C
:101780006BFC374B44F620621A600AE0344B1B684E
:10179000013B334A1360324B1B68002B01D10123FC
:1017A00058E078682F4900F023FD0346002B03D151
:1017B0002B4B1B68002BE9D17B78002B03D02A48E8
:1017C000012100F0A7FCFA78BB78786811461A4628
:1017D00000F082FCBB78002B1BD1214B44F6206229
:1017E0001A600AE01E4B1B68013B1D4A13601C4B2C
:1017F0001B68002B01D101232CE078681B4900F005
:10180000F7FC0346002B22D1154B1B68002BE9D1B6
:101810001DE0BB78012B1AD1114B44F620621A60EF
:101820000AE00F4B1B68013B0D4A13600C4B1B6811
:10183000002B01D101230DE078680D4900F0A8FCD0
:101840000346002B03D1064B1B68002BE9D17B68B4
:101850001B8B00231BB218460837BD4680BD00BF56
:1018600030B70020010000100054004002000010BA
:101870000200030080B582B000AF78600B46FB70B9
:101880000E4B44F620621A6004E00C4B1B68013BCF
:101890000A4A136078680A4900F0AAFC0346002B44
:1018A00003D1064B1B68002BEFD1FB7878681946F3
:1018B00000F050FC0837BD4680BD00BF30B70020A7
:1018C0008000001080B584B000AF78607868012196
:1018D00000F020FC0F4B44F620621A6004E00D4B30
:1018E0001B68013B0B4A136078680B4900F050FC01
:1018F0000346002B03D1074B1B68002BEFD1786800
:1019000000F038FC0346FB73FB7B18461037BD46DE
:1019100080BD00BF30B700204000030080B584B018
:1019200000AF78607868002100F0F4FB786801214E
:1019300000F0B2FB0F4B44F620621A6004E00D4B3E
:101940001B68013B0B4A136078680B4900F020FCD0
:101950000346002B03D1074B1B68002BEFD178689F
:1019600000F008FC0346FB73FB7B18461037BD46AE
:1019700080BD00BF30B700204000030080B582B0BA
:1019800000AF7860154B44F620621A600AE0134BF2
:101990001B68013B114A1360104B1B68002B01D1DF
:1019A000012316E078680E4900F022FC0346002B64
:1019B00006D078680B4900F01BFC0346002B03D1CE
:1019C000064B1B68002BE2D17868012100F064FB14
:1019D000002318460837BD4680BD00BF30B7002041
:1019E000800000100400001080B487B000AF786061
:1019F000396000237B6100233B610023FB600023EF
:101A00007B6176E07B69012202FA03F33B613B686C
:101A10001A683B691340FB60FA683B699A4265D1DA
:101A20007B681A687B695B00194603238B40DB43A4
:101A30001A407B681A607B681A683B681B791946F4
:101A40007B695B0001FA03F31A437B681A603B6809
:101A50001B79012B03D03B681B79022B2ED17B68AD
:101A60009A687B695B00194603238B40DB431A406D
:101A70007B689A607B689A683B685B7919467B69EA
:101A80005B0001FA03F31A437B689A607B685A682B
:101A90007B699BB2194601238B40DB431A407B686C
:101AA0005A607B685B683A68927911467A6992B2AB
:101AB00001FA02F292B21A437B685A607B68DA68D4
:101AC0007B699BB25B00032101FA03F3DB431A40FD
:101AD0007B68DA607B68DA683B68DB7919467B698A
:101AE0005B0001FA03F31A437B68DA607B69013318
:101AF0007B617B690F2B85D91C37BD465DF8047B64
:101B0000704700BF80B483B000AF78600B467B8025
:101B10007B687A881A830C37BD465DF8047B704772
:101B200080B483B000AF78600B467B807B687A8896
:101B30005A830C37BD465DF8047B704780B485B08E
:101B400000AF78600B467B8013467B700023FB6000
:101B50000023BB607B787A8802F0070292009340F2
:101B6000FB607B88DB089BB218467B88DB089BB256
:101B70001A467B68083253F822207B8803F007035B
:101B80009B0019460F238B40DB4302EA03017B686D
:101B900000F1080243F822107B88DB089BB21A464A
:101BA0007B68083253F82220FB681343BB607B88B4
:101BB000DB089BB21A467B680832B96843F82210EA
:101BC0001437BD465DF8047B704700BF80B500AF99
:101BD000114A114B1B6843F0010313600E4B0022A6
:101BE0009A600D4A0C4B1B6823F0847323F48033F6
:101BF0001360094B094A5A60074A074B1B6823F4D4
:101C000080231360044B0022DA6000F00BF8044BD1
:101C10004FF000629A6080BD00380240103000240E
:101C200000ED00E080B483B000AF00237B600023B0
:101C30003B60424A414B1B6843F4803313603F4B87
:101C40001B6803F400333B607B6801337B603B68B7
:101C5000002B03D17B68B3F5A04FF0D1374B1B6845
:101C600003F40033002B02D001233B6001E000238A
:101C70003B603B68012B5CD1304A304B1B6C43F01E
:101C8000805313642E4A2E4B1B6843F44043136069
:101C90002A4A2A4B9B689360284A284B9B6843F446
:101CA00000439360254A254B9B6843F4A0539360FF
:101CB000224B244A5A60214A204B1B6843F0807310
:101CC000136000BF1D4B1B6803F00073002BF9D09D
:101CD0001B4A1B4B1B6843F48033136000BF184B37
:101CE0005B6803F48033002BF9D0154A144B1B6852
:101CF00043F40033136000BF114B5B6803F40033FF
:101D0000002BF9D0104B40F205721A600B4A0B4BB6
:101D10009B6823F003039360084A084B9B6843F0D9
:101D20000203936000BF054B9B6803F00C03082B74
:101D3000F9D10C37BD465DF8047B7047003802408E
:101D400000700040085A4007003C024080B485B053
:101D500000AF786039600023FB817B681B88FB81C2
:101D6000FB8903F44153FB813B681A883B685B881D
:101D700013439AB23B689B8813439AB23B68DB8853
:101D800013439AB23B681B8913439AB23B685B8941
:101D900013439AB23B689B8913439AB23B68DB8931
:101DA00013439AB2FB891343FB817B68FA891A803B
:101DB0007B689B8B9BB223F400639AB27B689A8307
:101DC0003B681A8A7B681A821437BD465DF8047B2B
:101DD000704700BF80B483B000AF78607B6800229A
:101DE0001A807B6800225A807B6800229A807B6878
:101DF0000022DA807B6800221A817B6800225A81E7
:101E00007B6800229A817B680022DA817B68072246
:101E10001A820C37BD465DF8047B704780B483B0EE
:101E200000AF78600B46FB70FB78002B08D07B6816
:101E30001B889BB243F040039AB27B681A8007E08C
:101E40007B681B889BB223F040039AB27B681A80A0
:101E50000C37BD465DF8047B704700BF80B485B089
:101E600000AF78600B467B800023FB737B681B8987
:101E70009AB27B8813409BB2002B02D00123FB73E4
:101E800001E00023FB73FB7B18461437BD465DF869
:101E9000047B704780B58AB000AF7860396000235A
:101EA000FB8400237B840423BB84574BFB617B684A
:101EB0009B88FB84FB8C23F03F03FB8407F10C031E
:101EC0001846FEF723FA7B69FB61FB694F4AA2FBC8
:101ED00003239B0C7B84FA8C7B8C1343FB847B68F1
:101EE000FA8C9A807B681B889BB223F001039AB21C
:101EF0007B681A800023FB843B681B68444A93423A
:101F000015D83B681B685B00FA69B2FBF3F3BB842E
:101F1000BB8C032B01D80423BB84FA8CBB8C1343EA
:101F2000FB847B8C01339AB27B681A8440E03B6867
:101F3000DB884BF6FF72934209D13B681A6813465F
:101F40005B001344FA69B2FBF3F3BB840EE03B6819
:101F50001A6813469B0013449A001344FA69B2FBB3
:101F6000F3F3BB84BB8C43F48043BB84BB8CC3F3CF
:101F70000B03002B03D1BB8C43F00103BB84BA8C51
:101F8000FB8C13439BB26FEA43436FEA5343FB84DA
:101F90007B8C4FF4967202FB03F31E4A82FB031202
:101FA0009211DB17D31A9BB201339AB27B681A8461
:101FB0007B68FA8C9A837B681B889BB243F0010391
:101FC0009AB27B681A807B681B88FB84FB8C23F4A5
:101FD000816323F00203FB843B689A883B685B893A
:101FE00013439AB2FB8C1343FB847B68FA8C1A80F0
:101FF0003B689A893B681B8913439AB27B681A81B4
:102000002837BD4680BD00BF00127A0083DE1B4327
:10201000A0860100D34D621080B483B000AF786019
:102020000B46FB70FB78002B08D07B681B889BB2AB
:1020300043F001039AB27B681A8007E07B681B8833
:102040009BB223F001039AB27B681A800C37BD461D
:102050005DF8047B704700BF80B483B000AF786048
:102060000B46FB70FB78002B08D07B681B889BB26B
:1020700043F480739AB27B681A8007E07B681B8800
:102080009BB223F480739AB27B681A800C37BD46EA
:102090005DF8047B704700BF80B483B000AF786008
:1020A0000B46FB70FB78002B08D07B681B889BB22B
:1020B00043F400739AB27B681A8007E07B681B8840
:1020C0009BB223F400739AB27B681A800C37BD462A
:1020D0005DF8047B704700BF80B483B000AF7860C8
:1020E0000B46FB701346BB70BB78002B04D0FB780B
:1020F00043F00103FB7003E0FB7823F00103FB7066
:10210000FB789AB27B681A820C37BD465DF8047B77
:10211000704700BF80B483B000AF78600B46FB709F
:10212000FB78002B08D07B681B889BB243F480634C
:102130009AB27B681A8007E07B681B889BB223F405
:1021400080639AB27B681A800C37BD465DF8047BC9
:10215000704700BF80B483B000AF78600B46FB705F
:10216000FB789AB27B681A820C37BD465DF8047B17
:10217000704700BF80B483B000AF78607B681B8A73
:102180009BB2DBB218460C37BD465DF8047B704746
:1021900080B487B000AF7860396000233B610023D2
:1021A000FB600023BB600023FB757B689B8A9BB2AE
:1021B000FB607B681B8B9BB2BB60BB681B04BB6076
:1021C000FA68BB68134323F07F433B613A693B687D
:1021D0001A403B689A4202D10123FB7501E00023BB
:1021E000FB75FB7D18461C37BD465DF8047B7047C8
:1021F00080B487B000AF786039600023FB7500239E
:102200003B610023FB607B68FB603B681B0F3B610D
:102210003B6823F07F433B603B69002B03D0FB68A6
:102220001433FB6005E03B681B0C3B60FB68183314
:10223000FB60FB681A683B681340002B02D0012347
:10224000FB7501E00023FB75FB7D18461C37BD467E
:102250005DF8047B704700BF80B582B000AF0820F6
:102260000121FEF7FDF84FF400533B6002237B7120
:1022700001233B710023BB710023FB713B461F48C8
:102280001946FFF7B1FB04200121FEF7E9F804230A
:102290003B603B461A481946FFF7A6FB0820012180
:1022A000FEF7DEF80123FB714FF480533B603B46A1
:1022B00012481946FFF798FB11480421FFF722FC4A
:1022C00010480021FEF7A8FC00F024F80E4B002275
:1022D0001A800D4B1A880D4B1A800D4BF0221A8074
:1022E0000B4B4FF4A0725A80094B01221A714FF622
:1022F000FF7000F0E7F90837BD4680BD000C0240D2
:1023000000080240005001403EB7002034B70020D2
:1023100038B7002080B500AF92484FF48051FFF7E6
:10232000F1FB012000F024F98F4800F0FFF9CB20E9
:1023300000F01EF9392000F03BF92C2000F038F9AC
:10234000002000F035F9342000F032F9022000F0CE
:102350002FF9CF2000F00CF9002000F029F9C1205E
:1023600000F026F9302000F023F9E82000F000F911
:10237000852000F01DF9002000F01AF9782000F007
:1023800017F9EA2000F0F4F8002000F011F900201D
:1023900000F00EF9ED2000F0EBF8642000F008F9F1
:1023A000032000F005F9122000F002F9812000F06E
:1023B000FFF8F72000F0DCF8202000F0F9F8C0204A
:1023C00000F0D6F8232000F0F3F8C12000F0D0F898
:1023D000102000F0EDF8C52000F0CAF83E2000F013
:1023E000E7F8282000F0E4F8C72000F0C1F88620C4
:1023F00000F0DEF8362000F0BBF8482000F0D8F8F6
:102400003A2000F0B5F8552000F0D2F8B12000F0E5
:10241000AFF8002000F0CCF8182000F0C9F8B62082
:1024200000F0A6F8082000F0C3F8822000F0C0F801
:10243000272000F0BDF8F22000F09AF8002000F00C
:10244000B7F82A2000F094F8002000F0B1F800203E
:1024500000F0AEF8002000F0ABF8EF2000F0A8F894
:102460002B2000F085F8002000F0A2F8002000F0FA
:102470009FF8012000F09CF83F2000F099F82620FA
:1024800000F076F8012000F093F8E02000F070F8FA
:102490000F2000F08DF8312000F08AF82B2000F09A
:1024A00087F80C2000F084F80E2000F081F8082056
:1024B00000F07EF84E2000F07BF8F12000F078F874
:1024C000372000F075F8072000F072F8102000F0B7
:1024D0006FF8032000F06CF80E2000F069F8092076
:1024E00000F066F8002000F063F8E12000F040F80A
:1024F000002000F05DF80E2000F05AF8142000F0E3
:1025000057F8032000F054F8112000F051F807208C
:1025100000F04EF8312000F04BF8C12000F048F8F0
:10252000482000F045F8082000F042F80F2000F0A5
:102530003FF80C2000F03CF8312000F039F836204C
:1025400000F036F80F2000F033F8112000F010F8FA
:10255000064800F0EBF8292000F00AF82C2000F0E3
:1025600007F880BD000C024080841E0040420F002E
:1025700080B582B000AF0346FB710A484FF40051AA
:10258000FFF7CEFA08480421FFF7CAFAFB7907489B
:102590001946FEF78BFB04480421FFF7B3FA08370E
:1025A000BD4680BD000C02400008024000500140C2
:1025B00080B582B000AF0346FB710A484FF400516A
:1025C000FFF7A0FA08480421FFF7AAFAFB790748A9
:1025D0001946FEF76BFB04480421FFF793FA08370E
:1025E000BD4680BD000C0240000802400050014082
:1025F00080B582B000AF0346FB800B46BB8013461C
:102600007B80F888B988FA88BB8800F013F82C2002
:10261000FFF7AEFF7B881B0A9BB2DBB21846FFF7C1
:10262000C7FF7B88DBB21846FFF7C2FF0837BD46FD
:1026300080BD00BF90B583B000AF04460846114688
:102640001A462346FB800346BB800B467B8013461D
:102650003B802A20FFF78CFFFB881B0A9BB2DBB272
:102660001846FFF7A5FFFB88DBB21846FFF7A0FF6F
:102670007B881B0A9BB2DBB21846FFF799FF7B8869
:10268000DBB21846FFF794FF2B20FFF771FFBB88E2
:102690001B0A9BB2DBB21846FFF78AFFBB88DBB28E
:1026A0001846FFF785FF3B881B0A9BB2DBB2184632
:1026B000FFF77EFF3B88DBB21846FFF779FF0C3748
:1026C000BD4690BD80B586B000AF0346FB80FB8859
:1026D0001B0A9BB23B61FB88DBB2FB60124B1B8881
:1026E000013B9AB2104B5B88013B9BB2002000215A
:1026F000FFF7A0FF2C20FFF73BFF00237B610CE0DE
:102700003B69DBB21846FFF753FFFB68DBB21846A4
:10271000FFF74EFF7B6901337B617B69B3F5963F21
:10272000EED31837BD4680BD38B7002080B483B0E3
:1027300000AF786002E07B68013B7B607B68002B28
:10274000F9D10C37BD465DF8047B704780B582B087
:1027500000AF0346FB713620FFF70AFFFB79002B21
:1027600003D15820FFF724FF13E0FB79012B03D19D
:102770008820FFF71DFF0CE0FB79022B03D12820F6
:10278000FFF716FF05E0FB79032B02D1E820FFF7E6
:102790000FFFFB79002B02D0FB79012B0AD10C4BE8
:1027A000F0221A800A4B4FF4A0725A80084B012283
:1027B0001A7109E0064B4FF4A0721A80044BF02204
:1027C0005A80034B00221A710837BD4680BD00BFF6
:1027D00038B7002090B587B000AF044608461146D0
:1027E0001A462346FB800346BB800B467B8013467C
:1027F0003B80504B1B88FA889A4203D34D4B1B8871
:10280000013BFB804B4B1B887A889A4203D3494B90
:102810001B88013B7B80474B5B88BA889A4203D375
:10282000444B5B88013BBB80424B5B883A889A42B1
:1028300003D3404B5B88013B3B80FA887B889A42FC
:1028400005D27A88FB88D31A9BB29BB204E0FA883F
:102850007B88D31A9BB29BB2BB82BA883B889A42D0
:1028600005D23A88BB88D31A9BB29BB204E0BA88DF
:102870003B88D31A9BB29BB27B82FA887B889A42B0
:1028800001D2012301E04FF6FF733B82BA883B88F7
:102890009A4201D2012301E04FF6FF73FB81B7F9A1
:1028A0001420B7F912309A4206DDB7F91430DA0F66
:1028B00013445B109BB206E0B7F912305B42DA0FAB
:1028C00013445B109BB2FB82F988BA883B8D0846A3
:1028D00011461A46FFF78CFEFA887B889A4204D18B
:1028E000BA883B889A4200D121E0FB8ABB81B7F9C4
:1028F0000C20B7F914305B429A4208DDFA8A7B8AD1
:10290000D31A9BB2FB823A8AFB881344FB80B7F947
:102910000C20B7F912309A4208DAFA8ABB8A1344BB
:102920009BB2FB82FA89BB881344BB80CCE71C377F
:10293000BD4690BD38B7002081F0004102E000BFE5
:1029400083F0004330B54FEA41044FEA430594EA6F
:10295000050F08BF90EA020F1FBF54EA000C55EAAA
:10296000020C7FEA645C7FEA655C00F0E2804FEA7B
:102970005454D4EB5555B8BF6D420CDD2C4480EA5D
:10298000020281EA030382EA000083EA010180EA8D
:10299000020281EA0303362D88BF30BD11F0004FDB
:1029A0004FEA01314FF4801C4CEA113102D0404211
:1029B00061EB410113F0004F4FEA03334CEA13334C
:1029C00002D0524263EB430394EA050F00F0A78064
:1029D000A4F10104D5F1200E0DDB02FA0EFC22FA5F
:1029E00005F2801841F1000103FA0EF2801843FA53
:1029F00005F359410EE0A5F120050EF1200E012A44
:102A000003FA0EFC28BF4CF0020C43FA05F3C01881
:102A100051EBE37101F0004507D54FF0000EDCF1FA
:102A2000000C7EEB00006EEB0101B1F5801F1BD3A3
:102A3000B1F5001F0CD349085FEA30004FEA3C0CA7
:102A400004F101044FEA445212F5800F80F09A809D
:102A5000BCF1004F08BF5FEA500C50F1000041EBA1
:102A6000045141EA050130BD5FEA4C0C404141EBA5
:102A7000010111F4801FA4F10104E9D191F0000FCC
:102A800004BF01460020B1FA81F308BF2033A3F14F
:102A90000B03B3F120020CDA0C3208DD02F1140C46
:102AA000C2F10C0201FA0CF021FA02F10CE002F181
:102AB0001402D8BFC2F1200C01FA02F120FA0CFC7A
:102AC000DCBF41EA0C019040E41AA2BF01EB0451C3
:102AD000294330BD6FEA04041F3C1CDA0C340EDCC1
:102AE00004F11404C4F1200220FA04F001FA02F304
:102AF00040EA030021FA04F345EA030130BDC4F1C2
:102B00000C04C4F1200220FA02F001FA04F340EAB6
:102B10000300294630BD21FA04F0294630BD94F067
:102B2000000F83F4801306BF81F480110134013D4E
:102B30004EE77FEA645C18BF7FEA655C29D094EABF
:102B4000050F08BF90EA020F05D054EA000C04BF3D
:102B50001946104630BD91EA030F1EBF0021002028
:102B600030BD5FEA545C05D14000494128BF41F0C7
:102B7000004130BD14F580043CBF01F5801130BD2B
:102B800001F0004545F0FE4141F470014FF00000B6
:102B900030BD7FEA645C1ABF194610467FEA655C67
:102BA0001CBF0B46024650EA013406BF52EA033509
:102BB00091EA030F41F4002130BD00BF90F0000FF7
:102BC00004BF0021704730B54FF4806404F1320433
:102BD0004FF000054FF0000150E700BF90F0000FEC
:102BE00004BF0021704730B54FF4806404F1320413
:102BF00010F0004548BF40424FF000013EE700BFE3
:102C000042004FEAE2014FEA31014FEA02701FBF72
:102C100012F07F4393F07F4F81F06051704792F044
:102C2000000F14BF93F07F4F704730B54FF46074BE
:102C300001F0004521F0004120E700BF50EA010209
:102C400008BF704730B54FF000050AE050EA0102B6
:102C500008BF704730B511F0004502D5404261EB26
:102C600041014FF4806404F132045FEA915C3FF467
:102C7000DCAE4FF003025FEADC0C18BF03325FEA00
:102C8000DC0C18BF033202EBDC02C2F1200300FAB5
:102C900003FC20FA02F001FA03FE40EA0E0021FADA
:102CA00002F11444C1E600BF70B54FF0FF0C4CF4C4
:102CB000E06C1CEA11541DBF1CEA135594EA0C0F7A
:102CC00095EA0C0F00F0DEF82C4481EA030621EAB5
:102CD0004C5123EA4C5350EA013518BF52EA0335F0
:102CE00041F4801143F4801338D0A0FB02CE4FF0A2
:102CF0000005E1FB02E506F00042E0FB03E54FF0D2
:102D00000006E1FB03569CF0000F18BF4EF0010EC9
:102D1000A4F1FF04B6F5007F64F5407404D25FEAC5
:102D20004E0E6D4146EB060642EAC62141EA555178
:102D30004FEAC52040EA5E504FEACE2EB4F1FD0CBA
:102D400088BFBCF5E06F1ED8BEF1004F08BF5FEA38
:102D5000500E50F1000041EB045170BD06F00046EA
:102D600046EA010140EA020081EA0301B4EB5C0497
:102D7000C2BFD4EB0C0541EA045170BD41F480118F
:102D80004FF0000E013C00F3AB8014F1360FDEBFB4
:102D9000002001F0004170BDC4F10004203C35DA90
:102DA0000C341BDC04F11404C4F1200500FA05F313
:102DB00020FA04F001FA05F240EA020001F00042B4
:102DC00021F0004110EBD37021FA04F642EB06012A
:102DD0005EEA430E08BF20EAD37070BDC4F10C0454
:102DE000C4F1200500FA04F320FA05F001FA04F218
:102DF00040EA020001F0004110EBD37041F1000104
:102E00005EEA430E08BF20EAD37070BDC4F120050E
:102E100000FA05F24EEA020E20FA04F301FA05F276
:102E200043EA020321FA04F001F0004121FA04F21E
:102E300020EA020000EBD3705EEA430E08BF20EAEE
:102E4000D37070BD94F0000F0FD101F00046400028
:102E500041EB010111F4801F08BF013CF7D041EAAA
:102E6000060195F0000F18BF704703F000465200AE
:102E700043EB030313F4801F08BF013DF7D043EA7F
:102E80000603704794EA0C0F0CEA135518BF95EA35
:102E90000C0F0CD050EA410618BF52EA4306D1D1BC
:102EA00081EA030101F000414FF0000070BD50EADB
:102EB000410606BF1046194652EA430619D094EA65
:102EC0000C0F02D150EA013613D195EA0C0F05D14F
:102ED00052EA03361CBF104619460AD181EA0301A3
:102EE00001F0004141F0FE4141F470014FF000005B
:102EF00070BD41F0FE4141F4780170BD70B54FF0F6
:102F0000FF0C4CF4E06C1CEA11541DBF1CEA135575
:102F100094EA0C0F95EA0C0F00F0A7F8A4EB050457
:102F200081EA030E52EA03354FEA013100F088804E
:102F30004FEA03334FF0805545EA131343EA126317
:102F40004FEA022245EA111545EA10654FEA0026CC
:102F50000EF000419D4208BF964244F1FD0404F585
:102F6000407402D25B084FEA3202B61A65EB0305E1
:102F70005B084FEA32024FF480104FF4002CB6EB9E
:102F8000020E75EB030E22BFB61A754640EA0C001E
:102F90005B084FEA3202B6EB020E75EB030E22BF5E
:102FA000B61A754640EA5C005B084FEA3202B6EB9F
:102FB000020E75EB030E22BFB61A754640EA9C005E
:102FC0005B084FEA3202B6EB020E75EB030E22BF2E
:102FD000B61A754640EADC0055EA060E18D04FEAEC
:102FE000051545EA16754FEA06164FEAC30343EA8C
:102FF00052734FEAC2025FEA1C1CC0D111F4801F59
:103000000BD141EA00014FF000004FF0004CB6E751
:1030100011F4801F04BF01430020B4F1FD0C88BFF0
:10302000BCF5E06F3FF6AFAEB5EB030C04BFB6EBFB
:10303000020C5FEA500C50F1000041EB045170BDEE
:103040000EF0004E4EEA113114EB5C04C2BFD4EB1B
:103050000C0541EA045170BD41F480114FF0000E9F
:10306000013C90E645EA060E8DE60CEA135594EA1B
:103070000C0F08BF95EA0C0F3FF43BAF94EA0C0F1E
:103080000AD150EA01347FF434AF95EA0C0F7FF493
:1030900025AF104619462CE795EA0C0F06D152EAE7
:1030A00003353FF4FDAE1046194622E750EA4106CB
:1030B00018BF52EA43067FF4C5AE50EA41047FF4DC
:1030C0000DAF52EA43057FF4EBAE12E74A0011D28E
:1030D00012F5001211D20DD56FF47873B3EB625272
:1030E0000ED44FEAC12343F0004343EA505323FA7E
:1030F00002F070474FF00000704750EA013002D1F3
:0C3100004FF0FF3070474FF000007047A8
:10310C0000000000EF00000001000000EF000000D4
:10311C0002000000EF00000003000000EF000000C0
:10312C0004000000EF00000005000000EF000000AC
:10313C0006000000EF00000007000000EF00000098
:10314C0008000000EF00000009000000EF00000084
:10315C000A000000EF0000000B000000EF00000070
:10316C000C000000EF0000000D000000EF0000005C
:10317C000E000000EF0000000F000000EF00000048
:10318C0010000000EF00000011000000EF00000034
:10319C0012000000EF00000013000000EF00000020
:1031AC0014000000EF00000015000000EF0000000C
:1031BC0016000000EF00000017000000EF000000F8
:1031CC0018000000EF00000019000000EF000000E4
:1031DC001A000000EF0000001B000000EF000000D0
:1031EC001C000000EF0000001D0000002700000084
:1031FC001D000000280000001D0000002900000038
:10320C001D0000002A0000001D0000002B00000023
:10321C001D0000002C0000001D0000002D0000000F
:10322C001D0000002E0000001D0000002F000000FB
:10323C001D000000300000001D000000EF00000029
:10324C001E000000270000001E00000028000000E7
:10325C001E000000290000001E0000002A000000D3
:10326C001E0000002B0000001E0000002C000000BF
:10327C001E0000002D0000001E0000002E000000AB
:10328C001E0000002F0000001E0000003000000097
:10329C001E000000310000001E000000EF000000C6
:1032AC001F000000300000001F0000003100000073
:1032BC001F000000320000001F000000EF000000A3
:1032CC00200000003100000020000000320000004F
:1032DC0020000000EF000000210000003100000081
:1032EC00210000003200000021000000EF0000006F
:1032FC00220000003100000022000000320000001B
:10330C0022000000EF00000023000000310000004C
:10331C0023000000EF00000024000000300000003B
:10332C00240000003100000024000000EF00000029
:10333C0025000000270000002500000028000000E8
:10334C002500000029000000250000002A000000D4
:10335C00250000002B000000250000002C000000C0
:10336C00250000002D000000250000002E000000AC
:10337C00250000002F000000250000003000000098
:10338C002500000031000000250000003200000084
:10339C0025000000EF0000002600000027000000C0
:1033AC002600000028000000260000002900000074
:1033BC00260000002A000000260000002B00000060
:1033CC00260000002C000000260000002D0000004C
:1033DC00260000002E000000260000002F00000038
:1033EC002600000030000000260000003100000024
:1033FC00260000003200000026000000ED00000056
:10340C0026000000EE00000026000000EF00000087
:10341C0027000000EC00000027000000ED00000079
:10342C0027000000EE00000027000000EF00000065
:10343C0028000000EC00000028000000ED00000057
:10344C0028000000EF00000029000000EB00000045
:10345C0029000000EC00000029000000EF00000033
:10346C002A000000EA0000002A000000EB00000027
:10347C002A000000EC0000002A000000EF00000011
:10348C002B000000230000002B0000002400000093
:10349C002B000000250000002B000000260000007F
:1034AC002B000000270000002B000000280000006B
:1034BC002B000000290000002B0000002A00000057
:1034CC002B0000002B0000002B0000002C00000043
:1034DC002B0000002D0000002B0000002E0000002F
:1034EC002B0000002F0000002B000000300000001B
:1034FC002B000000310000002B0000003200000007
:10350C002B000000E90000002B000000EA00000086
:10351C002B000000EF0000002C0000002300000036
:10352C002C000000240000002C00000025000000EE
:10353C002C000000260000002C00000027000000DA
:10354C002C000000280000002C00000029000000C6
:10355C002C0000002A0000002C0000002B000000B2
:10356C002C0000002C0000002C0000002D0000009E
:10357C002C0000002E0000002C0000002F0000008A
:10358C002C000000300000002C0000003100000076
:10359C002C000000320000002C000000E9000000AC
:1035AC002C000000EA0000002C000000EF000000DE
:1035BC002D000000230000002D000000240000005E
:1035CC002D0000002A0000002D0000002B00000040
:1035DC002D000000E80000002D000000E9000000B4
:1035EC002D000000EF0000002E0000002300000062
:1035FC002E000000240000002E0000002A00000015
:10360C002E0000002B0000002E000000E700000040
:10361C002E000000E80000002E000000EF0000006B
:10362C002F000000230000002F00000024000000E9
:10363C002F0000002A0000002F0000002B000000CB
:10364C002F000000E70000002F000000E800000041
:10365C002F000000EF0000003000000023000000ED
:10366C003000000024000000300000002A000000A0
:10367C00300000002B00000030000000E6000000CD
:10368C0030000000E700000030000000EF000000F8
:10369C003100000023000000310000002400000075
:1036AC00310000002A000000310000002B00000057
:1036BC0031000000E600000031000000E7000000CF
:1036CC0031000000EF000000320000002300000079
:1036DC003200000024000000320000002A0000002C
:1036EC00320000002B00000032000000E50000005A
:1036FC0032000000E600000032000000E70000008D
:10370C0032000000EF000000330000002300000036
:10371C00330000002400000033000000E50000002E
:10372C0033000000E600000033000000EA00000057
:10373C0033000000EF00000034000000E500000042
:10374C0034000000E600000034000000EF00000030
:10375C0035000000E100000035000000E200000030
:10376C0035000000E300000035000000E40000001C
:10377C0035000000E500000035000000E600000008
:10378C0035000000EF000000360000002A000000A9
:10379C00360000002B000000360000002C0000005A
:1037AC00360000002D000000360000002E00000046
:1037BC00360000002F00000036000000DD00000085
:1037CC0036000000DE00000036000000E6000000BD
:1037DC0036000000EF000000370000002900000058
:1037EC00370000002A000000370000002B0000000A
:1037FC00370000002C000000370000002D000000F6
:10380C00370000002E000000370000002F000000E1
:10381C00370000003000000037000000DD00000021
:10382C0037000000DE00000037000000DF00000061
:10383C0037000000E000000037000000E10000004D
:10384C0037000000E200000037000000EF0000002D
:10385C00380000002800000038000000290000009B
:10386C00380000002A000000380000002F00000083
:10387C00380000003000000038000000310000006B
:10388C0038000000DF00000038000000E1000000FC
:10389C0038000000E200000038000000E3000000E7
:1038AC0038000000E400000038000000E5000000D3
:1038BC0038000000E600000038000000E7000000BF
:1038CC0038000000EF000000390000002700000065
:1038DC003900000028000000390000002900000019
:1038EC0039000000300000003900000031000000F9
:1038FC00390000003200000039000000E600000032
:10390C0039000000E700000039000000EF00000063
:10391C003A000000270000003A00000028000000D8
:10392C003A000000310000003A00000032000000B4
:10393C003A000000E20000003A000000E60000003F
:10394C003A000000E70000003A000000EF00000021
:10395C003B000000270000003B0000002800000096
:10396C003B000000310000003B0000003200000072
:10397C003B000000DD0000003B000000DE0000000A
:10398C003B000000DF0000003B000000E0000000F6
:10399C003B000000E10000003B000000E2000000E2
:1039AC003B000000E40000003B000000E5000000CC
:1039BC003B000000E60000003B000000E7000000B8
:1039CC003B000000EF0000003C000000270000005E
:1039DC003C000000280000003C000000310000000A
:1039EC003C000000320000003C000000DC00000045
:1039FC003C000000DD0000003C000000DE00000088
:103A0C003C000000E40000003C000000E500000069
:103A1C003C000000E60000003C000000E700000055
:103A2C003C000000EF0000003D00000027000000FB
:103A3C003D000000280000003D00000029000000AF
:103A4C003D000000300000003D000000310000008F
:103A5C003D000000320000003D000000DA000000D4
:103A6C003D000000DB0000003D000000DC00000019
:103A7C003D000000E50000003D000000E6000000F5
:103A8C003D000000EF0000003E0000002800000098
:103A9C003E000000290000003E0000002A0000004B
:103AAC003E0000002F0000003E000000300000002F
:103ABC003E000000310000003E000000D900000074
:103ACC003E000000DA0000003E000000EF000000A5
:103ADC003F000000290000003F0000002A00000009
:103AEC003F0000002B0000003F0000002C000000F5
:103AFC003F0000002D0000003F0000002E000000E1
:103B0C003F0000002F0000003F00000030000000CC
:103B1C003F000000B20000003F000000B3000000B6
:103B2C003F000000D70000003F000000D80000005C
:103B3C003F000000D90000003F000000EF00000033
:103B4C00400000002A000000400000002B00000094
:103B5C00400000002C000000400000002D00000080
:103B6C00400000002E000000400000002F0000006C
:103B7C0040000000A700000040000000A80000006A
:103B8C0040000000A900000040000000AA00000056
:103B9C0040000000AD00000040000000AE0000003E
:103BAC0040000000AF00000040000000B00000002A
:103BBC0040000000B100000040000000B200000016
:103BCC0040000000D700000040000000EF000000A3
:103BDC00410000009F00000041000000A000000018
:103BEC0041000000A100000041000000A200000004
:103BFC0041000000A300000041000000A4000000F0
:103C0C0041000000A500000041000000A6000000DB
:103C1C0041000000A700000041000000A8000000C7
:103C2C0041000000A900000041000000AA000000B3
:103C3C0041000000AB00000041000000AC0000009F
:103C4C0041000000AD00000041000000AE0000008B
:103C5C0041000000AF00000041000000B000000077
:103C6C0041000000B100000041000000B200000063
:103C7C0041000000B300000041000000B40000004F
:103C8C0041000000EF000000420000009B0000001B
:103C9C00420000009C00000042000000A000000058
:103CAC0042000000A100000042000000A60000003D
:103CBC0042000000A700000042000000A800000025
:103CCC0042000000A900000042000000AB00000010
:103CDC0042000000AC00000042000000AD000000FB
:103CEC0042000000AE00000042000000AF000000E7
:103CFC0042000000B000000042000000B1000000D3
:103D0C0042000000B200000042000000B3000000BE
:103D1C0042000000B400000042000000B5000000AA
:103D2C0042000000B600000042000000B700000096
:103D3C0042000000B800000042000000EB00000050
:103D4C0042000000EC00000042000000ED0000000A
:103D5C0042000000EF00000043000000950000004E
:103D6C004300000096000000430000009700000094
:103D7C0043000000AD00000043000000AE00000056
:103D8C0043000000AF00000043000000B000000042
:103D9C0043000000B100000043000000B20000002E
:103DAC0043000000B300000043000000B40000001A
:103DBC0043000000B500000043000000EC000000D0
:103DCC0043000000ED00000043000000EE00000086
:103DDC0043000000EF00000044000000270000003A
:103DEC0044000000280000004400000029000000EE
:103DFC00440000002A000000440000002B000000DA
:103E0C00440000002C000000440000002D000000C5
:103E1C00440000002E000000440000002F000000B1
:103E2C00440000003000000044000000310000009D
:103E3C00440000003200000044000000B300000009
:103E4C0044000000B400000044000000B500000075
:103E5C0044000000B800000044000000B90000005D
:103E6C0044000000BA00000044000000BB00000049
:103E7C0044000000EA00000044000000EB000000D9
:103E8C0044000000EF000000450000002700000087
:103E9C00450000002800000045000000290000003B
:103EAC00450000002A000000450000002B00000027
:103EBC00450000002C000000450000002D00000013
:103ECC00450000002E000000450000002F000000FF
:103EDC0045000000300000004500000031000000EB
:103EEC00450000003200000045000000EB0000001F
:103EFC0045000000EF000000460000002800000014
:103F0C004600000029000000460000002A000000C6
:103F1C0046000000880000004600000089000000F8
:103F2C0046000000E500000046000000E60000002E
:103F3C0046000000E700000046000000ED00000015
:103F4C0046000000EE00000046000000EF000000FC
:103F5C00470000002800000047000000E2000000BD
:103F6C0047000000E300000047000000E4000000F0
:103F7C0047000000E500000047000000E6000000DC
:103F8C0047000000E700000047000000E8000000C8
:103F9C0047000000EC00000047000000ED000000AE
:103FAC0047000000EF000000480000002700000060
:103FBC00480000002800000048000000E00000005D
:103FCC0048000000E100000048000000E200000092
:103FDC0048000000E300000048000000EB00000077
:103FEC0048000000EC00000048000000EF0000005A
:103FFC0049000000270000004900000028000000D4
:10400C004900000074000000490000007500000029
:10401C0049000000E000000049000000E100000041
:10402C0049000000E200000049000000EB00000025
:10403C0049000000EF0000004A00000027000000CB
:10404C004A000000280000004A0000007300000035
:10405C004A000000E00000004A000000E2000000FE
:10406C004A000000EB0000004A000000EF000000D6
:10407C004B000000710000004B00000072000000BB
:10408C004B000000730000004B000000E00000003B
:10409C004B000000E10000004B000000E2000000BB
:1040AC004B000000E90000004B000000EF00000096
:1040BC004C000000700000004C000000710000007B
:1040CC004C000000720000004C0000007600000064
:1040DC004C000000770000004C000000E1000000E4
:1040EC004C000000E20000004C000000E900000061
:1040FC004C000000EA0000004C000000EF00000043
:10410C004D000000270000004D00000028000000BA
:10411C004D000000290000004D0000002A000000A6
:10412C004D0000002B0000004D0000002C00000092
:10413C004D0000002D0000004D0000002E0000007E
:10414C004D0000002F0000004D000000300000006A
:10415C004D000000310000004D0000003200000056
:10416C004D0000006F0000004D00000070000000CA
:10417C004D000000710000004D00000073000000B5
:10418C004D000000740000004D00000075000000A0
:10419C004D000000760000004D000000E000000023
:1041AC004D000000E10000004D000000E2000000A6
:1041BC004D000000EA0000004D000000EB00000084
:1041CC004D000000EF0000004E0000002700000032
:1041DC004E000000280000004E00000029000000E6
:1041EC004E0000002A0000004E0000002B000000D2
:1041FC004E0000002C0000004E0000002D000000BE
:10420C004E0000002E0000004E0000002F000000A9
:10421C004E000000300000004E0000003100000095
:10422C004E000000320000004E0000006E00000046
:10423C004E0000006F0000004E00000071000000F6
:10424C004E000000720000004E00000073000000E1
:10425C004E000000740000004E000000DF00000063
:10426C004E000000E00000004E000000E1000000E5
:10427C004E000000E20000004E000000E9000000CB
:10428C004E000000EA0000004E000000EB000000B1
:10429C004E000000EF0000004F000000280000005E
:1042AC004F000000290000004F0000006D000000CE
:1042BC004F0000006E0000004F0000007000000076
:1042CC004F000000710000004F0000007200000061
:1042DC004F000000DF0000004F000000E000000075
:1042EC004F000000E10000004F000000E200000061
:1042FC004F000000E90000004F000000EA00000041
:10430C004F000000EF0000005000000028000000EB
:10431C00500000006C000000500000006D00000018
:10432C00500000006E000000500000006F00000004
:10433C00500000007000000050000000DE00000083
:10434C0050000000DF00000050000000E000000002
:10435C0050000000E100000050000000E7000000E9
:10436C0050000000E800000050000000E9000000D0
:10437C0050000000EF00000051000000270000007A
:10438C005100000028000000510000006C000000EB
:10439C00510000006D000000510000006E00000094
:1043AC00510000006F00000051000000DE00000012
:1043BC0051000000DF00000051000000E10000008F
:1043CC0051000000E900000051000000EF00000067
:1043DC0052000000270000005200000028000000DE
:1043EC00520000006B000000520000006C00000046
:1043FC00520000006D000000520000006E00000032
:10440C0052000000DD00000052000000DE00000041
:10441C0052000000EF0000005300000027000000D5
:10442C005300000028000000530000006A00000048
:10443C00530000006B000000530000006C000000F3
:10444C00530000006D00000053000000DD00000070
:10445C0053000000DE00000053000000E5000000E7
:10446C0053000000EF000000540000002700000083
:10447C005400000028000000540000002900000037
:10448C005400000069000000540000006A000000A5
:10449C00540000006B000000540000006C00000091
:1044AC0054000000DE00000054000000E100000099
:1044BC0055000000280000005500000029000000F5
:1044CC00550000002A000000550000002B000000E1
:1044DC00550000002C000000550000002D000000CD
:1044EC00550000002E000000550000002F000000B9
:1044FC0055000000300000005500000031000000A5
:10450C00550000003200000055000000690000005A
:10451C00550000006A000000550000006B00000010
:10452C00550000006C00000055000000DE0000008B
:10453C0055000000DF00000055000000E000000006
:10454C0055000000E100000055000000E3000000F1
:10455C0055000000E4000000560000002900000097
:10456C00560000002A000000560000002B0000003E
:10457C00560000002C000000560000002D0000002A
:10458C00560000002E000000560000002F00000016
:10459C005600000030000000560000003100000002
:1045AC0056000000320000005600000068000000B9
:1045BC005600000069000000560000006A00000070
:1045CC00560000006B00000056000000A800000020
:1045DC0056000000DE00000056000000DF00000066
:1045EC0056000000E000000056000000E200000051
:1045FC0056000000E300000056000000E40000003C
:10460C00570000002800000057000000290000009F
:10461C00570000006800000057000000690000000F
:10462C00570000006A00000057000000DF00000087
:10463C0057000000E000000057000000E1000000FF
:10464C0057000000E200000057000000E3000000EB
:10465C0057000000E4000000580000002800000093
:10466C0058000000670000005800000068000000BF
:10467C005800000069000000580000006A000000AB
:10468C0058000000E000000058000000E1000000AD
:10469C0058000000E2000000590000002700000054
:1046AC0059000000280000005900000067000000BD
:1046BC00590000006800000059000000690000006B
:1046CC005A000000270000005A00000028000000DB
:1046DC005A000000660000005A000000670000004D
:1046EC005A000000680000005A0000006900000039
:1046FC005A0000006A0000005B0000002700000068
:10470C005B000000280000005B0000005E00000061
:10471C005B000000610000005B0000006200000014
:10472C005B000000630000005B0000006400000000
:10473C005B000000650000005B00000066000000EC
:10474C005B000000670000005B00000068000000D8
:10475C005B000000690000005C0000002700000006
:10476C005C000000280000005C0000002900000034
:10477C005C0000005C0000005C0000005D000000BC
:10478C005C0000005E0000005C0000005F000000A8
:10479C005C000000600000005C0000006100000094
:1047AC005C000000620000005C0000006300000080
:1047BC005C000000640000005C000000650000006C
:1047CC005C000000660000005C0000006700000058
:1047DC005C000000680000005C0000006900000044
:1047EC005C0000006A0000005C0000006C0000002F
:1047FC005C000000A60000005D0000002800000026
:10480C005D000000290000005D0000002A0000008F
:10481C005D0000002B0000005D0000002C0000007B
:10482C005D0000002D0000005D0000002E00000067
:10483C005D0000002F0000005D0000003000000053
:10484C005D000000310000005D000000320000003F
:10485C005D000000570000005D00000058000000E3
:10486C005D000000590000005D0000005A000000CF
:10487C005D0000005B0000005D0000005C000000BB
:10488C005D0000005D0000005D0000005E000000A7
:10489C005D0000005F0000005D000000640000008F
:1048AC005D000000650000005D0000006600000077
:1048BC005D000000670000005D0000006800000063
:1048CC005D000000690000005D0000006A0000004F
:1048DC005D0000006B0000005D0000006C0000003B
:1048EC005D0000006D0000005D0000006E00000027
:1048FC005D0000006F0000005E0000002900000059
:10490C005E0000002A0000005E0000002B0000008A
:10491C005E0000002C0000005E0000002D00000076
:10492C005E0000002E0000005E0000002F00000062
:10493C005E000000300000005E000000310000004E
:10494C005E000000320000005E000000520000001B
:10495C005E000000550000005E00000056000000E4
:10496C005E000000570000005E00000058000000D0
:10497C005E000000590000005E0000005A000000BC
:10498C005E000000680000005E000000690000008E
:10499C005E0000006A0000005E0000006B0000007A
:1049AC005E0000006D0000005E0000006E00000064
:1049BC005E0000006F0000005E0000007000000050
:1049CC005E000000AC0000005F0000005200000020
:1049DC005F000000530000005F0000005400000066
:1049EC005F000000550000005F0000005600000052
:1049FC005F000000570000005F0000006F00000027
:104A0C005F000000700000005F00000071000000FB
:104A1C005F000000720000005F000000A2000000B8
:104A2C005F000000A30000005F000000AC0000006D
:104A3C006000000052000000600000005300000005
:104A4C0060000000540000006000000055000000F1
:104A5C0060000000710000006000000072000000A7
:104A6C00600000007300000060000000A200000065
:104A7C0061000000500000006100000051000000C7
:104A8C0061000000520000006100000053000000B3
:104A9C006100000072000000610000007300000063
:104AAC00610000007400000061000000A400000020
:104ABC00620000004F000000620000005000000087
:104ACC006200000051000000620000005200000073
:104ADC006200000072000000620000007300000021
:104AEC00620000007400000062000000750000000D
:104AFC0062000000760000006200000077000000F9
:104B0C006200000078000000620000007A000000E3
:104B1C0062000000A400000062000000A50000007C
:104B2C00630000002200000063000000230000006E
:104B3C006300000024000000630000002700000058
:104B4C006300000028000000630000002900000042
:104B5C00630000002A000000630000002B0000002E
:104B6C00630000002C000000630000002D0000001A
:104B7C00630000002E000000630000002F00000006
:104B8C0063000000300000006300000031000000F2
:104B9C006300000032000000630000004E000000C3
:104BAC00630000004F000000630000005000000094
:104BBC00630000005300000063000000730000005D
:104BCC00630000007400000063000000750000002A
:104BDC006300000077000000630000007800000014
:104BEC006300000079000000630000007A00000000
:104BFC00630000007B000000630000007C000000EC
:104C0C0063000000A400000063000000A500000089
:104C1C0063000000A60000006400000022000000F9
:104C2C006400000023000000640000002400000069
:104C3C006400000027000000640000002800000051
:104C4C006400000029000000640000002A0000003D
:104C5C00640000002B000000640000002C00000029
:104C6C00640000002D000000640000002E00000015
:104C7C00640000002F000000640000003000000001
:104C8C0064000000310000006400000032000000ED
:104C9C00640000004D000000640000004E000000A5
:104CAC00640000004F000000640000005100000090
:104CBC00640000005200000064000000530000007B
:104CCC006400000073000000640000007700000026
:104CDC00640000007800000064000000790000000F
:104CEC00640000007A000000640000007B000000FB
:104CFC00640000007C0000006400000081000000E3
:104D0C0064000000820000006400000083000000CA
:104D1C00650000004D000000650000004E00000022
:104D2C00650000004F00000065000000500000000E
:104D3C0065000000520000006500000072000000D9
:104D4C006500000073000000650000007A000000A0
:104D5C00650000007B000000650000007C00000086
:104D6C00650000008000000065000000810000006C
:104D7C006500000082000000650000008300000058
:104D8C006500000084000000660000004F00000079
:104D9C00660000005000000066000000510000009A
:104DAC006600000072000000660000007300000046
:104DBC006600000074000000660000007500000032
:104DCC00660000007600000066000000770000001E
:104DDC006600000078000000660000007B00000008
:104DEC00660000007C000000660000007D000000F2
:104DFC00660000007E000000660000007F000000DE
:104E0C0066000000800000006600000081000000C9
:104E1C0066000000820000006600000083000000B5
:104E2C0066000000840000006600000085000000A1
:104E3C00670000004C000000670000004D000000FF
:104E4C00670000004F0000006700000050000000E9
:104E5C006700000072000000670000007300000093
:104E6C00670000007400000067000000750000007F
:104E7C006700000076000000670000007D00000065
:104E8C00670000007E000000670000007F0000004B
:104E9C006700000080000000670000008100000037
:104EAC00670000008400000067000000850000001F
:104EBC006700000086000000680000002A00000067
:104ECC00680000002B000000680000002C000000AF
:104EDC00680000002D000000680000002E0000009B
:104EEC00680000002F000000680000004A0000006D
:104EFC00680000004B000000680000004C0000003F
:104F0C00680000004F000000680000005000000026
:104F1C00680000007D000000680000007E000000BA
:104F2C00680000007F0000006800000083000000A3
:104F3C00680000008400000068000000850000008C
:104F4C0068000000860000006900000029000000D5
:104F5C00690000002A000000690000002B0000001E
:104F6C00690000002C000000690000002D0000000A
:104F7C00690000002E000000690000002F000000F6
:104F8C006900000030000000690000004A000000C9
:104F9C00690000004B000000690000004C0000009C
:104FAC00690000004D000000690000004E00000088
:104FBC00690000004F00000069000000780000004C
:104FCC006900000079000000690000007A00000010
:104FDC00690000007D000000690000007E000000F8
:104FEC0069000000850000006900000086000000D8
:104FFC0069000000870000006A0000002800000023
:10500C006A000000290000006A0000002A0000006D
:10501C006A0000002F0000006A0000003000000051
:10502C006A000000310000006A0000004C00000023
:10503C006A0000004D0000006A0000004E000000F5
:10504C006A0000004F0000006A00000050000000E1
:10505C006A000000780000006A000000790000007F
:10506C006A0000007A0000006A0000007B0000006B
:10507C006A0000007C0000006A0000007D00000057
:10508C006A0000007E0000006A0000007F00000043
:10509C006A000000800000006A000000860000002A
:1050AC006A000000870000006A000000D3000000C6
:1050BC006B000000270000006B00000028000000BF
:1050CC006B000000290000006B00000030000000A5
:1050DC006B000000310000006B000000320000008B
:1050EC006B0000004D0000006B0000004E00000043
:1050FC006B0000004F0000006B000000500000002F
:10510C006B000000520000006B00000074000000F7
:10511C006B000000760000006B00000079000000BE
:10512C006B0000007A0000006B0000007C000000A7
:10513C006B0000007D0000006B0000007E00000092
:10514C006B0000007F0000006B000000800000007E
:10515C006B000000810000006B0000008600000066
:10516C006B000000870000006B000000B400000022
:10517C006B000000D20000006B000000D3000000A8
:10518C006B000000D40000006B000000D500000094
:10519C006C000000270000006C00000028000000DC
:1051AC006C000000310000006C00000032000000B8
:1051BC006C0000004C0000006C0000004E00000071
:1051CC006C0000004F0000006C000000500000005C
:1051DC006C000000510000006C0000005200000048
:1051EC006C000000750000006C00000076000000F0
:1051FC006C000000770000006C00000079000000DB
:10520C006C0000007A0000006C0000007B000000C5
:10521C006C0000007C0000006C0000007F000000AF
:10522C006C000000800000006C0000008100000099
:10523C006C000000820000006C0000008400000084
:10524C006C000000850000006C000000870000006E
:10525C006C000000A00000006C000000B100000019
:10526C006C000000B20000006C000000B3000000F5
:10527C006C000000B40000006C000000B5000000E1
:10528C006C000000B60000006C000000B7000000CD
:10529C006C000000B80000006C000000B9000000B9
:1052AC006C000000BA0000006C000000BB000000A5
:1052BC006C000000BC0000006C000000BD00000091
:1052CC006C000000C70000006C000000C80000006B
:1052DC006C000000D30000006C000000D400000043
:1052EC006C000000D50000006D00000027000000DD
:1052FC006D000000280000006D000000310000006F
:10530C006D000000320000006D0000004F00000036
:10531C006D000000500000006D0000005100000006
:10532C006D000000520000006D00000073000000D2
:10533C006D000000740000006D000000750000009E
:10534C006D000000760000006D000000770000008A
:10535C006D000000780000006D0000007900000076
:10536C006D0000007A0000006D0000007B00000062
:10537C006D0000007C0000006D0000007D0000004E
:10538C006D0000007E0000006D0000008000000039
:10539C006D000000810000006D0000008200000024
:1053AC006D000000830000006D0000008400000010
:1053BC006D000000860000006D00000087000000FA
:1053CC006D000000B70000006D000000B800000088
:1053DC006D000000BB0000006D000000BC00000070
:1053EC006D000000BD0000006D000000BE0000005C
:1053FC006D000000BF0000006D000000C000000048
:10540C006D000000C20000006D000000C50000002F
:10541C006D000000C60000006D000000C700000019
:10542C006D000000C80000006D000000D4000000FA
:10543C006E000000270000006E0000002800000035
:10544C006E000000310000006E0000003200000011
:10545C006E0000004F0000006E00000050000000C5
:10546C006E000000510000006E00000052000000B1
:10547C006E000000530000006E0000007100000080
:10548C006E000000720000006E000000730000004F
:10549C006E000000740000006E000000750000003B
:1054AC006E000000770000006E0000007800000025
:1054BC006E000000790000006E0000007A00000011
:1054CC006E0000007B0000006E0000007C000000FD
:1054DC006E0000007D0000006E0000007E000000E9
:1054EC006E0000007F0000006E00000081000000D4
:1054FC006E000000820000006E00000083000000BF
:10550C006E000000840000006E00000086000000A9
:10551C006E000000870000006E000000C10000005B
:10552C006E000000C20000006E000000C30000000E
:10553C006E000000C70000006E000000C9000000F3
:10554C006E000000CA0000006F0000002700000081
:10555C006F000000280000006F0000003100000008
:10556C006F000000320000006F0000004E000000D1
:10557C006F0000004F0000006F00000050000000A2
:10558C006F000000510000006F000000520000008E
:10559C006F000000530000006F0000006E00000060
:1055AC006F0000006F0000006F0000007000000032
:1055BC006F000000710000006F000000720000001E
:1055CC006F000000730000006F000000740000000A
:1055DC006F000000750000006F00000076000000F6
:1055EC006F000000770000006F00000078000000E2
:1055FC006F000000790000006F0000007A000000CE
:10560C006F0000007B0000006F0000007C000000B9
:10561C006F0000007E0000006F0000007F000000A3
:10562C006F000000800000006F000000830000008D
:10563C006F000000840000006F0000008500000077
:10564C006F000000860000006F000000BF0000002B
:10565C006F000000C00000006F000000C2000000DE
:10566C006F000000C30000006F000000C4000000C9
:10567C006F000000C60000006F000000C9000000B1
:10568C006F000000CD0000006F000000EF00000074
:10569C0070000000270000007000000028000000CF
:1056AC0070000000310000007000000032000000AB
:1056BC00700000005100000070000000520000005B
:1056CC007000000053000000700000005400000047
:1056DC00700000006B000000700000006C00000007
:1056EC00700000006E000000700000006F000000F1
:1056FC0070000000700000007000000073000000DB
:10570C0070000000750000007000000076000000C2
:10571C0070000000770000007000000078000000AE
:10572C007000000079000000700000007A0000009A
:10573C00700000007B000000700000007C00000086
:10574C00700000007D000000700000007E00000072
:10575C00700000007F00000070000000800000005E
:10576C007000000082000000700000008300000048
:10577C007000000084000000700000008500000034
:10578C00700000008600000070000000BD000000EA
:10579C0070000000BE00000070000000BF000000A0
:1057AC0070000000C000000070000000C10000008C
:1057BC0070000000C200000070000000C300000078
:1057CC0070000000C400000070000000C700000062
:1057DC0070000000C800000070000000EF00000026
:1057EC00710000002800000071000000290000007A
:1057FC00710000003000000071000000310000005A
:10580C007100000051000000710000005200000007
:10581C0071000000530000007100000054000000F3
:10582C007100000069000000710000006A000000B7
:10583C00710000006B000000710000006C000000A3
:10584C00710000006D000000710000006E0000008F
:10585C00710000006F00000071000000700000007B
:10586C007100000071000000710000007200000067
:10587C00710000007700000071000000780000004B
:10588C007100000079000000710000007A00000037
:10589C00710000007B000000710000007C00000023
:1058AC00710000007D000000710000007E0000000F
:1058BC00710000007F0000007100000080000000FB
:1058CC0071000000810000007100000082000000E7
:1058DC0071000000830000007100000084000000D3
:1058EC00710000008500000071000000BA0000008B
:1058FC0071000000BB00000071000000BC00000043
:10590C0071000000BD00000071000000BE0000002E
:10591C0071000000BF00000071000000C00000001A
:10592C0071000000C100000071000000C200000006
:10593C0071000000C300000071000000C8000000EE
:10594C0071000000C900000071000000EF000000B1
:10595C0072000000510000007200000052000000B4
:10596C0072000000530000007200000054000000A0
:10597C007200000067000000720000006800000068
:10598C007200000069000000720000006A00000054
:10599C00720000006B000000720000006C00000040
:1059AC00720000006D000000720000006E0000002C
:1059BC00720000006F000000720000007000000018
:1059CC0072000000710000007200000079000000FD
:1059DC00720000007A000000720000007B000000E2
:1059EC00720000007C000000720000007D000000CE
:1059FC00720000007E000000720000007F000000BA
:105A0C0072000000800000007200000081000000A5
:105A1C007200000082000000720000008300000091
:105A2C0072000000B800000072000000B900000015
:105A3C0072000000BA00000072000000BB00000001
:105A4C0072000000BC00000072000000BD000000ED
:105A5C0072000000BF00000072000000C6000000D1
:105A6C0072000000C700000072000000EF00000090
:105A7C00730000004F000000730000005000000095
:105A8C007300000051000000730000005200000081
:105A9C00730000005300000073000000620000005F
:105AAC00730000006300000073000000640000003D
:105ABC007300000065000000730000006600000029
:105ACC007300000067000000730000006800000015
