:020000040800F2
:100000000008002089010008E1010008E101000862
:10001000E1010008E1010008E10100080000000022
:10002000000000000000000000000000E1010008E6
:10003000E101000800000000E1010008E101000802
:10004000E1010008E1010008E1010008E101000808
:10005000E1010008E1010008E1010008E1010008F8
:10006000E1010008E1010008E1010008E1010008E8
:10007000E1010008E1010008E1010008E1010008D8
:10008000E1010008E1010008E1010008E1010008C8
:10009000E1010008E1010008E1010008E1010008B8
:1000A000E1010008E1010008E1010008E1010008A8
:1000B000E1010008E1010008E1010008E101000898
:1000C000E1010008E1010008E1010008E101000888
:1000D000E1010008E1010008E1010008E101000878
:1000E000E1010008E1010008E1010008E101000868
:1000F000E1010008E1010008E1010008E101000858
:10010000E1010008E1010008E1010008E101000847
:10011000E1010008E1010008E1010008E101000837
:10012000E1010008E1010008E1010008E101000827
:10013000E1010008E1010008E1010008E101000817
:10014000E1010008E1010008E1010008E101000807
:10015000E1010008E1010008E1010008E1010008F7
:10016000E1010008E1010008E1010008E1010008E7
:10017000E1010008E1010008E1010008E1010008D7
:10018000E1010008E101000880B582B000AF0F4B2B
:100190007B600F4B3B6007E03B681A1D3A607A6852
:1001A000111D796012681A603B680A4A9342F3D3C2
:1001B00009480A494FF000028842B8BF40F8042BB2
:1001C000FADB00F011F80837BD4680BD4003000897
:1001D000000000200000002000000020000000209F
:1001E00080B400AFFEE700BF80B500AF00F002F8BA
:1001F000184680BD80B500AF114A114B1B6843F013
:10020000010313600E4B00229A600D4A0C4B1B68D1
:1002100023F0847323F480331360094B094A5A6036
:10022000074A074B1B6823F480231360044B00220A
:10023000DA6000F00BF8044B4FF000629A6080BD6A
:10024000003802401030002400ED00E080B483B09C
:1002500000AF00237B6000233B60354A344B1B68B2
:1002600043F480331360324B1B6803F400333B606C
:100270007B6801337B603B68002B03D17B68B3F55F
:10028000A06FF0D12A4B1B6803F40033002B02D07F
:1002900001233B6001E000233B603B68012B42D11E
:1002A000234A234B1B6C43F080531364214A214B98
:1002B0001B6843F4804313601D4A1D4B9B68936089
:1002C0001B4A1B4B9B6843F400439360184A184B2E
:1002D0009B6843F4A0539360154B174A5A60144A25
:1002E000134B1B6843F08073136000BF104B1B68F7
:1002F00003F00073002BF9D0104B40F205621A6036
:100300000B4A0B4B9B6823F003039360084A084B8E
:100310009B6843F00203936000BF054B9B6803F0AA
:100320000C03082BF9D10C37BD465DF8047B7047F0
:10033000003802400070004019544007003C024061
:0400000508000000EF
:00000001FF
